{
  "_format": "hh-sol-artifact-1",
  "contractName": "Property",
  "sourceName": "contracts/Property.sol",
  "abi": [
    {
      "inputs": [
        {
          "internalType": "string",
          "name": "_baseUrl",
          "type": "string"
        },
        {
          "internalType": "uint256",
          "name": "_pricePerShare",
          "type": "uint256"
        },
        {
          "internalType": "uint256",
          "name": "_totalShares",
          "type": "uint256"
        }
      ],
      "stateMutability": "nonpayable",
      "type": "constructor"
    },
    {
      "anonymous": false,
      "inputs": [
        {
          "indexed": true,
          "internalType": "address",
          "name": "account",
          "type": "address"
        },
        {
          "indexed": true,
          "internalType": "address",
          "name": "operator",
          "type": "address"
        },
        {
          "indexed": false,
          "internalType": "bool",
          "name": "approved",
          "type": "bool"
        }
      ],
      "name": "ApprovalForAll",
      "type": "event"
    },
    {
      "anonymous": false,
      "inputs": [
        {
          "indexed": false,
          "internalType": "address",
          "name": "seller",
          "type": "address"
        },
        {
          "indexed": false,
          "internalType": "uint256",
          "name": "price",
          "type": "uint256"
        },
        {
          "indexed": false,
          "internalType": "uint256",
          "name": "amount",
          "type": "uint256"
        }
      ],
      "name": "ListShares",
      "type": "event"
    },
    {
      "anonymous": false,
      "inputs": [
        {
          "indexed": false,
          "internalType": "address",
          "name": "minter",
          "type": "address"
        },
        {
          "indexed": false,
          "internalType": "uint256",
          "name": "amount",
          "type": "uint256"
        }
      ],
      "name": "MintShares",
      "type": "event"
    },
    {
      "anonymous": false,
      "inputs": [
        {
          "indexed": false,
          "internalType": "address",
          "name": "buyer",
          "type": "address"
        },
        {
          "indexed": false,
          "internalType": "address",
          "name": "seller",
          "type": "address"
        },
        {
          "indexed": false,
          "internalType": "uint256",
          "name": "amount",
          "type": "uint256"
        }
      ],
      "name": "PurchaseShares",
      "type": "event"
    },
    {
      "anonymous": false,
      "inputs": [
        {
          "indexed": false,
          "internalType": "address",
          "name": "fromAddress",
          "type": "address"
        },
        {
          "indexed": false,
          "internalType": "uint256",
          "name": "value",
          "type": "uint256"
        }
      ],
      "name": "ReceiveFunds",
      "type": "event"
    },
    {
      "anonymous": false,
      "inputs": [
        {
          "indexed": false,
          "internalType": "address",
          "name": "toAddress",
          "type": "address"
        },
        {
          "indexed": false,
          "internalType": "uint256",
          "name": "tokenBalance",
          "type": "uint256"
        },
        {
          "indexed": false,
          "internalType": "uint256",
          "name": "value",
          "type": "uint256"
        }
      ],
      "name": "ReceiveFundsPayout",
      "type": "event"
    },
    {
      "anonymous": false,
      "inputs": [
        {
          "indexed": true,
          "internalType": "address",
          "name": "operator",
          "type": "address"
        },
        {
          "indexed": true,
          "internalType": "address",
          "name": "from",
          "type": "address"
        },
        {
          "indexed": true,
          "internalType": "address",
          "name": "to",
          "type": "address"
        },
        {
          "indexed": false,
          "internalType": "uint256[]",
          "name": "ids",
          "type": "uint256[]"
        },
        {
          "indexed": false,
          "internalType": "uint256[]",
          "name": "values",
          "type": "uint256[]"
        }
      ],
      "name": "TransferBatch",
      "type": "event"
    },
    {
      "anonymous": false,
      "inputs": [
        {
          "indexed": true,
          "internalType": "address",
          "name": "operator",
          "type": "address"
        },
        {
          "indexed": true,
          "internalType": "address",
          "name": "from",
          "type": "address"
        },
        {
          "indexed": true,
          "internalType": "address",
          "name": "to",
          "type": "address"
        },
        {
          "indexed": false,
          "internalType": "uint256",
          "name": "id",
          "type": "uint256"
        },
        {
          "indexed": false,
          "internalType": "uint256",
          "name": "value",
          "type": "uint256"
        }
      ],
      "name": "TransferSingle",
      "type": "event"
    },
    {
      "anonymous": false,
      "inputs": [
        {
          "indexed": false,
          "internalType": "string",
          "name": "value",
          "type": "string"
        },
        {
          "indexed": true,
          "internalType": "uint256",
          "name": "id",
          "type": "uint256"
        }
      ],
      "name": "URI",
      "type": "event"
    },
    {
      "anonymous": false,
      "inputs": [
        {
          "indexed": false,
          "internalType": "address",
          "name": "withdrawalAddress",
          "type": "address"
        },
        {
          "indexed": false,
          "internalType": "uint256",
          "name": "value",
          "type": "uint256"
        }
      ],
      "name": "WithdrawFunds",
      "type": "event"
    },
    {
      "inputs": [
        {
          "internalType": "uint256",
          "name": "",
          "type": "uint256"
        }
      ],
      "name": "Listings",
      "outputs": [
        {
          "internalType": "bool",
          "name": "isActive",
          "type": "bool"
        },
        {
          "internalType": "uint256",
          "name": "listingID",
          "type": "uint256"
        },
        {
          "internalType": "uint256",
          "name": "price",
          "type": "uint256"
        },
        {
          "internalType": "uint256",
          "name": "amount",
          "type": "uint256"
        },
        {
          "internalType": "address",
          "name": "owner",
          "type": "address"
        }
      ],
      "stateMutability": "view",
      "type": "function"
    },
    {
      "inputs": [
        {
          "internalType": "address",
          "name": "account",
          "type": "address"
        },
        {
          "internalType": "uint256",
          "name": "id",
          "type": "uint256"
        }
      ],
      "name": "balanceOf",
      "outputs": [
        {
          "internalType": "uint256",
          "name": "",
          "type": "uint256"
        }
      ],
      "stateMutability": "view",
      "type": "function"
    },
    {
      "inputs": [
        {
          "internalType": "address[]",
          "name": "accounts",
          "type": "address[]"
        },
        {
          "internalType": "uint256[]",
          "name": "ids",
          "type": "uint256[]"
        }
      ],
      "name": "balanceOfBatch",
      "outputs": [
        {
          "internalType": "uint256[]",
          "name": "",
          "type": "uint256[]"
        }
      ],
      "stateMutability": "view",
      "type": "function"
    },
    {
      "inputs": [
        {
          "internalType": "address",
          "name": "account",
          "type": "address"
        },
        {
          "internalType": "address",
          "name": "operator",
          "type": "address"
        }
      ],
      "name": "isApprovedForAll",
      "outputs": [
        {
          "internalType": "bool",
          "name": "",
          "type": "bool"
        }
      ],
      "stateMutability": "view",
      "type": "function"
    },
    {
      "inputs": [
        {
          "internalType": "uint256",
          "name": "price",
          "type": "uint256"
        },
        {
          "internalType": "uint256",
          "name": "amount",
          "type": "uint256"
        }
      ],
      "name": "listShares",
      "outputs": [],
      "stateMutability": "nonpayable",
      "type": "function"
    },
    {
      "inputs": [],
      "name": "listingCounter",
      "outputs": [
        {
          "internalType": "uint256",
          "name": "_value",
          "type": "uint256"
        }
      ],
      "stateMutability": "view",
      "type": "function"
    },
    {
      "inputs": [
        {
          "internalType": "uint256",
          "name": "",
          "type": "uint256"
        }
      ],
      "name": "listings",
      "outputs": [
        {
          "internalType": "bool",
          "name": "isActive",
          "type": "bool"
        },
        {
          "internalType": "uint256",
          "name": "listingID",
          "type": "uint256"
        },
        {
          "internalType": "uint256",
          "name": "price",
          "type": "uint256"
        },
        {
          "internalType": "uint256",
          "name": "amount",
          "type": "uint256"
        },
        {
          "internalType": "address",
          "name": "owner",
          "type": "address"
        }
      ],
      "stateMutability": "view",
      "type": "function"
    },
    {
      "inputs": [
        {
          "internalType": "uint256",
          "name": "amountOfTokens",
          "type": "uint256"
        }
      ],
      "name": "mint",
      "outputs": [],
      "stateMutability": "payable",
      "type": "function"
    },
    {
      "inputs": [
        {
          "internalType": "address",
          "name": "",
          "type": "address"
        }
      ],
      "name": "paymentBalances",
      "outputs": [
        {
          "internalType": "uint256",
          "name": "",
          "type": "uint256"
        }
      ],
      "stateMutability": "view",
      "type": "function"
    },
    {
      "inputs": [],
      "name": "pricePerShare",
      "outputs": [
        {
          "internalType": "uint256",
          "name": "",
          "type": "uint256"
        }
      ],
      "stateMutability": "view",
      "type": "function"
    },
    {
      "inputs": [
        {
          "internalType": "uint256",
          "name": "listingId",
          "type": "uint256"
        },
        {
          "internalType": "uint256",
          "name": "amountToPurchase",
          "type": "uint256"
        }
      ],
      "name": "purchaseShares",
      "outputs": [],
      "stateMutability": "payable",
      "type": "function"
    },
    {
      "inputs": [],
      "name": "receiveFunds",
      "outputs": [],
      "stateMutability": "payable",
      "type": "function"
    },
    {
      "inputs": [
        {
          "internalType": "address",
          "name": "from",
          "type": "address"
        },
        {
          "internalType": "address",
          "name": "to",
          "type": "address"
        },
        {
          "internalType": "uint256[]",
          "name": "ids",
          "type": "uint256[]"
        },
        {
          "internalType": "uint256[]",
          "name": "amounts",
          "type": "uint256[]"
        },
        {
          "internalType": "bytes",
          "name": "data",
          "type": "bytes"
        }
      ],
      "name": "safeBatchTransferFrom",
      "outputs": [],
      "stateMutability": "nonpayable",
      "type": "function"
    },
    {
      "inputs": [
        {
          "internalType": "address",
          "name": "from",
          "type": "address"
        },
        {
          "internalType": "address",
          "name": "to",
          "type": "address"
        },
        {
          "internalType": "uint256",
          "name": "id",
          "type": "uint256"
        },
        {
          "internalType": "uint256",
          "name": "amount",
          "type": "uint256"
        },
        {
          "internalType": "bytes",
          "name": "data",
          "type": "bytes"
        }
      ],
      "name": "safeTransferFrom",
      "outputs": [],
      "stateMutability": "nonpayable",
      "type": "function"
    },
    {
      "inputs": [
        {
          "internalType": "address",
          "name": "operator",
          "type": "address"
        },
        {
          "internalType": "bool",
          "name": "approved",
          "type": "bool"
        }
      ],
      "name": "setApprovalForAll",
      "outputs": [],
      "stateMutability": "nonpayable",
      "type": "function"
    },
    {
      "inputs": [
        {
          "internalType": "bytes4",
          "name": "interfaceId",
          "type": "bytes4"
        }
      ],
      "name": "supportsInterface",
      "outputs": [
        {
          "internalType": "bool",
          "name": "",
          "type": "bool"
        }
      ],
      "stateMutability": "view",
      "type": "function"
    },
    {
      "inputs": [],
      "name": "totalIssuedShares",
      "outputs": [
        {
          "internalType": "uint256",
          "name": "",
          "type": "uint256"
        }
      ],
      "stateMutability": "view",
      "type": "function"
    },
    {
      "inputs": [],
      "name": "totalShares",
      "outputs": [
        {
          "internalType": "uint256",
          "name": "",
          "type": "uint256"
        }
      ],
      "stateMutability": "view",
      "type": "function"
    },
    {
      "inputs": [
        {
          "internalType": "uint256",
          "name": "",
          "type": "uint256"
        }
      ],
      "name": "uri",
      "outputs": [
        {
          "internalType": "string",
          "name": "",
          "type": "string"
        }
      ],
      "stateMutability": "view",
      "type": "function"
    },
    {
      "inputs": [
        {
          "internalType": "uint256",
          "name": "amount",
          "type": "uint256"
        },
        {
          "internalType": "address payable",
          "name": "recipientAddress",
          "type": "address"
        }
      ],
      "name": "withdrawFunds",
      "outputs": [],
      "stateMutability": "nonpayable",
      "type": "function"
    }
  ],
  "bytecode": "0x608060405260006004553480156200001657600080fd5b50604051620026a1380380620026a1833981016040819052620000399162000115565b82620000458162000056565b506008919091556009555062000258565b80516200006b9060029060208401906200006f565b5050565b8280546200007d9062000205565b90600052602060002090601f016020900481019282620000a15760008555620000ec565b82601f10620000bc57805160ff1916838001178555620000ec565b82800160010185558215620000ec579182015b82811115620000ec578251825591602001919060010190620000cf565b50620000fa929150620000fe565b5090565b5b80821115620000fa5760008155600101620000ff565b6000806000606084860312156200012b57600080fd5b83516001600160401b03808211156200014357600080fd5b818601915086601f8301126200015857600080fd5b8151818111156200016d576200016d62000242565b604051601f8201601f19908116603f0116810190838211818310171562000198576200019862000242565b81604052828152602093508984848701011115620001b557600080fd5b600091505b82821015620001d95784820184015181830185015290830190620001ba565b82821115620001eb5760008484830101525b928801516040909801519299979850919695505050505050565b600181811c908216806200021a57607f821691505b602082108114156200023c57634e487b7160e01b600052602260045260246000fd5b50919050565b634e487b7160e01b600052604160045260246000fd5b61243980620002686000396000f3fe60806040526004361061015d5760003560e01c80636c2c9c7d116100c0578063a238423611610074578063de74e57b11610059578063de74e57b146103a8578063e985e9c5146103ff578063f242432a1461044857600080fd5b8063a238423614610375578063d2bcdc601461039557600080fd5b806399530b06116100a557806399530b061461032c578063a0712d6814610342578063a22cb4651461035557600080fd5b80636c2c9c7d146102f5578063744bfe611461030c57600080fd5b806323b7c6461161011757806333caeb94116100fc57806333caeb941461025f5780633a98ef39146102b25780634e1273f4146102c857600080fd5b806323b7c646146102295780632eb2c2d61461023f57600080fd5b806301ffc9a71161014857806301ffc9a71461019f57806303fc8d2b146101cf5780630e89341c146101fc57600080fd5b80625c33e114610162578062fdd58e1461016c575b600080fd5b61016a610468565b005b34801561017857600080fd5b5061018c610187366004611ec0565b610598565b6040519081526020015b60405180910390f35b3480156101ab57600080fd5b506101bf6101ba366004611fbf565b610644565b6040519015158152602001610196565b3480156101db57600080fd5b5061018c6101ea366004611d20565b60066020526000908152604090205481565b34801561020857600080fd5b5061021c610217366004611ff9565b6106df565b60405161019691906121c3565b34801561023557600080fd5b5061018c600a5481565b34801561024b57600080fd5b5061016a61025a366004611d76565b610773565b34801561026b57600080fd5b5061027f61027a366004611ff9565b610815565b60408051951515865260208601949094529284019190915260608301526001600160a01b0316608082015260a001610196565b3480156102be57600080fd5b5061018c60095481565b3480156102d457600080fd5b506102e86102e3366004611eec565b610863565b6040516101969190612182565b34801561030157600080fd5b5060035461018c9081565b34801561031857600080fd5b5061016a610327366004612012565b6109a1565b34801561033857600080fd5b5061018c60085481565b61016a610350366004611ff9565b610a99565b34801561036157600080fd5b5061016a610370366004611e8d565b610bc9565b34801561038157600080fd5b5061016a610390366004612037565b610bd8565b61016a6103a3366004612037565b610e06565b3480156103b457600080fd5b5061027f6103c3366004611ff9565b6005602052600090815260409020805460018201546002830154600384015460049094015460ff9093169391929091906001600160a01b031685565b34801561040b57600080fd5b506101bf61041a366004611d3d565b6001600160a01b03918216600090815260016020908152604080832093909416825291909152205460ff1690565b34801561045457600080fd5b5061016a610463366004611e24565b611194565b60005b610475600b61122f565b81101561055d576000610489600b83611239565b9050600061049982600454610598565b905080156105485760006104c2346104bc600a548561124c90919063ffffffff16565b90611258565b6040519091506001600160a01b0384169082156108fc029083906000818181858888f193505050501580156104fb573d6000803e3d6000fd5b50604080516001600160a01b0385168152602081018490529081018290527f1bce738afce154c79bcc3113f446651c11d8d4d89a3957b0c843afff0ef93ea09060600160405180910390a1505b50508080610555906122d2565b91505061046b565b50604080513381523460208201527ff7116f8ce12018cbf35ab846afe2ed8ca23445fc5f7f22d402077a0a151a507e910160405180910390a1565b60006001600160a01b03831661061b5760405162461bcd60e51b815260206004820152602b60248201527f455243313135353a2062616c616e636520717565727920666f7220746865207a60448201527f65726f206164647265737300000000000000000000000000000000000000000060648201526084015b60405180910390fd5b506000818152602081815260408083206001600160a01b03861684529091529020545b92915050565b60006001600160e01b031982167fd9b67a260000000000000000000000000000000000000000000000000000000014806106a757506001600160e01b031982167f0e89341c00000000000000000000000000000000000000000000000000000000145b8061063e57507f01ffc9a7000000000000000000000000000000000000000000000000000000006001600160e01b031983161461063e565b6060600280546106ee9061226a565b80601f016020809104026020016040519081016040528092919081815260200182805461071a9061226a565b80156107675780601f1061073c57610100808354040283529160200191610767565b820191906000526020600020905b81548152906001019060200180831161074a57829003601f168201915b50505050509050919050565b6001600160a01b03851633148061078f575061078f853361041a565b6108015760405162461bcd60e51b815260206004820152603260248201527f455243313135353a207472616e736665722063616c6c6572206973206e6f742060448201527f6f776e6572206e6f7220617070726f76656400000000000000000000000000006064820152608401610612565b61080e8585858585611264565b5050505050565b6007818154811061082557600080fd5b60009182526020909120600590910201805460018201546002830154600384015460049094015460ff9093169450909290916001600160a01b031685565b606081518351146108dc5760405162461bcd60e51b815260206004820152602960248201527f455243313135353a206163636f756e747320616e6420696473206c656e67746860448201527f206d69736d6174636800000000000000000000000000000000000000000000006064820152608401610612565b6000835167ffffffffffffffff8111156108f8576108f8612319565b604051908082528060200260200182016040528015610921578160200160208202803683370190505b50905060005b84518110156109995761096c85828151811061094557610945612303565b602002602001015185838151811061095f5761095f612303565b6020026020010151610598565b82828151811061097e5761097e612303565b6020908102919091010152610992816122d2565b9050610927565b509392505050565b33600090815260066020526040902054821115610a005760405162461bcd60e51b815260206004820152601260248201527f696e73756666696369656e742066756e647300000000000000000000000000006044820152606401610612565b6040516001600160a01b0382169083156108fc029084906000818181858888f19350505050158015610a36573d6000803e3d6000fd5b503360009081526006602052604081208054849290610a56908490612253565b909155505060408051338152602081018490527f21901fa892c430ea8bd38b9390225ac8e67eac75ee10ffba16feefc539a288f991015b60405180910390a15050565b600854610aa7908290611258565b341015610af65760405162461bcd60e51b815260206004820152601660248201527f496e76616c6964207061796d656e7420616d6f756e74000000000000000000006044820152606401610612565b600954600a54610b0690836114d7565b1115610b545760405162461bcd60e51b815260206004820152601860248201527f496e76616c696420616d6f756e74206f6620737570706c7900000000000000006044820152606401610612565b610b713360045483604051806020016040528060008152506114e3565b600a54610b7e90826114d7565b600a55610b8c600b33611609565b5060408051338152602081018390527fe0db2c42b942601357f9499d6f0520c824b2ce7513135a456b661d1d3e45de5e910160405180910390a150565b610bd433838361161e565b5050565b80610be533600454610598565b1015610c335760405162461bcd60e51b815260206004820152601b60248201527f63616c6c6572206d757374206f776e20676976656e20746f6b656e00000000006044820152606401610612565b33600090815260016020908152604080832030845290915290205460ff16610c9d5760405162461bcd60e51b815260206004820152601960248201527f636f6e7472616374206d75737420626520617070726f766564000000000000006044820152606401610612565b60006040518060a00160405280600115158152602001610cbc60035490565b81526020808201869052604080830186905233606093840152600780546001808201835560009290925285517fa66cc928b5edb82af9bd49922954155ab7b0942694bea4ce44661d9a8736c6886005909202918201805460ff1916911515919091179055928501517fa66cc928b5edb82af9bd49922954155ab7b0942694bea4ce44661d9a8736c689840155908401517fa66cc928b5edb82af9bd49922954155ab7b0942694bea4ce44661d9a8736c68a830155918301517fa66cc928b5edb82af9bd49922954155ab7b0942694bea4ce44661d9a8736c68b82015560808301517fa66cc928b5edb82af9bd49922954155ab7b0942694bea4ce44661d9a8736c68c90910180547fffffffffffffffffffffffff0000000000000000000000000000000000000000166001600160a01b039092169190911790556003805490910190559050505050565b610e3d8160078481548110610e1d57610e1d612303565b90600052602060002090600502016002015461125890919063ffffffff16565b341015610e8c5760405162461bcd60e51b815260206004820152601760248201527f696e73756666696369656e742066756e64732073656e740000000000000000006044820152606401610612565b60078281548110610e9f57610e9f612303565b906000526020600020906005020160030154811115610f265760405162461bcd60e51b815260206004820152602260248201527f696e76616c696420616d6f756e74206f6620736861726573207265717565737460448201527f65640000000000000000000000000000000000000000000000000000000000006064820152608401610612565b80610f6a60078481548110610f3d57610f3d612303565b906000526020600020906005020160040160009054906101000a90046001600160a01b0316600454610598565b1015610fb85760405162461bcd60e51b815260206004820152601e60248201527f696e73756666696369656e7420616d6f756e742066726f6d206f776e657200006044820152606401610612565b60078281548110610fcb57610fcb612303565b600091825260209091206005909102015460ff1615156001146110305760405162461bcd60e51b815260206004820152601260248201527f6c697374696e67206e6f742061637469766500000000000000000000000000006044820152606401610612565b34600660006007858154811061104857611048612303565b60009182526020808320600460059093020191909101546001600160a01b03168352820192909252604001812080549091906110859084906121fa565b925050819055506110e1600783815481106110a2576110a2612303565b906000526020600020906005020160040160009054906101000a90046001600160a01b0316336004548460405180602001604052806000815250611194565b6000600783815481106110f6576110f6612303565b60009182526020909120600590910201805460ff1916911515919091179055611120600b33611609565b507f63d750b618ac6262a7e40139b41db26e8a37389241ff8feaba3154fbf3b53571336007848154811061115657611156612303565b600091825260209182902060059091020160040154604080516001600160a01b03948516815293909116918301919091528101839052606001610a8d565b6001600160a01b0385163314806111b057506111b0853361041a565b6112225760405162461bcd60e51b815260206004820152602960248201527f455243313135353a2063616c6c6572206973206e6f74206f776e6572206e6f7260448201527f20617070726f76656400000000000000000000000000000000000000000000006064820152608401610612565b61080e8585858585611713565b600061063e825490565b600061124583836118b1565b9392505050565b60006112458284612212565b60006112458284612234565b81518351146112db5760405162461bcd60e51b815260206004820152602860248201527f455243313135353a2069647320616e6420616d6f756e7473206c656e6774682060448201527f6d69736d617463680000000000000000000000000000000000000000000000006064820152608401610612565b6001600160a01b03841661133f5760405162461bcd60e51b815260206004820152602560248201527f455243313135353a207472616e7366657220746f20746865207a65726f206164604482015264647265737360d81b6064820152608401610612565b3360005b845181101561146957600085828151811061136057611360612303565b60200260200101519050600085838151811061137e5761137e612303565b602090810291909101810151600084815280835260408082206001600160a01b038e1683529093529190912054909150818110156114115760405162461bcd60e51b815260206004820152602a60248201527f455243313135353a20696e73756666696369656e742062616c616e636520666f60448201526939103a3930b739b332b960b11b6064820152608401610612565b6000838152602081815260408083206001600160a01b038e8116855292528083208585039055908b1682528120805484929061144e9084906121fa565b9250508190555050505080611462906122d2565b9050611343565b50846001600160a01b0316866001600160a01b0316826001600160a01b03167f4a39dc06d4c0dbc64b70af90fd698a233a518aa5d07e595d983b8c0526c8f7fb87876040516114b9929190612195565b60405180910390a46114cf8187878787876118db565b505050505050565b600061124582846121fa565b6001600160a01b03841661155f5760405162461bcd60e51b815260206004820152602160248201527f455243313135353a206d696e7420746f20746865207a65726f2061646472657360448201527f73000000000000000000000000000000000000000000000000000000000000006064820152608401610612565b336115798160008761157088611a90565b61080e88611a90565b6000848152602081815260408083206001600160a01b0389168452909152812080548592906115a99084906121fa565b909155505060408051858152602081018590526001600160a01b0380881692600092918516917fc3d58168c5ae7397731d063d5bbf3d657854427343f4c083240f7aacaa2d0f62910160405180910390a461080e81600087878787611adb565b6000611245836001600160a01b038416611be6565b816001600160a01b0316836001600160a01b031614156116a65760405162461bcd60e51b815260206004820152602960248201527f455243313135353a2073657474696e6720617070726f76616c2073746174757360448201527f20666f722073656c6600000000000000000000000000000000000000000000006064820152608401610612565b6001600160a01b03838116600081815260016020908152604080832094871680845294825291829020805460ff191686151590811790915591519182527f17307eab39ab6107e8899845ad3d59bd9653f200f220920489ca2b5937696c31910160405180910390a3505050565b6001600160a01b0384166117775760405162461bcd60e51b815260206004820152602560248201527f455243313135353a207472616e7366657220746f20746865207a65726f206164604482015264647265737360d81b6064820152608401610612565b3361178781878761157088611a90565b6000848152602081815260408083206001600160a01b038a1684529091529020548381101561180b5760405162461bcd60e51b815260206004820152602a60248201527f455243313135353a20696e73756666696369656e742062616c616e636520666f60448201526939103a3930b739b332b960b11b6064820152608401610612565b6000858152602081815260408083206001600160a01b038b81168552925280832087850390559088168252812080548692906118489084906121fa565b909155505060408051868152602081018690526001600160a01b03808916928a821692918616917fc3d58168c5ae7397731d063d5bbf3d657854427343f4c083240f7aacaa2d0f62910160405180910390a46118a8828888888888611adb565b50505050505050565b60008260000182815481106118c8576118c8612303565b9060005260206000200154905092915050565b6001600160a01b0384163b156114cf5760405163bc197c8160e01b81526001600160a01b0385169063bc197c819061191f90899089908890889088906004016120e1565b602060405180830381600087803b15801561193957600080fd5b505af1925050508015611969575060408051601f3d908101601f1916820190925261196691810190611fdc565b60015b611a1f5761197561232f565b806308c379a014156119af575061198a61234b565b8061199557506119b1565b8060405162461bcd60e51b815260040161061291906121c3565b505b60405162461bcd60e51b815260206004820152603460248201527f455243313135353a207472616e7366657220746f206e6f6e204552433131353560448201527f526563656976657220696d706c656d656e7465720000000000000000000000006064820152608401610612565b6001600160e01b0319811663bc197c8160e01b146118a85760405162461bcd60e51b815260206004820152602860248201527f455243313135353a204552433131353552656365697665722072656a656374656044820152676420746f6b656e7360c01b6064820152608401610612565b60408051600180825281830190925260609160009190602080830190803683370190505090508281600081518110611aca57611aca612303565b602090810291909101015292915050565b6001600160a01b0384163b156114cf5760405163f23a6e6160e01b81526001600160a01b0385169063f23a6e6190611b1f908990899088908890889060040161213f565b602060405180830381600087803b158015611b3957600080fd5b505af1925050508015611b69575060408051601f3d908101601f19168201909252611b6691810190611fdc565b60015b611b755761197561232f565b6001600160e01b0319811663f23a6e6160e01b146118a85760405162461bcd60e51b815260206004820152602860248201527f455243313135353a204552433131353552656365697665722072656a656374656044820152676420746f6b656e7360c01b6064820152608401610612565b6000818152600183016020526040812054611c2d5750815460018181018455600084815260208082209093018490558454848252828601909352604090209190915561063e565b50600061063e565b600082601f830112611c4657600080fd5b81356020611c53826121d6565b604051611c6082826122a5565b8381528281019150858301600585901b87018401881015611c8057600080fd5b60005b85811015611c9f57813584529284019290840190600101611c83565b5090979650505050505050565b600082601f830112611cbd57600080fd5b813567ffffffffffffffff811115611cd757611cd7612319565b604051611cee601f8301601f1916602001826122a5565b818152846020838601011115611d0357600080fd5b816020850160208301376000918101602001919091529392505050565b600060208284031215611d3257600080fd5b8135611245816123d5565b60008060408385031215611d5057600080fd5b8235611d5b816123d5565b91506020830135611d6b816123d5565b809150509250929050565b600080600080600060a08688031215611d8e57600080fd5b8535611d99816123d5565b94506020860135611da9816123d5565b9350604086013567ffffffffffffffff80821115611dc657600080fd5b611dd289838a01611c35565b94506060880135915080821115611de857600080fd5b611df489838a01611c35565b93506080880135915080821115611e0a57600080fd5b50611e1788828901611cac565b9150509295509295909350565b600080600080600060a08688031215611e3c57600080fd5b8535611e47816123d5565b94506020860135611e57816123d5565b93506040860135925060608601359150608086013567ffffffffffffffff811115611e8157600080fd5b611e1788828901611cac565b60008060408385031215611ea057600080fd5b8235611eab816123d5565b915060208301358015158114611d6b57600080fd5b60008060408385031215611ed357600080fd5b8235611ede816123d5565b946020939093013593505050565b60008060408385031215611eff57600080fd5b823567ffffffffffffffff80821115611f1757600080fd5b818501915085601f830112611f2b57600080fd5b81356020611f38826121d6565b604051611f4582826122a5565b8381528281019150858301600585901b870184018b1015611f6557600080fd5b600096505b84871015611f91578035611f7d816123d5565b835260019690960195918301918301611f6a565b5096505086013592505080821115611fa857600080fd5b50611fb585828601611c35565b9150509250929050565b600060208284031215611fd157600080fd5b8135611245816123ed565b600060208284031215611fee57600080fd5b8151611245816123ed565b60006020828403121561200b57600080fd5b5035919050565b6000806040838503121561202557600080fd5b823591506020830135611d6b816123d5565b6000806040838503121561204a57600080fd5b50508035926020909101359150565b600081518084526020808501945080840160005b838110156120895781518752958201959082019060010161206d565b509495945050505050565b6000815180845260005b818110156120ba5760208185018101518683018201520161209e565b818111156120cc576000602083870101525b50601f01601f19169290920160200192915050565b60006001600160a01b03808816835280871660208401525060a0604083015261210d60a0830186612059565b828103606084015261211f8186612059565b905082810360808401526121338185612094565b98975050505050505050565b60006001600160a01b03808816835280871660208401525084604083015283606083015260a0608083015261217760a0830184612094565b979650505050505050565b6020815260006112456020830184612059565b6040815260006121a86040830185612059565b82810360208401526121ba8185612059565b95945050505050565b6020815260006112456020830184612094565b600067ffffffffffffffff8211156121f0576121f0612319565b5060051b60200190565b6000821982111561220d5761220d6122ed565b500190565b60008261222f57634e487b7160e01b600052601260045260246000fd5b500490565b600081600019048311821515161561224e5761224e6122ed565b500290565b600082821015612265576122656122ed565b500390565b600181811c9082168061227e57607f821691505b6020821081141561229f57634e487b7160e01b600052602260045260246000fd5b50919050565b601f8201601f1916810167ffffffffffffffff811182821017156122cb576122cb612319565b6040525050565b60006000198214156122e6576122e66122ed565b5060010190565b634e487b7160e01b600052601160045260246000fd5b634e487b7160e01b600052603260045260246000fd5b634e487b7160e01b600052604160045260246000fd5b600060033d11156123485760046000803e5060005160e01c5b90565b600060443d10156123595790565b6040516003193d81016004833e81513d67ffffffffffffffff816024840111818411171561238957505050505090565b82850191508151818111156123a15750505050505090565b843d87010160208285010111156123bb5750505050505090565b6123ca602082860101876122a5565b509095945050505050565b6001600160a01b03811681146123ea57600080fd5b50565b6001600160e01b0319811681146123ea57600080fdfea264697066735822122046a305b2838f3d7b034c61d6d9278ef49730ae3b0ba974405128e634951fce5064736f6c63430008070033",
  "linkReferences": {},
  "deployedLinkReferences": {}
}