{
  "_format": "hh-sol-artifact-1",
  "contractName": "Property",
  "sourceName": "contracts/Property.sol",
  "abi": [
    {
      "inputs": [
        {
          "internalType": "string",
          "name": "_baseUrl",
          "type": "string"
        },
        {
          "internalType": "uint256",
          "name": "_pricePerShare",
          "type": "uint256"
        },
        {
          "internalType": "uint256",
          "name": "_totalShares",
          "type": "uint256"
        }
      ],
      "stateMutability": "nonpayable",
      "type": "constructor"
    },
    {
      "anonymous": false,
      "inputs": [
        {
          "indexed": true,
          "internalType": "address",
          "name": "account",
          "type": "address"
        },
        {
          "indexed": true,
          "internalType": "address",
          "name": "operator",
          "type": "address"
        },
        {
          "indexed": false,
          "internalType": "bool",
          "name": "approved",
          "type": "bool"
        }
      ],
      "name": "ApprovalForAll",
      "type": "event"
    },
    {
      "anonymous": false,
      "inputs": [
        {
          "indexed": false,
          "internalType": "address",
          "name": "seller",
          "type": "address"
        },
        {
          "indexed": false,
          "internalType": "uint256",
          "name": "price",
          "type": "uint256"
        },
        {
          "indexed": false,
          "internalType": "uint256",
          "name": "amount",
          "type": "uint256"
        }
      ],
      "name": "ListShares",
      "type": "event"
    },
    {
      "anonymous": false,
      "inputs": [
        {
          "indexed": false,
          "internalType": "address",
          "name": "minter",
          "type": "address"
        },
        {
          "indexed": false,
          "internalType": "uint256",
          "name": "amount",
          "type": "uint256"
        }
      ],
      "name": "MintShares",
      "type": "event"
    },
    {
      "anonymous": false,
      "inputs": [
        {
          "indexed": false,
          "internalType": "address",
          "name": "buyer",
          "type": "address"
        },
        {
          "indexed": false,
          "internalType": "address",
          "name": "seller",
          "type": "address"
        },
        {
          "indexed": false,
          "internalType": "uint256",
          "name": "amount",
          "type": "uint256"
        }
      ],
      "name": "PurchaseShares",
      "type": "event"
    },
    {
      "anonymous": false,
      "inputs": [
        {
          "indexed": false,
          "internalType": "address",
          "name": "fromAddress",
          "type": "address"
        },
        {
          "indexed": false,
          "internalType": "uint256",
          "name": "value",
          "type": "uint256"
        }
      ],
      "name": "ReceiveFunds",
      "type": "event"
    },
    {
      "anonymous": false,
      "inputs": [
        {
          "indexed": false,
          "internalType": "address",
          "name": "toAddress",
          "type": "address"
        },
        {
          "indexed": false,
          "internalType": "uint256",
          "name": "tokenBalance",
          "type": "uint256"
        },
        {
          "indexed": false,
          "internalType": "uint256",
          "name": "value",
          "type": "uint256"
        }
      ],
      "name": "ReceiveFundsPayout",
      "type": "event"
    },
    {
      "anonymous": false,
      "inputs": [
        {
          "indexed": true,
          "internalType": "address",
          "name": "operator",
          "type": "address"
        },
        {
          "indexed": true,
          "internalType": "address",
          "name": "from",
          "type": "address"
        },
        {
          "indexed": true,
          "internalType": "address",
          "name": "to",
          "type": "address"
        },
        {
          "indexed": false,
          "internalType": "uint256[]",
          "name": "ids",
          "type": "uint256[]"
        },
        {
          "indexed": false,
          "internalType": "uint256[]",
          "name": "values",
          "type": "uint256[]"
        }
      ],
      "name": "TransferBatch",
      "type": "event"
    },
    {
      "anonymous": false,
      "inputs": [
        {
          "indexed": true,
          "internalType": "address",
          "name": "operator",
          "type": "address"
        },
        {
          "indexed": true,
          "internalType": "address",
          "name": "from",
          "type": "address"
        },
        {
          "indexed": true,
          "internalType": "address",
          "name": "to",
          "type": "address"
        },
        {
          "indexed": false,
          "internalType": "uint256",
          "name": "id",
          "type": "uint256"
        },
        {
          "indexed": false,
          "internalType": "uint256",
          "name": "value",
          "type": "uint256"
        }
      ],
      "name": "TransferSingle",
      "type": "event"
    },
    {
      "anonymous": false,
      "inputs": [
        {
          "indexed": false,
          "internalType": "string",
          "name": "value",
          "type": "string"
        },
        {
          "indexed": true,
          "internalType": "uint256",
          "name": "id",
          "type": "uint256"
        }
      ],
      "name": "URI",
      "type": "event"
    },
    {
      "anonymous": false,
      "inputs": [
        {
          "indexed": false,
          "internalType": "address",
          "name": "withdrawalAddress",
          "type": "address"
        },
        {
          "indexed": false,
          "internalType": "uint256",
          "name": "value",
          "type": "uint256"
        }
      ],
      "name": "WithdrawFunds",
      "type": "event"
    },
    {
      "inputs": [
        {
          "internalType": "uint256",
          "name": "",
          "type": "uint256"
        }
      ],
      "name": "Listings",
      "outputs": [
        {
          "internalType": "uint256",
          "name": "price",
          "type": "uint256"
        },
        {
          "internalType": "uint256",
          "name": "amount",
          "type": "uint256"
        },
        {
          "internalType": "address",
          "name": "owner",
          "type": "address"
        }
      ],
      "stateMutability": "view",
      "type": "function"
    },
    {
      "inputs": [
        {
          "internalType": "address",
          "name": "account",
          "type": "address"
        },
        {
          "internalType": "uint256",
          "name": "id",
          "type": "uint256"
        }
      ],
      "name": "balanceOf",
      "outputs": [
        {
          "internalType": "uint256",
          "name": "",
          "type": "uint256"
        }
      ],
      "stateMutability": "view",
      "type": "function"
    },
    {
      "inputs": [
        {
          "internalType": "address[]",
          "name": "accounts",
          "type": "address[]"
        },
        {
          "internalType": "uint256[]",
          "name": "ids",
          "type": "uint256[]"
        }
      ],
      "name": "balanceOfBatch",
      "outputs": [
        {
          "internalType": "uint256[]",
          "name": "",
          "type": "uint256[]"
        }
      ],
      "stateMutability": "view",
      "type": "function"
    },
    {
      "inputs": [
        {
          "internalType": "address",
          "name": "account",
          "type": "address"
        },
        {
          "internalType": "address",
          "name": "operator",
          "type": "address"
        }
      ],
      "name": "isApprovedForAll",
      "outputs": [
        {
          "internalType": "bool",
          "name": "",
          "type": "bool"
        }
      ],
      "stateMutability": "view",
      "type": "function"
    },
    {
      "inputs": [
        {
          "internalType": "uint256",
          "name": "price",
          "type": "uint256"
        },
        {
          "internalType": "uint256",
          "name": "amount",
          "type": "uint256"
        }
      ],
      "name": "listShares",
      "outputs": [],
      "stateMutability": "nonpayable",
      "type": "function"
    },
    {
      "inputs": [],
      "name": "listingCounter",
      "outputs": [
        {
          "internalType": "uint256",
          "name": "_value",
          "type": "uint256"
        }
      ],
      "stateMutability": "view",
      "type": "function"
    },
    {
      "inputs": [
        {
          "internalType": "uint256",
          "name": "",
          "type": "uint256"
        }
      ],
      "name": "listings",
      "outputs": [
        {
          "internalType": "uint256",
          "name": "price",
          "type": "uint256"
        },
        {
          "internalType": "uint256",
          "name": "amount",
          "type": "uint256"
        },
        {
          "internalType": "address",
          "name": "owner",
          "type": "address"
        }
      ],
      "stateMutability": "view",
      "type": "function"
    },
    {
      "inputs": [
        {
          "internalType": "uint256",
          "name": "amountOfTokens",
          "type": "uint256"
        }
      ],
      "name": "mint",
      "outputs": [],
      "stateMutability": "payable",
      "type": "function"
    },
    {
      "inputs": [
        {
          "internalType": "address",
          "name": "",
          "type": "address"
        }
      ],
      "name": "paymentBalances",
      "outputs": [
        {
          "internalType": "uint256",
          "name": "",
          "type": "uint256"
        }
      ],
      "stateMutability": "view",
      "type": "function"
    },
    {
      "inputs": [],
      "name": "pricePerShare",
      "outputs": [
        {
          "internalType": "uint256",
          "name": "",
          "type": "uint256"
        }
      ],
      "stateMutability": "view",
      "type": "function"
    },
    {
      "inputs": [
        {
          "internalType": "uint256",
          "name": "listingId",
          "type": "uint256"
        },
        {
          "internalType": "uint256",
          "name": "amountToPurchase",
          "type": "uint256"
        }
      ],
      "name": "purchaseShares",
      "outputs": [],
      "stateMutability": "payable",
      "type": "function"
    },
    {
      "inputs": [],
      "name": "receiveFunds",
      "outputs": [],
      "stateMutability": "payable",
      "type": "function"
    },
    {
      "inputs": [
        {
          "internalType": "address",
          "name": "from",
          "type": "address"
        },
        {
          "internalType": "address",
          "name": "to",
          "type": "address"
        },
        {
          "internalType": "uint256[]",
          "name": "ids",
          "type": "uint256[]"
        },
        {
          "internalType": "uint256[]",
          "name": "amounts",
          "type": "uint256[]"
        },
        {
          "internalType": "bytes",
          "name": "data",
          "type": "bytes"
        }
      ],
      "name": "safeBatchTransferFrom",
      "outputs": [],
      "stateMutability": "nonpayable",
      "type": "function"
    },
    {
      "inputs": [
        {
          "internalType": "address",
          "name": "from",
          "type": "address"
        },
        {
          "internalType": "address",
          "name": "to",
          "type": "address"
        },
        {
          "internalType": "uint256",
          "name": "id",
          "type": "uint256"
        },
        {
          "internalType": "uint256",
          "name": "amount",
          "type": "uint256"
        },
        {
          "internalType": "bytes",
          "name": "data",
          "type": "bytes"
        }
      ],
      "name": "safeTransferFrom",
      "outputs": [],
      "stateMutability": "nonpayable",
      "type": "function"
    },
    {
      "inputs": [
        {
          "internalType": "address",
          "name": "operator",
          "type": "address"
        },
        {
          "internalType": "bool",
          "name": "approved",
          "type": "bool"
        }
      ],
      "name": "setApprovalForAll",
      "outputs": [],
      "stateMutability": "nonpayable",
      "type": "function"
    },
    {
      "inputs": [
        {
          "internalType": "bytes4",
          "name": "interfaceId",
          "type": "bytes4"
        }
      ],
      "name": "supportsInterface",
      "outputs": [
        {
          "internalType": "bool",
          "name": "",
          "type": "bool"
        }
      ],
      "stateMutability": "view",
      "type": "function"
    },
    {
      "inputs": [],
      "name": "totalIssuedShares",
      "outputs": [
        {
          "internalType": "uint256",
          "name": "",
          "type": "uint256"
        }
      ],
      "stateMutability": "view",
      "type": "function"
    },
    {
      "inputs": [],
      "name": "totalShares",
      "outputs": [
        {
          "internalType": "uint256",
          "name": "",
          "type": "uint256"
        }
      ],
      "stateMutability": "view",
      "type": "function"
    },
    {
      "inputs": [
        {
          "internalType": "uint256",
          "name": "",
          "type": "uint256"
        }
      ],
      "name": "uri",
      "outputs": [
        {
          "internalType": "string",
          "name": "",
          "type": "string"
        }
      ],
      "stateMutability": "view",
      "type": "function"
    },
    {
      "inputs": [
        {
          "internalType": "uint256",
          "name": "amount",
          "type": "uint256"
        },
        {
          "internalType": "address payable",
          "name": "recipientAddress",
          "type": "address"
        }
      ],
      "name": "withdrawFunds",
      "outputs": [],
      "stateMutability": "nonpayable",
      "type": "function"
    }
  ],
  "bytecode": "0x608060405260006004553480156200001657600080fd5b50604051620026ab380380620026ab833981016040819052620000399162000115565b82620000458162000056565b506008919091556009555062000258565b80516200006b9060029060208401906200006f565b5050565b8280546200007d9062000205565b90600052602060002090601f016020900481019282620000a15760008555620000ec565b82601f10620000bc57805160ff1916838001178555620000ec565b82800160010185558215620000ec579182015b82811115620000ec578251825591602001919060010190620000cf565b50620000fa929150620000fe565b5090565b5b80821115620000fa5760008155600101620000ff565b6000806000606084860312156200012b57600080fd5b83516001600160401b03808211156200014357600080fd5b818601915086601f8301126200015857600080fd5b8151818111156200016d576200016d62000242565b604051601f8201601f19908116603f0116810190838211818310171562000198576200019862000242565b81604052828152602093508984848701011115620001b557600080fd5b600091505b82821015620001d95784820184015181830185015290830190620001ba565b82821115620001eb5760008484830101525b928801516040909801519299979850919695505050505050565b600181811c908216806200021a57607f821691505b602082108114156200023c57634e487b7160e01b600052602260045260246000fd5b50919050565b634e487b7160e01b600052604160045260246000fd5b61244380620002686000396000f3fe60806040526004361061015d5760003560e01c80636c2c9c7d116100c0578063a238423611610074578063de74e57b11610059578063de74e57b14610399578063e985e9c5146103de578063f242432a1461042757600080fd5b8063a238423614610366578063d2bcdc601461038657600080fd5b806399530b06116100a557806399530b061461031d578063a0712d6814610333578063a22cb4651461034657600080fd5b80636c2c9c7d146102e6578063744bfe61146102fd57600080fd5b806323b7c6461161011757806333caeb94116100fc57806333caeb941461025f5780633a98ef39146102a35780634e1273f4146102b957600080fd5b806323b7c646146102295780632eb2c2d61461023f57600080fd5b806301ffc9a71161014857806301ffc9a71461019f57806303fc8d2b146101cf5780630e89341c146101fc57600080fd5b80625c33e114610162578062fdd58e1461016c575b600080fd5b61016a610447565b005b34801561017857600080fd5b5061018c610187366004611e58565b610577565b6040519081526020015b60405180910390f35b3480156101ab57600080fd5b506101bf6101ba366004611f57565b610623565b6040519015158152602001610196565b3480156101db57600080fd5b5061018c6101ea366004611cb8565b60066020526000908152604090205481565b34801561020857600080fd5b5061021c610217366004611f91565b610706565b604051610196919061215b565b34801561023557600080fd5b5061018c600a5481565b34801561024b57600080fd5b5061016a61025a366004611d0e565b61079a565b34801561026b57600080fd5b5061027f61027a366004611f91565b61083c565b6040805193845260208401929092526001600160a01b031690820152606001610196565b3480156102af57600080fd5b5061018c60095481565b3480156102c557600080fd5b506102d96102d4366004611e84565b610878565b604051610196919061211a565b3480156102f257600080fd5b5060035461018c9081565b34801561030957600080fd5b5061016a610318366004611faa565b6109b6565b34801561032957600080fd5b5061018c60085481565b61016a610341366004611f91565b610aad565b34801561035257600080fd5b5061016a610361366004611e25565b610bdd565b34801561037257600080fd5b5061016a610381366004611fcf565b610bec565b61016a610394366004611fcf565b610d9a565b3480156103a557600080fd5b5061027f6103b4366004611f91565b6005602052600090815260409020805460018201546002909201549091906001600160a01b031683565b3480156103ea57600080fd5b506101bf6103f9366004611cd5565b6001600160a01b03918216600090815260016020908152604080832093909416825291909152205460ff1690565b34801561043357600080fd5b5061016a610442366004611dbc565b610ffa565b60005b610454600b611095565b81101561053c576000610468600b8361109f565b9050600061047882600454610577565b905080156105275760006104a13461049b600a54856110b290919063ffffffff16565b906110be565b6040519091506001600160a01b0384169082156108fc029083906000818181858888f193505050501580156104da573d6000803e3d6000fd5b50604080516001600160a01b0385168152602081018490529081018290527f1bce738afce154c79bcc3113f446651c11d8d4d89a3957b0c843afff0ef93ea09060600160405180910390a1505b5050808061053490612288565b91505061044a565b50604080513381523460208201527ff7116f8ce12018cbf35ab846afe2ed8ca23445fc5f7f22d402077a0a151a507e910160405180910390a1565b60006001600160a01b0383166105fa5760405162461bcd60e51b815260206004820152602b60248201527f455243313135353a2062616c616e636520717565727920666f7220746865207a60448201527f65726f206164647265737300000000000000000000000000000000000000000060648201526084015b60405180910390fd5b506000818152602081815260408083206001600160a01b03861684529091529020545b92915050565b60007fffffffff0000000000000000000000000000000000000000000000000000000082167fd9b67a260000000000000000000000000000000000000000000000000000000014806106b657507fffffffff0000000000000000000000000000000000000000000000000000000082167f0e89341c00000000000000000000000000000000000000000000000000000000145b8061061d57507f01ffc9a7000000000000000000000000000000000000000000000000000000007fffffffff0000000000000000000000000000000000000000000000000000000083161461061d565b60606002805461071590612220565b80601f016020809104026020016040519081016040528092919081815260200182805461074190612220565b801561078e5780601f106107635761010080835404028352916020019161078e565b820191906000526020600020905b81548152906001019060200180831161077157829003601f168201915b50505050509050919050565b6001600160a01b0385163314806107b657506107b685336103f9565b6108285760405162461bcd60e51b815260206004820152603260248201527f455243313135353a207472616e736665722063616c6c6572206973206e6f742060448201527f6f776e6572206e6f7220617070726f766564000000000000000000000000000060648201526084016105f1565b61083585858585856110ca565b5050505050565b6007818154811061084c57600080fd5b60009182526020909120600390910201805460018201546002909201549092506001600160a01b031683565b606081518351146108f15760405162461bcd60e51b815260206004820152602960248201527f455243313135353a206163636f756e747320616e6420696473206c656e67746860448201527f206d69736d61746368000000000000000000000000000000000000000000000060648201526084016105f1565b6000835167ffffffffffffffff81111561090d5761090d6122ed565b604051908082528060200260200182016040528015610936578160200160208202803683370190505b50905060005b84518110156109ae5761098185828151811061095a5761095a6122d7565b6020026020010151858381518110610974576109746122d7565b6020026020010151610577565b828281518110610993576109936122d7565b60209081029190910101526109a781612288565b905061093c565b509392505050565b33600090815260066020526040902054821115610a155760405162461bcd60e51b815260206004820152601260248201527f696e73756666696369656e742066756e6473000000000000000000000000000060448201526064016105f1565b6040516001600160a01b0382169083156108fc029084906000818181858888f19350505050158015610a4b573d6000803e3d6000fd5b503360009081526006602052604081208054849290610a6b908490612209565b909155505060408051338152602081018490527f21901fa892c430ea8bd38b9390225ac8e67eac75ee10ffba16feefc539a288f9910160405180910390a15050565b600854610abb9082906110be565b341015610b0a5760405162461bcd60e51b815260206004820152601660248201527f496e76616c6964207061796d656e7420616d6f756e740000000000000000000060448201526064016105f1565b600954600a54610b1a9083611368565b1115610b685760405162461bcd60e51b815260206004820152601860248201527f496e76616c696420616d6f756e74206f6620737570706c79000000000000000060448201526064016105f1565b610b85336004548360405180602001604052806000815250611374565b600a54610b929082611368565b600a55610ba0600b3361149a565b5060408051338152602081018390527fe0db2c42b942601357f9499d6f0520c824b2ce7513135a456b661d1d3e45de5e910160405180910390a150565b610be83383836114af565b5050565b80610bf933600454610577565b1015610c475760405162461bcd60e51b815260206004820152601b60248201527f63616c6c6572206d757374206f776e20676976656e20746f6b656e000000000060448201526064016105f1565b33600090815260016020908152604080832030845290915290205460ff16610cb15760405162461bcd60e51b815260206004820152601960248201527f636f6e7472616374206d75737420626520617070726f7665640000000000000060448201526064016105f1565b604080516060810182529283526020830191825233908301908152600780546001808201835560009290925293517fa66cc928b5edb82af9bd49922954155ab7b0942694bea4ce44661d9a8736c68860039586029081019190915592517fa66cc928b5edb82af9bd49922954155ab7b0942694bea4ce44661d9a8736c68984015590517fa66cc928b5edb82af9bd49922954155ab7b0942694bea4ce44661d9a8736c68a90920180547fffffffffffffffffffffffff0000000000000000000000000000000000000000166001600160a01b03909316929092179091558154019055565b505050565b610dc88160078481548110610db157610db16122d7565b6000918252602090912060039091020154906110be565b341015610e175760405162461bcd60e51b815260206004820152601760248201527f696e73756666696369656e742066756e64732073656e7400000000000000000060448201526064016105f1565b60078281548110610e2a57610e2a6122d7565b906000526020600020906003020160010154811115610eb15760405162461bcd60e51b815260206004820152602260248201527f696e76616c696420616d6f756e74206f6620736861726573207265717565737460448201527f656400000000000000000000000000000000000000000000000000000000000060648201526084016105f1565b80610ef060078481548110610ec857610ec86122d7565b60009182526020909120600260039092020101546004546001600160a01b0390911690610577565b1015610f3e5760405162461bcd60e51b815260206004820152601e60248201527f696e73756666696369656e7420616d6f756e742066726f6d206f776e6572000060448201526064016105f1565b346006600060078581548110610f5657610f566122d7565b60009182526020808320600260039093020191909101546001600160a01b0316835282019290925260400181208054909190610f93908490612192565b92505081905550610fef60078381548110610fb057610fb06122d7565b906000526020600020906003020160020160009054906101000a90046001600160a01b0316336004548460405180602001604052806000815250610ffa565b610d95600b3361149a565b6001600160a01b038516331480611016575061101685336103f9565b6110885760405162461bcd60e51b815260206004820152602960248201527f455243313135353a2063616c6c6572206973206e6f74206f776e6572206e6f7260448201527f20617070726f766564000000000000000000000000000000000000000000000060648201526084016105f1565b61083585858585856115c2565b600061061d825490565b60006110ab838361178b565b9392505050565b60006110ab82846121aa565b60006110ab82846121cc565b81518351146111415760405162461bcd60e51b815260206004820152602860248201527f455243313135353a2069647320616e6420616d6f756e7473206c656e6774682060448201527f6d69736d6174636800000000000000000000000000000000000000000000000060648201526084016105f1565b6001600160a01b0384166111bd5760405162461bcd60e51b815260206004820152602560248201527f455243313135353a207472616e7366657220746f20746865207a65726f20616460448201527f647265737300000000000000000000000000000000000000000000000000000060648201526084016105f1565b3360005b84518110156112fa5760008582815181106111de576111de6122d7565b6020026020010151905060008583815181106111fc576111fc6122d7565b602090810291909101810151600084815280835260408082206001600160a01b038e1683529093529190912054909150818110156112a25760405162461bcd60e51b815260206004820152602a60248201527f455243313135353a20696e73756666696369656e742062616c616e636520666f60448201527f72207472616e736665720000000000000000000000000000000000000000000060648201526084016105f1565b6000838152602081815260408083206001600160a01b038e8116855292528083208585039055908b168252812080548492906112df908490612192565b92505081905550505050806112f390612288565b90506111c1565b50846001600160a01b0316866001600160a01b0316826001600160a01b03167f4a39dc06d4c0dbc64b70af90fd698a233a518aa5d07e595d983b8c0526c8f7fb878760405161134a92919061212d565b60405180910390a46113608187878787876117b5565b505050505050565b60006110ab8284612192565b6001600160a01b0384166113f05760405162461bcd60e51b815260206004820152602160248201527f455243313135353a206d696e7420746f20746865207a65726f2061646472657360448201527f730000000000000000000000000000000000000000000000000000000000000060648201526084016105f1565b3361140a81600087611401886119c9565b610835886119c9565b6000848152602081815260408083206001600160a01b03891684529091528120805485929061143a908490612192565b909155505060408051858152602081018590526001600160a01b0380881692600092918516917fc3d58168c5ae7397731d063d5bbf3d657854427343f4c083240f7aacaa2d0f62910160405180910390a461083581600087878787611a14565b60006110ab836001600160a01b038416611b7e565b816001600160a01b0316836001600160a01b031614156115375760405162461bcd60e51b815260206004820152602960248201527f455243313135353a2073657474696e6720617070726f76616c2073746174757360448201527f20666f722073656c66000000000000000000000000000000000000000000000060648201526084016105f1565b6001600160a01b0383811660008181526001602090815260408083209487168084529482529182902080547fffffffffffffffffffffffffffffffffffffffffffffffffffffffffffffff001686151590811790915591519182527f17307eab39ab6107e8899845ad3d59bd9653f200f220920489ca2b5937696c31910160405180910390a3505050565b6001600160a01b03841661163e5760405162461bcd60e51b815260206004820152602560248201527f455243313135353a207472616e7366657220746f20746865207a65726f20616460448201527f647265737300000000000000000000000000000000000000000000000000000060648201526084016105f1565b3361164e818787611401886119c9565b6000848152602081815260408083206001600160a01b038a168452909152902054838110156116e55760405162461bcd60e51b815260206004820152602a60248201527f455243313135353a20696e73756666696369656e742062616c616e636520666f60448201527f72207472616e736665720000000000000000000000000000000000000000000060648201526084016105f1565b6000858152602081815260408083206001600160a01b038b8116855292528083208785039055908816825281208054869290611722908490612192565b909155505060408051868152602081018690526001600160a01b03808916928a821692918616917fc3d58168c5ae7397731d063d5bbf3d657854427343f4c083240f7aacaa2d0f62910160405180910390a4611782828888888888611a14565b50505050505050565b60008260000182815481106117a2576117a26122d7565b9060005260206000200154905092915050565b6001600160a01b0384163b15611360576040517fbc197c810000000000000000000000000000000000000000000000000000000081526001600160a01b0385169063bc197c81906118129089908990889088908890600401612079565b602060405180830381600087803b15801561182c57600080fd5b505af192505050801561185c575060408051601f3d908101601f1916820190925261185991810190611f74565b60015b61191257611868612303565b806308c379a014156118a2575061187d61231f565b8061188857506118a4565b8060405162461bcd60e51b81526004016105f1919061215b565b505b60405162461bcd60e51b815260206004820152603460248201527f455243313135353a207472616e7366657220746f206e6f6e204552433131353560448201527f526563656976657220696d706c656d656e74657200000000000000000000000060648201526084016105f1565b7fffffffff0000000000000000000000000000000000000000000000000000000081167fbc197c8100000000000000000000000000000000000000000000000000000000146117825760405162461bcd60e51b815260206004820152602860248201527f455243313135353a204552433131353552656365697665722072656a6563746560448201527f6420746f6b656e7300000000000000000000000000000000000000000000000060648201526084016105f1565b60408051600180825281830190925260609160009190602080830190803683370190505090508281600081518110611a0357611a036122d7565b602090810291909101015292915050565b6001600160a01b0384163b15611360576040517ff23a6e610000000000000000000000000000000000000000000000000000000081526001600160a01b0385169063f23a6e6190611a7190899089908890889088906004016120d7565b602060405180830381600087803b158015611a8b57600080fd5b505af1925050508015611abb575060408051601f3d908101601f19168201909252611ab891810190611f74565b60015b611ac757611868612303565b7fffffffff0000000000000000000000000000000000000000000000000000000081167ff23a6e6100000000000000000000000000000000000000000000000000000000146117825760405162461bcd60e51b815260206004820152602860248201527f455243313135353a204552433131353552656365697665722072656a6563746560448201527f6420746f6b656e7300000000000000000000000000000000000000000000000060648201526084016105f1565b6000818152600183016020526040812054611bc55750815460018181018455600084815260208082209093018490558454848252828601909352604090209190915561061d565b50600061061d565b600082601f830112611bde57600080fd5b81356020611beb8261216e565b604051611bf8828261225b565b8381528281019150858301600585901b87018401881015611c1857600080fd5b60005b85811015611c3757813584529284019290840190600101611c1b565b5090979650505050505050565b600082601f830112611c5557600080fd5b813567ffffffffffffffff811115611c6f57611c6f6122ed565b604051611c866020601f19601f850116018261225b565b818152846020838601011115611c9b57600080fd5b816020850160208301376000918101602001919091529392505050565b600060208284031215611cca57600080fd5b81356110ab816123c7565b60008060408385031215611ce857600080fd5b8235611cf3816123c7565b91506020830135611d03816123c7565b809150509250929050565b600080600080600060a08688031215611d2657600080fd5b8535611d31816123c7565b94506020860135611d41816123c7565b9350604086013567ffffffffffffffff80821115611d5e57600080fd5b611d6a89838a01611bcd565b94506060880135915080821115611d8057600080fd5b611d8c89838a01611bcd565b93506080880135915080821115611da257600080fd5b50611daf88828901611c44565b9150509295509295909350565b600080600080600060a08688031215611dd457600080fd5b8535611ddf816123c7565b94506020860135611def816123c7565b93506040860135925060608601359150608086013567ffffffffffffffff811115611e1957600080fd5b611daf88828901611c44565b60008060408385031215611e3857600080fd5b8235611e43816123c7565b915060208301358015158114611d0357600080fd5b60008060408385031215611e6b57600080fd5b8235611e76816123c7565b946020939093013593505050565b60008060408385031215611e9757600080fd5b823567ffffffffffffffff80821115611eaf57600080fd5b818501915085601f830112611ec357600080fd5b81356020611ed08261216e565b604051611edd828261225b565b8381528281019150858301600585901b870184018b1015611efd57600080fd5b600096505b84871015611f29578035611f15816123c7565b835260019690960195918301918301611f02565b5096505086013592505080821115611f4057600080fd5b50611f4d85828601611bcd565b9150509250929050565b600060208284031215611f6957600080fd5b81356110ab816123df565b600060208284031215611f8657600080fd5b81516110ab816123df565b600060208284031215611fa357600080fd5b5035919050565b60008060408385031215611fbd57600080fd5b823591506020830135611d03816123c7565b60008060408385031215611fe257600080fd5b50508035926020909101359150565b600081518084526020808501945080840160005b8381101561202157815187529582019590820190600101612005565b509495945050505050565b6000815180845260005b8181101561205257602081850181015186830182015201612036565b81811115612064576000602083870101525b50601f01601f19169290920160200192915050565b60006001600160a01b03808816835280871660208401525060a060408301526120a560a0830186611ff1565b82810360608401526120b78186611ff1565b905082810360808401526120cb818561202c565b98975050505050505050565b60006001600160a01b03808816835280871660208401525084604083015283606083015260a0608083015261210f60a083018461202c565b979650505050505050565b6020815260006110ab6020830184611ff1565b6040815260006121406040830185611ff1565b82810360208401526121528185611ff1565b95945050505050565b6020815260006110ab602083018461202c565b600067ffffffffffffffff821115612188576121886122ed565b5060051b60200190565b600082198211156121a5576121a56122c1565b500190565b6000826121c757634e487b7160e01b600052601260045260246000fd5b500490565b6000817fffffffffffffffffffffffffffffffffffffffffffffffffffffffffffffffff0483118215151615612204576122046122c1565b500290565b60008282101561221b5761221b6122c1565b500390565b600181811c9082168061223457607f821691505b6020821081141561225557634e487b7160e01b600052602260045260246000fd5b50919050565b601f19601f830116810181811067ffffffffffffffff82111715612281576122816122ed565b6040525050565b60007fffffffffffffffffffffffffffffffffffffffffffffffffffffffffffffffff8214156122ba576122ba6122c1565b5060010190565b634e487b7160e01b600052601160045260246000fd5b634e487b7160e01b600052603260045260246000fd5b634e487b7160e01b600052604160045260246000fd5b600060033d111561231c5760046000803e5060005160e01c5b90565b600060443d101561232d5790565b6040517ffffffffffffffffffffffffffffffffffffffffffffffffffffffffffffffffc803d016004833e81513d67ffffffffffffffff816024840111818411171561237b57505050505090565b82850191508151818111156123935750505050505090565b843d87010160208285010111156123ad5750505050505090565b6123bc6020828601018761225b565b509095945050505050565b6001600160a01b03811681146123dc57600080fd5b50565b7fffffffff00000000000000000000000000000000000000000000000000000000811681146123dc57600080fdfea2646970667358221220f10566e3c5b93a9682d37c0c589ea676b230501d288707eaf18a2af4f2c9d5ac64736f6c63430008070033",
  "linkReferences": {},
  "deployedLinkReferences": {}
}