{
  "_format": "hh-sol-artifact-1",
  "contractName": "Property",
  "sourceName": "contracts/Property.sol",
  "abi": [
    {
      "inputs": [
        {
          "internalType": "string",
          "name": "_baseUrl",
          "type": "string"
        },
        {
          "internalType": "uint256",
          "name": "_pricePerShare",
          "type": "uint256"
        },
        {
          "internalType": "uint256",
          "name": "_totalShares",
          "type": "uint256"
        }
      ],
      "stateMutability": "nonpayable",
      "type": "constructor"
    },
    {
      "anonymous": false,
      "inputs": [
        {
          "indexed": true,
          "internalType": "address",
          "name": "account",
          "type": "address"
        },
        {
          "indexed": true,
          "internalType": "address",
          "name": "operator",
          "type": "address"
        },
        {
          "indexed": false,
          "internalType": "bool",
          "name": "approved",
          "type": "bool"
        }
      ],
      "name": "ApprovalForAll",
      "type": "event"
    },
    {
      "anonymous": false,
      "inputs": [
        {
          "indexed": false,
          "internalType": "address",
          "name": "seller",
          "type": "address"
        },
        {
          "indexed": false,
          "internalType": "uint256",
          "name": "amount",
          "type": "uint256"
        }
      ],
      "name": "ListShares",
      "type": "event"
    },
    {
      "anonymous": false,
      "inputs": [
        {
          "indexed": false,
          "internalType": "address",
          "name": "minter",
          "type": "address"
        },
        {
          "indexed": false,
          "internalType": "uint256",
          "name": "amount",
          "type": "uint256"
        }
      ],
      "name": "MintShares",
      "type": "event"
    },
    {
      "anonymous": false,
      "inputs": [
        {
          "indexed": false,
          "internalType": "address",
          "name": "buyer",
          "type": "address"
        },
        {
          "indexed": false,
          "internalType": "address",
          "name": "seller",
          "type": "address"
        },
        {
          "indexed": false,
          "internalType": "uint256",
          "name": "amount",
          "type": "uint256"
        }
      ],
      "name": "PurchaseShares",
      "type": "event"
    },
    {
      "anonymous": false,
      "inputs": [
        {
          "indexed": false,
          "internalType": "address",
          "name": "fromAddress",
          "type": "address"
        },
        {
          "indexed": false,
          "internalType": "uint256",
          "name": "value",
          "type": "uint256"
        }
      ],
      "name": "ReceiveFunds",
      "type": "event"
    },
    {
      "anonymous": false,
      "inputs": [
        {
          "indexed": false,
          "internalType": "address",
          "name": "toAddress",
          "type": "address"
        },
        {
          "indexed": false,
          "internalType": "uint256",
          "name": "value",
          "type": "uint256"
        }
      ],
      "name": "ReceiveFundsPayout",
      "type": "event"
    },
    {
      "anonymous": false,
      "inputs": [
        {
          "indexed": true,
          "internalType": "address",
          "name": "operator",
          "type": "address"
        },
        {
          "indexed": true,
          "internalType": "address",
          "name": "from",
          "type": "address"
        },
        {
          "indexed": true,
          "internalType": "address",
          "name": "to",
          "type": "address"
        },
        {
          "indexed": false,
          "internalType": "uint256[]",
          "name": "ids",
          "type": "uint256[]"
        },
        {
          "indexed": false,
          "internalType": "uint256[]",
          "name": "values",
          "type": "uint256[]"
        }
      ],
      "name": "TransferBatch",
      "type": "event"
    },
    {
      "anonymous": false,
      "inputs": [
        {
          "indexed": true,
          "internalType": "address",
          "name": "operator",
          "type": "address"
        },
        {
          "indexed": true,
          "internalType": "address",
          "name": "from",
          "type": "address"
        },
        {
          "indexed": true,
          "internalType": "address",
          "name": "to",
          "type": "address"
        },
        {
          "indexed": false,
          "internalType": "uint256",
          "name": "id",
          "type": "uint256"
        },
        {
          "indexed": false,
          "internalType": "uint256",
          "name": "value",
          "type": "uint256"
        }
      ],
      "name": "TransferSingle",
      "type": "event"
    },
    {
      "anonymous": false,
      "inputs": [
        {
          "indexed": false,
          "internalType": "string",
          "name": "value",
          "type": "string"
        },
        {
          "indexed": true,
          "internalType": "uint256",
          "name": "id",
          "type": "uint256"
        }
      ],
      "name": "URI",
      "type": "event"
    },
    {
      "anonymous": false,
      "inputs": [
        {
          "indexed": false,
          "internalType": "address",
          "name": "withdrawalAddress",
          "type": "address"
        },
        {
          "indexed": false,
          "internalType": "uint256",
          "name": "value",
          "type": "uint256"
        }
      ],
      "name": "WithdrawFunds",
      "type": "event"
    },
    {
      "inputs": [
        {
          "internalType": "address",
          "name": "account",
          "type": "address"
        },
        {
          "internalType": "uint256",
          "name": "id",
          "type": "uint256"
        }
      ],
      "name": "balanceOf",
      "outputs": [
        {
          "internalType": "uint256",
          "name": "",
          "type": "uint256"
        }
      ],
      "stateMutability": "view",
      "type": "function"
    },
    {
      "inputs": [
        {
          "internalType": "address[]",
          "name": "accounts",
          "type": "address[]"
        },
        {
          "internalType": "uint256[]",
          "name": "ids",
          "type": "uint256[]"
        }
      ],
      "name": "balanceOfBatch",
      "outputs": [
        {
          "internalType": "uint256[]",
          "name": "",
          "type": "uint256[]"
        }
      ],
      "stateMutability": "view",
      "type": "function"
    },
    {
      "inputs": [
        {
          "internalType": "address",
          "name": "account",
          "type": "address"
        },
        {
          "internalType": "address",
          "name": "operator",
          "type": "address"
        }
      ],
      "name": "isApprovedForAll",
      "outputs": [
        {
          "internalType": "bool",
          "name": "",
          "type": "bool"
        }
      ],
      "stateMutability": "view",
      "type": "function"
    },
    {
      "inputs": [
        {
          "internalType": "uint256",
          "name": "price",
          "type": "uint256"
        },
        {
          "internalType": "uint256",
          "name": "amount",
          "type": "uint256"
        }
      ],
      "name": "listShares",
      "outputs": [],
      "stateMutability": "nonpayable",
      "type": "function"
    },
    {
      "inputs": [
        {
          "internalType": "address",
          "name": "",
          "type": "address"
        }
      ],
      "name": "listings",
      "outputs": [
        {
          "internalType": "uint256",
          "name": "price",
          "type": "uint256"
        },
        {
          "internalType": "uint256",
          "name": "amount",
          "type": "uint256"
        }
      ],
      "stateMutability": "view",
      "type": "function"
    },
    {
      "inputs": [
        {
          "internalType": "uint256",
          "name": "amountOfTokens",
          "type": "uint256"
        }
      ],
      "name": "mint",
      "outputs": [],
      "stateMutability": "payable",
      "type": "function"
    },
    {
      "inputs": [
        {
          "internalType": "address",
          "name": "",
          "type": "address"
        }
      ],
      "name": "paymentBalances",
      "outputs": [
        {
          "internalType": "uint256",
          "name": "",
          "type": "uint256"
        }
      ],
      "stateMutability": "view",
      "type": "function"
    },
    {
      "inputs": [],
      "name": "pricePerShare",
      "outputs": [
        {
          "internalType": "uint256",
          "name": "",
          "type": "uint256"
        }
      ],
      "stateMutability": "view",
      "type": "function"
    },
    {
      "inputs": [
        {
          "internalType": "address",
          "name": "listingId",
          "type": "address"
        },
        {
          "internalType": "uint256",
          "name": "amountToPurchase",
          "type": "uint256"
        }
      ],
      "name": "purchaseShares",
      "outputs": [],
      "stateMutability": "payable",
      "type": "function"
    },
    {
      "inputs": [],
      "name": "receiveFunds",
      "outputs": [],
      "stateMutability": "payable",
      "type": "function"
    },
    {
      "inputs": [
        {
          "internalType": "address",
          "name": "from",
          "type": "address"
        },
        {
          "internalType": "address",
          "name": "to",
          "type": "address"
        },
        {
          "internalType": "uint256[]",
          "name": "ids",
          "type": "uint256[]"
        },
        {
          "internalType": "uint256[]",
          "name": "amounts",
          "type": "uint256[]"
        },
        {
          "internalType": "bytes",
          "name": "data",
          "type": "bytes"
        }
      ],
      "name": "safeBatchTransferFrom",
      "outputs": [],
      "stateMutability": "nonpayable",
      "type": "function"
    },
    {
      "inputs": [
        {
          "internalType": "address",
          "name": "from",
          "type": "address"
        },
        {
          "internalType": "address",
          "name": "to",
          "type": "address"
        },
        {
          "internalType": "uint256",
          "name": "id",
          "type": "uint256"
        },
        {
          "internalType": "uint256",
          "name": "amount",
          "type": "uint256"
        },
        {
          "internalType": "bytes",
          "name": "data",
          "type": "bytes"
        }
      ],
      "name": "safeTransferFrom",
      "outputs": [],
      "stateMutability": "nonpayable",
      "type": "function"
    },
    {
      "inputs": [
        {
          "internalType": "address",
          "name": "operator",
          "type": "address"
        },
        {
          "internalType": "bool",
          "name": "approved",
          "type": "bool"
        }
      ],
      "name": "setApprovalForAll",
      "outputs": [],
      "stateMutability": "nonpayable",
      "type": "function"
    },
    {
      "inputs": [
        {
          "internalType": "bytes4",
          "name": "interfaceId",
          "type": "bytes4"
        }
      ],
      "name": "supportsInterface",
      "outputs": [
        {
          "internalType": "bool",
          "name": "",
          "type": "bool"
        }
      ],
      "stateMutability": "view",
      "type": "function"
    },
    {
      "inputs": [],
      "name": "totalIssuedShares",
      "outputs": [
        {
          "internalType": "uint256",
          "name": "",
          "type": "uint256"
        }
      ],
      "stateMutability": "view",
      "type": "function"
    },
    {
      "inputs": [],
      "name": "totalShares",
      "outputs": [
        {
          "internalType": "uint256",
          "name": "",
          "type": "uint256"
        }
      ],
      "stateMutability": "view",
      "type": "function"
    },
    {
      "inputs": [
        {
          "internalType": "uint256",
          "name": "",
          "type": "uint256"
        }
      ],
      "name": "uri",
      "outputs": [
        {
          "internalType": "string",
          "name": "",
          "type": "string"
        }
      ],
      "stateMutability": "view",
      "type": "function"
    },
    {
      "inputs": [
        {
          "internalType": "uint256",
          "name": "amount",
          "type": "uint256"
        },
        {
          "internalType": "address payable",
          "name": "recipientAddress",
          "type": "address"
        }
      ],
      "name": "withdrawFunds",
      "outputs": [],
      "stateMutability": "nonpayable",
      "type": "function"
    }
  ],
  "bytecode": "0x608060405260006003553480156200001657600080fd5b5060405162003d0d38038062003d0d83398181016040528101906200003c9190620001c7565b826200004e816200006660201b60201c565b508160068190555080600781905550505050620003ea565b80600290805190602001906200007e92919062000082565b5050565b8280546200009090620002e1565b90600052602060002090601f016020900481019282620000b4576000855562000100565b82601f10620000cf57805160ff191683800117855562000100565b8280016001018555821562000100579182015b82811115620000ff578251825591602001919060010190620000e2565b5b5090506200010f919062000113565b5090565b5b808211156200012e57600081600090555060010162000114565b5090565b60006200014962000143846200026b565b62000242565b905082815260208101848484011115620001685762000167620003b0565b5b62000175848285620002ab565b509392505050565b600082601f830112620001955762000194620003ab565b5b8151620001a784826020860162000132565b91505092915050565b600081519050620001c181620003d0565b92915050565b600080600060608486031215620001e357620001e2620003ba565b5b600084015167ffffffffffffffff811115620002045762000203620003b5565b5b62000212868287016200017d565b93505060206200022586828701620001b0565b92505060406200023886828701620001b0565b9150509250925092565b60006200024e62000261565b90506200025c828262000317565b919050565b6000604051905090565b600067ffffffffffffffff8211156200028957620002886200037c565b5b6200029482620003bf565b9050602081019050919050565b6000819050919050565b60005b83811015620002cb578082015181840152602081019050620002ae565b83811115620002db576000848401525b50505050565b60006002820490506001821680620002fa57607f821691505b602082108114156200031157620003106200034d565b5b50919050565b6200032282620003bf565b810181811067ffffffffffffffff821117156200034457620003436200037c565b5b80604052505050565b7f4e487b7100000000000000000000000000000000000000000000000000000000600052602260045260246000fd5b7f4e487b7100000000000000000000000000000000000000000000000000000000600052604160045260246000fd5b600080fd5b600080fd5b600080fd5b600080fd5b6000601f19601f8301169050919050565b620003db81620002a1565b8114620003e757600080fd5b50565b61391380620003fa6000396000f3fe6080604052600436106101075760003560e01c80634e1273f411610095578063a0712d6811610064578063a0712d6814610374578063a22cb46514610390578063a2384236146103b9578063e985e9c5146103e2578063f242432a1461041f57610107565b80634e1273f4146102a557806365d96c82146102e2578063744bfe611461032057806399530b061461034957610107565b80630e89341c116100dc5780630e89341c146101cd57806323b7c6461461020a5780632eb2c2d614610235578063342d6d321461025e5780633a98ef391461027a57610107565b80625c33e11461010c578062fdd58e1461011657806301ffc9a71461015357806303fc8d2b14610190575b600080fd5b610114610448565b005b34801561012257600080fd5b5061013d6004803603810190610138919061249d565b610519565b60405161014a9190612dd1565b60405180910390f35b34801561015f57600080fd5b5061017a60048036038101906101759190612555565b6105e2565b6040516101879190612b34565b60405180910390f35b34801561019c57600080fd5b506101b760048036038101906101b2919061228a565b6106c4565b6040516101c49190612dd1565b60405180910390f35b3480156101d957600080fd5b506101f460048036038101906101ef91906125af565b6106dc565b6040516102019190612b4f565b60405180910390f35b34801561021657600080fd5b5061021f610770565b60405161022c9190612dd1565b60405180910390f35b34801561024157600080fd5b5061025c600480360381019061025791906122f7565b610776565b005b6102786004803603810190610273919061249d565b610817565b005b34801561028657600080fd5b5061028f610bb1565b60405161029c9190612dd1565b60405180910390f35b3480156102b157600080fd5b506102cc60048036038101906102c791906124dd565b610bb7565b6040516102d99190612adb565b60405180910390f35b3480156102ee57600080fd5b506103096004803603810190610304919061228a565b610cd0565b604051610317929190612dec565b60405180910390f35b34801561032c57600080fd5b50610347600480360381019061034291906125dc565b610cf4565b005b34801561035557600080fd5b5061035e610e17565b60405161036b9190612dd1565b60405180910390f35b61038e600480360381019061038991906125af565b610e1d565b005b34801561039c57600080fd5b506103b760048036038101906103b2919061245d565b610f1d565b005b3480156103c557600080fd5b506103e060048036038101906103db919061261c565b61109e565b005b3480156103ee57600080fd5b50610409600480360381019061040491906122b7565b6111a4565b6040516104169190612b34565b60405180910390f35b34801561042b57600080fd5b50610446600480360381019061044191906123c6565b611238565b005b60005b61045560096112d9565b8110156105165760006104728260096112ee90919063ffffffff16565b9050600061048282600354610519565b905060008111156105015760006104b6346104a86008548561130890919063ffffffff16565b61131e90919063ffffffff16565b90508273ffffffffffffffffffffffffffffffffffffffff166108fc829081150290604051600060405180830381858888f193505050501580156104fe573d6000803e3d6000fd5b50505b5050808061050e90613174565b91505061044b565b50565b60008073ffffffffffffffffffffffffffffffffffffffff168373ffffffffffffffffffffffffffffffffffffffff16141561058a576040517f08c379a000000000000000000000000000000000000000000000000000000000815260040161058190612bd1565b60405180910390fd5b60008083815260200190815260200160002060008473ffffffffffffffffffffffffffffffffffffffff1673ffffffffffffffffffffffffffffffffffffffff16815260200190815260200160002054905092915050565b60007fd9b67a26000000000000000000000000000000000000000000000000000000007bffffffffffffffffffffffffffffffffffffffffffffffffffffffff1916827bffffffffffffffffffffffffffffffffffffffffffffffffffffffff191614806106ad57507f0e89341c000000000000000000000000000000000000000000000000000000007bffffffffffffffffffffffffffffffffffffffffffffffffffffffff1916827bffffffffffffffffffffffffffffffffffffffffffffffffffffffff1916145b806106bd57506106bc82611334565b5b9050919050565b60056020528060005260406000206000915090505481565b6060600280546106eb90613111565b80601f016020809104026020016040519081016040528092919081815260200182805461071790613111565b80156107645780601f1061073957610100808354040283529160200191610764565b820191906000526020600020905b81548152906001019060200180831161074757829003601f168201915b50505050509050919050565b60085481565b61077e61139e565b73ffffffffffffffffffffffffffffffffffffffff168573ffffffffffffffffffffffffffffffffffffffff1614806107c457506107c3856107be61139e565b6111a4565b5b610803576040517f08c379a00000000000000000000000000000000000000000000000000000000081526004016107fa90612c91565b60405180910390fd5b61081085858585856113a6565b5050505050565b61086c81600460008573ffffffffffffffffffffffffffffffffffffffff1673ffffffffffffffffffffffffffffffffffffffff1681526020019081526020016000206000015461131e90919063ffffffff16565b3410156108ae576040517f08c379a00000000000000000000000000000000000000000000000000000000081526004016108a590612c51565b60405180910390fd5b600460008373ffffffffffffffffffffffffffffffffffffffff1673ffffffffffffffffffffffffffffffffffffffff16815260200190815260200160002060010154811115610933576040517f08c379a000000000000000000000000000000000000000000000000000000000815260040161092a90612bf1565b60405180910390fd5b8061094083600354610519565b1015610981576040517f08c379a000000000000000000000000000000000000000000000000000000000815260040161097890612cf1565b60405180910390fd5b34600560008473ffffffffffffffffffffffffffffffffffffffff1673ffffffffffffffffffffffffffffffffffffffff16815260200190815260200160002060008282546109d09190612f34565b925050819055506109f582336003548460405180602001604052806000815250611238565b600460008373ffffffffffffffffffffffffffffffffffffffff1673ffffffffffffffffffffffffffffffffffffffff16815260200190815260200160002060010154811415610a9657600460008373ffffffffffffffffffffffffffffffffffffffff1673ffffffffffffffffffffffffffffffffffffffff16815260200190815260200160002060008082016000905560018201600090555050610b98565b6040518060400160405280600460008573ffffffffffffffffffffffffffffffffffffffff1673ffffffffffffffffffffffffffffffffffffffff168152602001908152602001600020600001548152602001610b3e83600460008773ffffffffffffffffffffffffffffffffffffffff1673ffffffffffffffffffffffffffffffffffffffff168152602001908152602001600020600101546116ba90919063ffffffff16565b815250600460008473ffffffffffffffffffffffffffffffffffffffff1673ffffffffffffffffffffffffffffffffffffffff16815260200190815260200160002060008201518160000155602082015181600101559050505b610bac3360096116d090919063ffffffff16565b505050565b60075481565b60608151835114610bfd576040517f08c379a0000000000000000000000000000000000000000000000000000000008152600401610bf490612d71565b60405180910390fd5b6000835167ffffffffffffffff811115610c1a57610c19613279565b5b604051908082528060200260200182016040528015610c485781602001602082028036833780820191505090505b50905060005b8451811015610cc557610c95858281518110610c6d57610c6c61324a565b5b6020026020010151858381518110610c8857610c8761324a565b5b6020026020010151610519565b828281518110610ca857610ca761324a565b5b60200260200101818152505080610cbe90613174565b9050610c4e565b508091505092915050565b60046020528060005260406000206000915090508060000154908060010154905082565b81600560003373ffffffffffffffffffffffffffffffffffffffff1673ffffffffffffffffffffffffffffffffffffffff168152602001908152602001600020541015610d76576040517f08c379a0000000000000000000000000000000000000000000000000000000008152600401610d6d90612d31565b60405180910390fd5b8073ffffffffffffffffffffffffffffffffffffffff166108fc839081150290604051600060405180830381858888f19350505050158015610dbc573d6000803e3d6000fd5b5081600560003373ffffffffffffffffffffffffffffffffffffffff1673ffffffffffffffffffffffffffffffffffffffff1681526020019081526020016000206000828254610e0c9190613015565b925050819055505050565b60065481565b610e326006548261131e90919063ffffffff16565b341015610e74576040517f08c379a0000000000000000000000000000000000000000000000000000000008152600401610e6b90612c11565b60405180910390fd5b600754610e8c8260085461170090919063ffffffff16565b1115610ecd576040517f08c379a0000000000000000000000000000000000000000000000000000000008152600401610ec490612cd1565b60405180910390fd5b610eea336003548360405180602001604052806000815250611716565b610eff8160085461170090919063ffffffff16565b600881905550610f193360096116d090919063ffffffff16565b5050565b8173ffffffffffffffffffffffffffffffffffffffff16610f3c61139e565b73ffffffffffffffffffffffffffffffffffffffff161415610f93576040517f08c379a0000000000000000000000000000000000000000000000000000000008152600401610f8a90612d51565b60405180910390fd5b8060016000610fa061139e565b73ffffffffffffffffffffffffffffffffffffffff1673ffffffffffffffffffffffffffffffffffffffff16815260200190815260200160002060008473ffffffffffffffffffffffffffffffffffffffff1673ffffffffffffffffffffffffffffffffffffffff16815260200190815260200160002060006101000a81548160ff0219169083151502179055508173ffffffffffffffffffffffffffffffffffffffff1661104d61139e565b73ffffffffffffffffffffffffffffffffffffffff167f17307eab39ab6107e8899845ad3d59bd9653f200f220920489ca2b5937696c31836040516110929190612b34565b60405180910390a35050565b806110ab33600354610519565b10156110ec576040517f08c379a00000000000000000000000000000000000000000000000000000000081526004016110e390612d11565b60405180910390fd5b6110f633306111a4565b611135576040517f08c379a000000000000000000000000000000000000000000000000000000000815260040161112c90612bb1565b60405180910390fd5b604051806040016040528083815260200182815250600460003373ffffffffffffffffffffffffffffffffffffffff1673ffffffffffffffffffffffffffffffffffffffff16815260200190815260200160002060008201518160000155602082015181600101559050505050565b6000600160008473ffffffffffffffffffffffffffffffffffffffff1673ffffffffffffffffffffffffffffffffffffffff16815260200190815260200160002060008373ffffffffffffffffffffffffffffffffffffffff1673ffffffffffffffffffffffffffffffffffffffff16815260200190815260200160002060009054906101000a900460ff16905092915050565b61124061139e565b73ffffffffffffffffffffffffffffffffffffffff168573ffffffffffffffffffffffffffffffffffffffff16148061128657506112858561128061139e565b6111a4565b5b6112c5576040517f08c379a00000000000000000000000000000000000000000000000000000000081526004016112bc90612c31565b60405180910390fd5b6112d285858585856118ac565b5050505050565b60006112e782600001611b2e565b9050919050565b60006112fd8360000183611b3f565b60001c905092915050565b600081836113169190612f8a565b905092915050565b6000818361132c9190612fbb565b905092915050565b60007f01ffc9a7000000000000000000000000000000000000000000000000000000007bffffffffffffffffffffffffffffffffffffffffffffffffffffffff1916827bffffffffffffffffffffffffffffffffffffffffffffffffffffffff1916149050919050565b600033905090565b81518351146113ea576040517f08c379a00000000000000000000000000000000000000000000000000000000081526004016113e190612d91565b60405180910390fd5b600073ffffffffffffffffffffffffffffffffffffffff168473ffffffffffffffffffffffffffffffffffffffff16141561145a576040517f08c379a000000000000000000000000000000000000000000000000000000000815260040161145190612c71565b60405180910390fd5b600061146461139e565b9050611474818787878787611b6a565b60005b84518110156116255760008582815181106114955761149461324a565b5b6020026020010151905060008583815181106114b4576114b361324a565b5b60200260200101519050600080600084815260200190815260200160002060008b73ffffffffffffffffffffffffffffffffffffffff1673ffffffffffffffffffffffffffffffffffffffff16815260200190815260200160002054905081811015611555576040517f08c379a000000000000000000000000000000000000000000000000000000000815260040161154c90612cb1565b60405180910390fd5b81810360008085815260200190815260200160002060008c73ffffffffffffffffffffffffffffffffffffffff1673ffffffffffffffffffffffffffffffffffffffff168152602001908152602001600020819055508160008085815260200190815260200160002060008b73ffffffffffffffffffffffffffffffffffffffff1673ffffffffffffffffffffffffffffffffffffffff168152602001908152602001600020600082825461160a9190612f34565b925050819055505050508061161e90613174565b9050611477565b508473ffffffffffffffffffffffffffffffffffffffff168673ffffffffffffffffffffffffffffffffffffffff168273ffffffffffffffffffffffffffffffffffffffff167f4a39dc06d4c0dbc64b70af90fd698a233a518aa5d07e595d983b8c0526c8f7fb878760405161169c929190612afd565b60405180910390a46116b2818787878787611b72565b505050505050565b600081836116c89190613015565b905092915050565b60006116f8836000018373ffffffffffffffffffffffffffffffffffffffff1660001b611d59565b905092915050565b6000818361170e9190612f34565b905092915050565b600073ffffffffffffffffffffffffffffffffffffffff168473ffffffffffffffffffffffffffffffffffffffff161415611786576040517f08c379a000000000000000000000000000000000000000000000000000000000815260040161177d90612db1565b60405180910390fd5b600061179061139e565b90506117b1816000876117a288611dc9565b6117ab88611dc9565b87611b6a565b8260008086815260200190815260200160002060008773ffffffffffffffffffffffffffffffffffffffff1673ffffffffffffffffffffffffffffffffffffffff16815260200190815260200160002060008282546118109190612f34565b925050819055508473ffffffffffffffffffffffffffffffffffffffff16600073ffffffffffffffffffffffffffffffffffffffff168273ffffffffffffffffffffffffffffffffffffffff167fc3d58168c5ae7397731d063d5bbf3d657854427343f4c083240f7aacaa2d0f62878760405161188e929190612dec565b60405180910390a46118a581600087878787611e43565b5050505050565b600073ffffffffffffffffffffffffffffffffffffffff168473ffffffffffffffffffffffffffffffffffffffff16141561191c576040517f08c379a000000000000000000000000000000000000000000000000000000000815260040161191390612c71565b60405180910390fd5b600061192661139e565b905061194681878761193788611dc9565b61194088611dc9565b87611b6a565b600080600086815260200190815260200160002060008873ffffffffffffffffffffffffffffffffffffffff1673ffffffffffffffffffffffffffffffffffffffff168152602001908152602001600020549050838110156119dd576040517f08c379a00000000000000000000000000000000000000000000000000000000081526004016119d490612cb1565b60405180910390fd5b83810360008087815260200190815260200160002060008973ffffffffffffffffffffffffffffffffffffffff1673ffffffffffffffffffffffffffffffffffffffff168152602001908152602001600020819055508360008087815260200190815260200160002060008873ffffffffffffffffffffffffffffffffffffffff1673ffffffffffffffffffffffffffffffffffffffff1681526020019081526020016000206000828254611a929190612f34565b925050819055508573ffffffffffffffffffffffffffffffffffffffff168773ffffffffffffffffffffffffffffffffffffffff168373ffffffffffffffffffffffffffffffffffffffff167fc3d58168c5ae7397731d063d5bbf3d657854427343f4c083240f7aacaa2d0f628888604051611b0f929190612dec565b60405180910390a4611b25828888888888611e43565b50505050505050565b600081600001805490509050919050565b6000826000018281548110611b5757611b5661324a565b5b9060005260206000200154905092915050565b505050505050565b611b918473ffffffffffffffffffffffffffffffffffffffff1661202a565b15611d51578373ffffffffffffffffffffffffffffffffffffffff1663bc197c8187878686866040518663ffffffff1660e01b8152600401611bd7959493929190612a19565b602060405180830381600087803b158015611bf157600080fd5b505af1925050508015611c2257506040513d601f19601f82011682018060405250810190611c1f9190612582565b60015b611cc857611c2e6132a8565b806308c379a01415611c8b5750611c436137d4565b80611c4e5750611c8d565b806040517f08c379a0000000000000000000000000000000000000000000000000000000008152600401611c829190612b4f565b60405180910390fd5b505b6040517f08c379a0000000000000000000000000000000000000000000000000000000008152600401611cbf90612b71565b60405180910390fd5b63bc197c8160e01b7bffffffffffffffffffffffffffffffffffffffffffffffffffffffff1916817bffffffffffffffffffffffffffffffffffffffffffffffffffffffff191614611d4f576040517f08c379a0000000000000000000000000000000000000000000000000000000008152600401611d4690612b91565b60405180910390fd5b505b505050505050565b6000611d65838361203d565b611dbe578260000182908060018154018082558091505060019003906000526020600020016000909190919091505582600001805490508360010160008481526020019081526020016000208190555060019050611dc3565b600090505b92915050565b60606000600167ffffffffffffffff811115611de857611de7613279565b5b604051908082528060200260200182016040528015611e165781602001602082028036833780820191505090505b5090508281600081518110611e2e57611e2d61324a565b5b60200260200101818152505080915050919050565b611e628473ffffffffffffffffffffffffffffffffffffffff1661202a565b15612022578373ffffffffffffffffffffffffffffffffffffffff1663f23a6e6187878686866040518663ffffffff1660e01b8152600401611ea8959493929190612a81565b602060405180830381600087803b158015611ec257600080fd5b505af1925050508015611ef357506040513d601f19601f82011682018060405250810190611ef09190612582565b60015b611f9957611eff6132a8565b806308c379a01415611f5c5750611f146137d4565b80611f1f5750611f5e565b806040517f08c379a0000000000000000000000000000000000000000000000000000000008152600401611f539190612b4f565b60405180910390fd5b505b6040517f08c379a0000000000000000000000000000000000000000000000000000000008152600401611f9090612b71565b60405180910390fd5b63f23a6e6160e01b7bffffffffffffffffffffffffffffffffffffffffffffffffffffffff1916817bffffffffffffffffffffffffffffffffffffffffffffffffffffffff191614612020576040517f08c379a000000000000000000000000000000000000000000000000000000000815260040161201790612b91565b60405180910390fd5b505b505050505050565b600080823b905060008111915050919050565b600080836001016000848152602001908152602001600020541415905092915050565b600061207361206e84612e3a565b612e15565b90508083825260208201905082856020860282011115612096576120956132cf565b5b60005b858110156120c657816120ac8882612182565b845260208401935060208301925050600181019050612099565b5050509392505050565b60006120e36120de84612e66565b612e15565b90508083825260208201905082856020860282011115612106576121056132cf565b5b60005b85811015612136578161211c8882612275565b845260208401935060208301925050600181019050612109565b5050509392505050565b600061215361214e84612e92565b612e15565b90508281526020810184848401111561216f5761216e6132d4565b5b61217a8482856130cf565b509392505050565b6000813590506121918161386a565b92915050565b6000813590506121a681613881565b92915050565b600082601f8301126121c1576121c06132ca565b5b81356121d1848260208601612060565b91505092915050565b600082601f8301126121ef576121ee6132ca565b5b81356121ff8482602086016120d0565b91505092915050565b60008135905061221781613898565b92915050565b60008135905061222c816138af565b92915050565b600081519050612241816138af565b92915050565b600082601f83011261225c5761225b6132ca565b5b813561226c848260208601612140565b91505092915050565b600081359050612284816138c6565b92915050565b6000602082840312156122a05761229f6132de565b5b60006122ae84828501612182565b91505092915050565b600080604083850312156122ce576122cd6132de565b5b60006122dc85828601612182565b92505060206122ed85828601612182565b9150509250929050565b600080600080600060a08688031215612313576123126132de565b5b600061232188828901612182565b955050602061233288828901612182565b945050604086013567ffffffffffffffff811115612353576123526132d9565b5b61235f888289016121da565b935050606086013567ffffffffffffffff8111156123805761237f6132d9565b5b61238c888289016121da565b925050608086013567ffffffffffffffff8111156123ad576123ac6132d9565b5b6123b988828901612247565b9150509295509295909350565b600080600080600060a086880312156123e2576123e16132de565b5b60006123f088828901612182565b955050602061240188828901612182565b945050604061241288828901612275565b935050606061242388828901612275565b925050608086013567ffffffffffffffff811115612444576124436132d9565b5b61245088828901612247565b9150509295509295909350565b60008060408385031215612474576124736132de565b5b600061248285828601612182565b925050602061249385828601612208565b9150509250929050565b600080604083850312156124b4576124b36132de565b5b60006124c285828601612182565b92505060206124d385828601612275565b9150509250929050565b600080604083850312156124f4576124f36132de565b5b600083013567ffffffffffffffff811115612512576125116132d9565b5b61251e858286016121ac565b925050602083013567ffffffffffffffff81111561253f5761253e6132d9565b5b61254b858286016121da565b9150509250929050565b60006020828403121561256b5761256a6132de565b5b60006125798482850161221d565b91505092915050565b600060208284031215612598576125976132de565b5b60006125a684828501612232565b91505092915050565b6000602082840312156125c5576125c46132de565b5b60006125d384828501612275565b91505092915050565b600080604083850312156125f3576125f26132de565b5b600061260185828601612275565b925050602061261285828601612197565b9150509250929050565b60008060408385031215612633576126326132de565b5b600061264185828601612275565b925050602061265285828601612275565b9150509250929050565b600061266883836129fb565b60208301905092915050565b61267d81613049565b82525050565b600061268e82612ed3565b6126988185612f01565b93506126a383612ec3565b8060005b838110156126d45781516126bb888261265c565b97506126c683612ef4565b9250506001810190506126a7565b5085935050505092915050565b6126ea8161306d565b82525050565b60006126fb82612ede565b6127058185612f12565b93506127158185602086016130de565b61271e816132e3565b840191505092915050565b600061273482612ee9565b61273e8185612f23565b935061274e8185602086016130de565b612757816132e3565b840191505092915050565b600061276f603483612f23565b915061277a82613301565b604082019050919050565b6000612792602883612f23565b915061279d82613350565b604082019050919050565b60006127b5601983612f23565b91506127c08261339f565b602082019050919050565b60006127d8602b83612f23565b91506127e3826133c8565b604082019050919050565b60006127fb602283612f23565b915061280682613417565b604082019050919050565b600061281e601683612f23565b915061282982613466565b602082019050919050565b6000612841602983612f23565b915061284c8261348f565b604082019050919050565b6000612864601783612f23565b915061286f826134de565b602082019050919050565b6000612887602583612f23565b915061289282613507565b604082019050919050565b60006128aa603283612f23565b91506128b582613556565b604082019050919050565b60006128cd602a83612f23565b91506128d8826135a5565b604082019050919050565b60006128f0601883612f23565b91506128fb826135f4565b602082019050919050565b6000612913601e83612f23565b915061291e8261361d565b602082019050919050565b6000612936601b83612f23565b915061294182613646565b602082019050919050565b6000612959601283612f23565b91506129648261366f565b602082019050919050565b600061297c602983612f23565b915061298782613698565b604082019050919050565b600061299f602983612f23565b91506129aa826136e7565b604082019050919050565b60006129c2602883612f23565b91506129cd82613736565b604082019050919050565b60006129e5602183612f23565b91506129f082613785565b604082019050919050565b612a04816130c5565b82525050565b612a13816130c5565b82525050565b600060a082019050612a2e6000830188612674565b612a3b6020830187612674565b8181036040830152612a4d8186612683565b90508181036060830152612a618185612683565b90508181036080830152612a7581846126f0565b90509695505050505050565b600060a082019050612a966000830188612674565b612aa36020830187612674565b612ab06040830186612a0a565b612abd6060830185612a0a565b8181036080830152612acf81846126f0565b90509695505050505050565b60006020820190508181036000830152612af58184612683565b905092915050565b60006040820190508181036000830152612b178185612683565b90508181036020830152612b2b8184612683565b90509392505050565b6000602082019050612b4960008301846126e1565b92915050565b60006020820190508181036000830152612b698184612729565b905092915050565b60006020820190508181036000830152612b8a81612762565b9050919050565b60006020820190508181036000830152612baa81612785565b9050919050565b60006020820190508181036000830152612bca816127a8565b9050919050565b60006020820190508181036000830152612bea816127cb565b9050919050565b60006020820190508181036000830152612c0a816127ee565b9050919050565b60006020820190508181036000830152612c2a81612811565b9050919050565b60006020820190508181036000830152612c4a81612834565b9050919050565b60006020820190508181036000830152612c6a81612857565b9050919050565b60006020820190508181036000830152612c8a8161287a565b9050919050565b60006020820190508181036000830152612caa8161289d565b9050919050565b60006020820190508181036000830152612cca816128c0565b9050919050565b60006020820190508181036000830152612cea816128e3565b9050919050565b60006020820190508181036000830152612d0a81612906565b9050919050565b60006020820190508181036000830152612d2a81612929565b9050919050565b60006020820190508181036000830152612d4a8161294c565b9050919050565b60006020820190508181036000830152612d6a8161296f565b9050919050565b60006020820190508181036000830152612d8a81612992565b9050919050565b60006020820190508181036000830152612daa816129b5565b9050919050565b60006020820190508181036000830152612dca816129d8565b9050919050565b6000602082019050612de66000830184612a0a565b92915050565b6000604082019050612e016000830185612a0a565b612e0e6020830184612a0a565b9392505050565b6000612e1f612e30565b9050612e2b8282613143565b919050565b6000604051905090565b600067ffffffffffffffff821115612e5557612e54613279565b5b602082029050602081019050919050565b600067ffffffffffffffff821115612e8157612e80613279565b5b602082029050602081019050919050565b600067ffffffffffffffff821115612ead57612eac613279565b5b612eb6826132e3565b9050602081019050919050565b6000819050602082019050919050565b600081519050919050565b600081519050919050565b600081519050919050565b6000602082019050919050565b600082825260208201905092915050565b600082825260208201905092915050565b600082825260208201905092915050565b6000612f3f826130c5565b9150612f4a836130c5565b9250827fffffffffffffffffffffffffffffffffffffffffffffffffffffffffffffffff03821115612f7f57612f7e6131bd565b5b828201905092915050565b6000612f95826130c5565b9150612fa0836130c5565b925082612fb057612faf6131ec565b5b828204905092915050565b6000612fc6826130c5565b9150612fd1836130c5565b9250817fffffffffffffffffffffffffffffffffffffffffffffffffffffffffffffffff048311821515161561300a576130096131bd565b5b828202905092915050565b6000613020826130c5565b915061302b836130c5565b92508282101561303e5761303d6131bd565b5b828203905092915050565b6000613054826130a5565b9050919050565b6000613066826130a5565b9050919050565b60008115159050919050565b60007fffffffff0000000000000000000000000000000000000000000000000000000082169050919050565b600073ffffffffffffffffffffffffffffffffffffffff82169050919050565b6000819050919050565b82818337600083830152505050565b60005b838110156130fc5780820151818401526020810190506130e1565b8381111561310b576000848401525b50505050565b6000600282049050600182168061312957607f821691505b6020821081141561313d5761313c61321b565b5b50919050565b61314c826132e3565b810181811067ffffffffffffffff8211171561316b5761316a613279565b5b80604052505050565b600061317f826130c5565b91507fffffffffffffffffffffffffffffffffffffffffffffffffffffffffffffffff8214156131b2576131b16131bd565b5b600182019050919050565b7f4e487b7100000000000000000000000000000000000000000000000000000000600052601160045260246000fd5b7f4e487b7100000000000000000000000000000000000000000000000000000000600052601260045260246000fd5b7f4e487b7100000000000000000000000000000000000000000000000000000000600052602260045260246000fd5b7f4e487b7100000000000000000000000000000000000000000000000000000000600052603260045260246000fd5b7f4e487b7100000000000000000000000000000000000000000000000000000000600052604160045260246000fd5b600060033d11156132c75760046000803e6132c46000516132f4565b90505b90565b600080fd5b600080fd5b600080fd5b600080fd5b600080fd5b6000601f19601f8301169050919050565b60008160e01c9050919050565b7f455243313135353a207472616e7366657220746f206e6f6e204552433131353560008201527f526563656976657220696d706c656d656e746572000000000000000000000000602082015250565b7f455243313135353a204552433131353552656365697665722072656a6563746560008201527f6420746f6b656e73000000000000000000000000000000000000000000000000602082015250565b7f636f6e7472616374206d75737420626520617070726f76656400000000000000600082015250565b7f455243313135353a2062616c616e636520717565727920666f7220746865207a60008201527f65726f2061646472657373000000000000000000000000000000000000000000602082015250565b7f696e76616c696420616d6f756e74206f6620736861726573207265717565737460008201527f6564000000000000000000000000000000000000000000000000000000000000602082015250565b7f496e76616c6964207061796d656e7420616d6f756e7400000000000000000000600082015250565b7f455243313135353a2063616c6c6572206973206e6f74206f776e6572206e6f7260008201527f20617070726f7665640000000000000000000000000000000000000000000000602082015250565b7f696e73756666696369656e742066756e64732073656e74000000000000000000600082015250565b7f455243313135353a207472616e7366657220746f20746865207a65726f20616460008201527f6472657373000000000000000000000000000000000000000000000000000000602082015250565b7f455243313135353a207472616e736665722063616c6c6572206973206e6f742060008201527f6f776e6572206e6f7220617070726f7665640000000000000000000000000000602082015250565b7f455243313135353a20696e73756666696369656e742062616c616e636520666f60008201527f72207472616e7366657200000000000000000000000000000000000000000000602082015250565b7f496e76616c696420616d6f756e74206f6620737570706c790000000000000000600082015250565b7f696e73756666696369656e7420616d6f756e742066726f6d206f776e65720000600082015250565b7f63616c6c6572206d757374206f776e20676976656e20746f6b656e0000000000600082015250565b7f696e73756666696369656e742066756e64730000000000000000000000000000600082015250565b7f455243313135353a2073657474696e6720617070726f76616c2073746174757360008201527f20666f722073656c660000000000000000000000000000000000000000000000602082015250565b7f455243313135353a206163636f756e747320616e6420696473206c656e67746860008201527f206d69736d617463680000000000000000000000000000000000000000000000602082015250565b7f455243313135353a2069647320616e6420616d6f756e7473206c656e6774682060008201527f6d69736d61746368000000000000000000000000000000000000000000000000602082015250565b7f455243313135353a206d696e7420746f20746865207a65726f2061646472657360008201527f7300000000000000000000000000000000000000000000000000000000000000602082015250565b600060443d10156137e457613867565b6137ec612e30565b60043d036004823e80513d602482011167ffffffffffffffff82111715613814575050613867565b808201805167ffffffffffffffff8111156138325750505050613867565b80602083010160043d03850181111561384f575050505050613867565b61385e82602001850186613143565b82955050505050505b90565b61387381613049565b811461387e57600080fd5b50565b61388a8161305b565b811461389557600080fd5b50565b6138a18161306d565b81146138ac57600080fd5b50565b6138b881613079565b81146138c357600080fd5b50565b6138cf816130c5565b81146138da57600080fd5b5056fea2646970667358221220ea479fcc1b92b1a798ca6e85738460347b0e38d307732d6c4514da63a3c8583164736f6c63430008070033",
  "linkReferences": {},
  "deployedLinkReferences": {}
}