{
  "_format": "hh-sol-artifact-1",
  "contractName": "DAOToken",
  "sourceName": "contracts/DAOToken.sol",
  "abi": [
    {
      "inputs": [
        {
          "internalType": "string",
          "name": "tokenName",
          "type": "string"
        },
        {
          "internalType": "string",
          "name": "tokenSymbol",
          "type": "string"
        },
        {
          "internalType": "uint256",
          "name": "initialSupply",
          "type": "uint256"
        },
        {
          "internalType": "address",
          "name": "_airDropContractAddress",
          "type": "address"
        },
        {
          "internalType": "address",
          "name": "_burnWalletAddress",
          "type": "address"
        },
        {
          "internalType": "address",
          "name": "_liquidityWalletAddress",
          "type": "address"
        },
        {
          "internalType": "address payable",
          "name": "_realEstateWalletAddress",
          "type": "address"
        },
        {
          "internalType": "address payable",
          "name": "_marketingWalletAddress",
          "type": "address"
        },
        {
          "internalType": "address payable",
          "name": "_developerWalletAddress",
          "type": "address"
        },
        {
          "internalType": "address",
          "name": "_uniswapRouterAddress",
          "type": "address"
        },
        {
          "components": [
            {
              "internalType": "uint256",
              "name": "airdropPercent",
              "type": "uint256"
            },
            {
              "internalType": "uint256",
              "name": "liquidityPoolPercent",
              "type": "uint256"
            },
            {
              "internalType": "uint256",
              "name": "burnPercent",
              "type": "uint256"
            },
            {
              "internalType": "uint256",
              "name": "developerPercent",
              "type": "uint256"
            },
            {
              "internalType": "uint256",
              "name": "marketingPercent",
              "type": "uint256"
            }
          ],
          "internalType": "struct SharedStructs.percentages",
          "name": "_mintPercentages",
          "type": "tuple"
        }
      ],
      "stateMutability": "nonpayable",
      "type": "constructor"
    },
    {
      "anonymous": false,
      "inputs": [
        {
          "indexed": true,
          "internalType": "address",
          "name": "owner",
          "type": "address"
        },
        {
          "indexed": true,
          "internalType": "address",
          "name": "spender",
          "type": "address"
        },
        {
          "indexed": false,
          "internalType": "uint256",
          "name": "value",
          "type": "uint256"
        }
      ],
      "name": "Approval",
      "type": "event"
    },
    {
      "anonymous": false,
      "inputs": [
        {
          "indexed": true,
          "internalType": "address",
          "name": "delegator",
          "type": "address"
        },
        {
          "indexed": true,
          "internalType": "address",
          "name": "fromDelegate",
          "type": "address"
        },
        {
          "indexed": true,
          "internalType": "address",
          "name": "toDelegate",
          "type": "address"
        }
      ],
      "name": "DelegateChanged",
      "type": "event"
    },
    {
      "anonymous": false,
      "inputs": [
        {
          "indexed": true,
          "internalType": "address",
          "name": "delegate",
          "type": "address"
        },
        {
          "indexed": false,
          "internalType": "uint256",
          "name": "previousBalance",
          "type": "uint256"
        },
        {
          "indexed": false,
          "internalType": "uint256",
          "name": "newBalance",
          "type": "uint256"
        }
      ],
      "name": "DelegateVotesChanged",
      "type": "event"
    },
    {
      "anonymous": false,
      "inputs": [
        {
          "indexed": true,
          "internalType": "address",
          "name": "previousOwner",
          "type": "address"
        },
        {
          "indexed": true,
          "internalType": "address",
          "name": "newOwner",
          "type": "address"
        }
      ],
      "name": "OwnershipTransferred",
      "type": "event"
    },
    {
      "anonymous": false,
      "inputs": [
        {
          "indexed": true,
          "internalType": "address",
          "name": "from",
          "type": "address"
        },
        {
          "indexed": true,
          "internalType": "address",
          "name": "to",
          "type": "address"
        },
        {
          "indexed": false,
          "internalType": "uint256",
          "name": "value",
          "type": "uint256"
        }
      ],
      "name": "Transfer",
      "type": "event"
    },
    {
      "inputs": [],
      "name": "DOMAIN_SEPARATOR",
      "outputs": [
        {
          "internalType": "bytes32",
          "name": "",
          "type": "bytes32"
        }
      ],
      "stateMutability": "view",
      "type": "function"
    },
    {
      "inputs": [],
      "name": "airDropContractAddress",
      "outputs": [
        {
          "internalType": "address",
          "name": "",
          "type": "address"
        }
      ],
      "stateMutability": "view",
      "type": "function"
    },
    {
      "inputs": [
        {
          "internalType": "address",
          "name": "",
          "type": "address"
        }
      ],
      "name": "airDropInvestTime",
      "outputs": [
        {
          "internalType": "uint256",
          "name": "",
          "type": "uint256"
        }
      ],
      "stateMutability": "view",
      "type": "function"
    },
    {
      "inputs": [
        {
          "internalType": "address",
          "name": "owner",
          "type": "address"
        },
        {
          "internalType": "address",
          "name": "spender",
          "type": "address"
        }
      ],
      "name": "allowance",
      "outputs": [
        {
          "internalType": "uint256",
          "name": "",
          "type": "uint256"
        }
      ],
      "stateMutability": "view",
      "type": "function"
    },
    {
      "inputs": [
        {
          "internalType": "address",
          "name": "spender",
          "type": "address"
        },
        {
          "internalType": "uint256",
          "name": "amount",
          "type": "uint256"
        }
      ],
      "name": "approve",
      "outputs": [
        {
          "internalType": "bool",
          "name": "",
          "type": "bool"
        }
      ],
      "stateMutability": "nonpayable",
      "type": "function"
    },
    {
      "inputs": [
        {
          "internalType": "address",
          "name": "account",
          "type": "address"
        }
      ],
      "name": "balanceOf",
      "outputs": [
        {
          "internalType": "uint256",
          "name": "",
          "type": "uint256"
        }
      ],
      "stateMutability": "view",
      "type": "function"
    },
    {
      "inputs": [],
      "name": "burnWalletAddress",
      "outputs": [
        {
          "internalType": "address",
          "name": "",
          "type": "address"
        }
      ],
      "stateMutability": "view",
      "type": "function"
    },
    {
      "inputs": [
        {
          "internalType": "address",
          "name": "account",
          "type": "address"
        },
        {
          "internalType": "uint32",
          "name": "pos",
          "type": "uint32"
        }
      ],
      "name": "checkpoints",
      "outputs": [
        {
          "components": [
            {
              "internalType": "uint32",
              "name": "fromBlock",
              "type": "uint32"
            },
            {
              "internalType": "uint224",
              "name": "votes",
              "type": "uint224"
            }
          ],
          "internalType": "struct ERC20Votes.Checkpoint",
          "name": "",
          "type": "tuple"
        }
      ],
      "stateMutability": "view",
      "type": "function"
    },
    {
      "inputs": [],
      "name": "contractBPDTDivisor",
      "outputs": [
        {
          "internalType": "uint256",
          "name": "",
          "type": "uint256"
        }
      ],
      "stateMutability": "view",
      "type": "function"
    },
    {
      "inputs": [],
      "name": "decimals",
      "outputs": [
        {
          "internalType": "uint8",
          "name": "",
          "type": "uint8"
        }
      ],
      "stateMutability": "view",
      "type": "function"
    },
    {
      "inputs": [
        {
          "internalType": "address",
          "name": "spender",
          "type": "address"
        },
        {
          "internalType": "uint256",
          "name": "subtractedValue",
          "type": "uint256"
        }
      ],
      "name": "decreaseAllowance",
      "outputs": [
        {
          "internalType": "bool",
          "name": "",
          "type": "bool"
        }
      ],
      "stateMutability": "nonpayable",
      "type": "function"
    },
    {
      "inputs": [
        {
          "internalType": "address",
          "name": "delegatee",
          "type": "address"
        }
      ],
      "name": "delegate",
      "outputs": [],
      "stateMutability": "nonpayable",
      "type": "function"
    },
    {
      "inputs": [
        {
          "internalType": "address",
          "name": "delegatee",
          "type": "address"
        },
        {
          "internalType": "uint256",
          "name": "nonce",
          "type": "uint256"
        },
        {
          "internalType": "uint256",
          "name": "expiry",
          "type": "uint256"
        },
        {
          "internalType": "uint8",
          "name": "v",
          "type": "uint8"
        },
        {
          "internalType": "bytes32",
          "name": "r",
          "type": "bytes32"
        },
        {
          "internalType": "bytes32",
          "name": "s",
          "type": "bytes32"
        }
      ],
      "name": "delegateBySig",
      "outputs": [],
      "stateMutability": "nonpayable",
      "type": "function"
    },
    {
      "inputs": [
        {
          "internalType": "address",
          "name": "account",
          "type": "address"
        }
      ],
      "name": "delegates",
      "outputs": [
        {
          "internalType": "address",
          "name": "",
          "type": "address"
        }
      ],
      "stateMutability": "view",
      "type": "function"
    },
    {
      "inputs": [],
      "name": "developerFeePercent",
      "outputs": [
        {
          "internalType": "uint256",
          "name": "",
          "type": "uint256"
        }
      ],
      "stateMutability": "view",
      "type": "function"
    },
    {
      "inputs": [],
      "name": "developerWalletAddress",
      "outputs": [
        {
          "internalType": "address payable",
          "name": "",
          "type": "address"
        }
      ],
      "stateMutability": "view",
      "type": "function"
    },
    {
      "inputs": [],
      "name": "disperseFeesManually",
      "outputs": [],
      "stateMutability": "nonpayable",
      "type": "function"
    },
    {
      "inputs": [
        {
          "internalType": "address",
          "name": "user",
          "type": "address"
        }
      ],
      "name": "excludeUserFromFees",
      "outputs": [],
      "stateMutability": "nonpayable",
      "type": "function"
    },
    {
      "inputs": [
        {
          "internalType": "address",
          "name": "",
          "type": "address"
        }
      ],
      "name": "excludedFromFees",
      "outputs": [
        {
          "internalType": "bool",
          "name": "",
          "type": "bool"
        }
      ],
      "stateMutability": "view",
      "type": "function"
    },
    {
      "inputs": [],
      "name": "getContractAddress",
      "outputs": [
        {
          "internalType": "address",
          "name": "",
          "type": "address"
        }
      ],
      "stateMutability": "view",
      "type": "function"
    },
    {
      "inputs": [],
      "name": "getCurrentTimestamp",
      "outputs": [
        {
          "internalType": "uint256",
          "name": "",
          "type": "uint256"
        }
      ],
      "stateMutability": "view",
      "type": "function"
    },
    {
      "inputs": [
        {
          "internalType": "uint256",
          "name": "blockNumber",
          "type": "uint256"
        }
      ],
      "name": "getPastTotalSupply",
      "outputs": [
        {
          "internalType": "uint256",
          "name": "",
          "type": "uint256"
        }
      ],
      "stateMutability": "view",
      "type": "function"
    },
    {
      "inputs": [
        {
          "internalType": "address",
          "name": "account",
          "type": "address"
        },
        {
          "internalType": "uint256",
          "name": "blockNumber",
          "type": "uint256"
        }
      ],
      "name": "getPastVotes",
      "outputs": [
        {
          "internalType": "uint256",
          "name": "",
          "type": "uint256"
        }
      ],
      "stateMutability": "view",
      "type": "function"
    },
    {
      "inputs": [
        {
          "internalType": "address",
          "name": "account",
          "type": "address"
        }
      ],
      "name": "getVotes",
      "outputs": [
        {
          "internalType": "uint256",
          "name": "",
          "type": "uint256"
        }
      ],
      "stateMutability": "view",
      "type": "function"
    },
    {
      "inputs": [
        {
          "internalType": "address",
          "name": "user",
          "type": "address"
        }
      ],
      "name": "includeUsersInFees",
      "outputs": [],
      "stateMutability": "nonpayable",
      "type": "function"
    },
    {
      "inputs": [
        {
          "internalType": "address",
          "name": "spender",
          "type": "address"
        },
        {
          "internalType": "uint256",
          "name": "addedValue",
          "type": "uint256"
        }
      ],
      "name": "increaseAllowance",
      "outputs": [
        {
          "internalType": "bool",
          "name": "",
          "type": "bool"
        }
      ],
      "stateMutability": "nonpayable",
      "type": "function"
    },
    {
      "inputs": [],
      "name": "initialTimeStamp",
      "outputs": [
        {
          "internalType": "uint256",
          "name": "",
          "type": "uint256"
        }
      ],
      "stateMutability": "view",
      "type": "function"
    },
    {
      "inputs": [],
      "name": "liquidityWalletAddress",
      "outputs": [
        {
          "internalType": "address",
          "name": "",
          "type": "address"
        }
      ],
      "stateMutability": "view",
      "type": "function"
    },
    {
      "inputs": [],
      "name": "marketingFeePercent",
      "outputs": [
        {
          "internalType": "uint256",
          "name": "",
          "type": "uint256"
        }
      ],
      "stateMutability": "view",
      "type": "function"
    },
    {
      "inputs": [],
      "name": "marketingWalletAddress",
      "outputs": [
        {
          "internalType": "address payable",
          "name": "",
          "type": "address"
        }
      ],
      "stateMutability": "view",
      "type": "function"
    },
    {
      "inputs": [],
      "name": "name",
      "outputs": [
        {
          "internalType": "string",
          "name": "",
          "type": "string"
        }
      ],
      "stateMutability": "view",
      "type": "function"
    },
    {
      "inputs": [
        {
          "internalType": "address",
          "name": "owner",
          "type": "address"
        }
      ],
      "name": "nonces",
      "outputs": [
        {
          "internalType": "uint256",
          "name": "",
          "type": "uint256"
        }
      ],
      "stateMutability": "view",
      "type": "function"
    },
    {
      "inputs": [
        {
          "internalType": "address",
          "name": "account",
          "type": "address"
        }
      ],
      "name": "numCheckpoints",
      "outputs": [
        {
          "internalType": "uint32",
          "name": "",
          "type": "uint32"
        }
      ],
      "stateMutability": "view",
      "type": "function"
    },
    {
      "inputs": [],
      "name": "owner",
      "outputs": [
        {
          "internalType": "address",
          "name": "",
          "type": "address"
        }
      ],
      "stateMutability": "view",
      "type": "function"
    },
    {
      "inputs": [
        {
          "internalType": "address",
          "name": "owner",
          "type": "address"
        },
        {
          "internalType": "address",
          "name": "spender",
          "type": "address"
        },
        {
          "internalType": "uint256",
          "name": "value",
          "type": "uint256"
        },
        {
          "internalType": "uint256",
          "name": "deadline",
          "type": "uint256"
        },
        {
          "internalType": "uint8",
          "name": "v",
          "type": "uint8"
        },
        {
          "internalType": "bytes32",
          "name": "r",
          "type": "bytes32"
        },
        {
          "internalType": "bytes32",
          "name": "s",
          "type": "bytes32"
        }
      ],
      "name": "permit",
      "outputs": [],
      "stateMutability": "nonpayable",
      "type": "function"
    },
    {
      "inputs": [],
      "name": "realEstateTransactionFeePercent",
      "outputs": [
        {
          "internalType": "uint256",
          "name": "",
          "type": "uint256"
        }
      ],
      "stateMutability": "view",
      "type": "function"
    },
    {
      "inputs": [],
      "name": "realEstateWalletAddress",
      "outputs": [
        {
          "internalType": "address payable",
          "name": "",
          "type": "address"
        }
      ],
      "stateMutability": "view",
      "type": "function"
    },
    {
      "inputs": [],
      "name": "renounceOwnership",
      "outputs": [],
      "stateMutability": "nonpayable",
      "type": "function"
    },
    {
      "inputs": [
        {
          "internalType": "uint256",
          "name": "newDivisor",
          "type": "uint256"
        }
      ],
      "name": "setContractBPDTDivisor",
      "outputs": [],
      "stateMutability": "nonpayable",
      "type": "function"
    },
    {
      "inputs": [
        {
          "internalType": "address payable",
          "name": "walletAddr",
          "type": "address"
        },
        {
          "internalType": "enum DAOToken.WalletType",
          "name": "addrType",
          "type": "uint8"
        }
      ],
      "name": "setWalletAddress",
      "outputs": [],
      "stateMutability": "nonpayable",
      "type": "function"
    },
    {
      "inputs": [],
      "name": "symbol",
      "outputs": [
        {
          "internalType": "string",
          "name": "",
          "type": "string"
        }
      ],
      "stateMutability": "view",
      "type": "function"
    },
    {
      "inputs": [],
      "name": "totalSupply",
      "outputs": [
        {
          "internalType": "uint256",
          "name": "",
          "type": "uint256"
        }
      ],
      "stateMutability": "view",
      "type": "function"
    },
    {
      "inputs": [
        {
          "internalType": "address",
          "name": "recipient",
          "type": "address"
        },
        {
          "internalType": "uint256",
          "name": "amount",
          "type": "uint256"
        }
      ],
      "name": "transfer",
      "outputs": [
        {
          "internalType": "bool",
          "name": "",
          "type": "bool"
        }
      ],
      "stateMutability": "nonpayable",
      "type": "function"
    },
    {
      "inputs": [
        {
          "internalType": "address",
          "name": "from",
          "type": "address"
        },
        {
          "internalType": "address",
          "name": "to",
          "type": "address"
        },
        {
          "internalType": "uint256",
          "name": "amount",
          "type": "uint256"
        }
      ],
      "name": "transferFrom",
      "outputs": [
        {
          "internalType": "bool",
          "name": "",
          "type": "bool"
        }
      ],
      "stateMutability": "nonpayable",
      "type": "function"
    },
    {
      "inputs": [
        {
          "internalType": "address",
          "name": "newOwner",
          "type": "address"
        }
      ],
      "name": "transferOwnership",
      "outputs": [],
      "stateMutability": "nonpayable",
      "type": "function"
    },
    {
      "inputs": [],
      "name": "uniswapPair",
      "outputs": [
        {
          "internalType": "address",
          "name": "",
          "type": "address"
        }
      ],
      "stateMutability": "view",
      "type": "function"
    },
    {
      "inputs": [],
      "name": "uniswapRouterAddress",
      "outputs": [
        {
          "internalType": "address",
          "name": "",
          "type": "address"
        }
      ],
      "stateMutability": "view",
      "type": "function"
    },
    {
      "stateMutability": "payable",
      "type": "receive"
    }
  ],
  "bytecode": "0x6101606040527f6e71edae12b1b97f4d1f60370fef10105fa2faae0126114a169c64845d6126c9610140526003601455600160158190556016556103e86019553480156200004c57600080fd5b5060405162004176380380620041768339810160408190526200006f9162000f63565b8a80604051806040016040528060018152602001603160f81b8152508d8d8160039080519060200190620000a592919062000d69565b508051620000bb90600490602084019062000d69565b505050620000d8620000d26200056360201b60201c565b62000567565b815160208084019190912082518383012060e08290526101008190524660a0818152604080517f8b73c3c69bb8fe3d512ecc4cf759cc79239f7b179b0ffacaa9a75d522b39400f81880181905281830187905260608201869052608082019490945230818401528151808203909301835260c00190528051940193909320919290916080523060601b60c052610120525050426013555050600c80546001600160a01b03199081166001600160a01b038c8116919091178355600e805483168a8316908117909155600d805484168d8416179055600f805484168c84161781556010805485168b85161781556011805486168b8616178155601280549096168a8616179095556000928352600a6020526040808420805460ff1990811660019081179092559654861685528185208054881682179055915485168452808420805487168317905591548416835281832080548616821790558554841683529120805490931617909155905483516200026f93509116906064906200025d908d620010e7565b620002699190620010c4565b620005b9565b600f54602082015162000295916001600160a01b0316906064906200025d908d620010e7565b600d546040820151620002bb916001600160a01b0316906064906200025d908d620010e7565b6010546080820151620002e1916001600160a01b0316906064906200025d908d620010e7565b601154606082015162000307916001600160a01b0316906064906200025d908d620010e7565b601254601780546001600160a01b0319166001600160a01b0390921691821790556200033530828c620005d4565b806001600160a01b031663c45a01556040518163ffffffff1660e01b815260040160206040518083038186803b1580156200036f57600080fd5b505afa15801562000384573d6000803e3d6000fd5b505050506040513d601f19601f82011682018060405250810190620003aa919062000f1f565b6001600160a01b031663c9c6539630836001600160a01b031663ad5c46486040518163ffffffff1660e01b815260040160206040518083038186803b158015620003f357600080fd5b505afa15801562000408573d6000803e3d6000fd5b505050506040513d601f19601f820116820180604052508101906200042e919062000f1f565b6040516001600160e01b031960e085901b1681526001600160a01b03928316600482015291166024820152604401602060405180830381600087803b1580156200047757600080fd5b505af11580156200048c573d6000803e3d6000fd5b505050506040513d601f19601f82011682018060405250810190620004b2919062000f1f565b601880546001600160a01b0319166001600160a01b0392831690811790915560175460405163095ea7b360e01b81529216600483015260001960248301529063095ea7b390604401602060405180830381600087803b1580156200051557600080fd5b505af11580156200052a573d6000803e3d6000fd5b505050506040513d601f19601f8201168201806040525081019062000550919062000f3f565b50505050505050505050505050620011bb565b3390565b600580546001600160a01b038381166001600160a01b0319831681179093556040519116919082907f8be0079c531659141344cd1fd0a4f28419497f9722a3daafe3b4186f6b6457e090600090a35050565b620005d082826200070060201b6200173f1760201c565b5050565b6001600160a01b0383166200063c5760405162461bcd60e51b8152602060048201526024808201527f45524332303a20617070726f76652066726f6d20746865207a65726f206164646044820152637265737360e01b60648201526084015b60405180910390fd5b6001600160a01b0382166200069f5760405162461bcd60e51b815260206004820152602260248201527f45524332303a20617070726f766520746f20746865207a65726f206164647265604482015261737360f01b606482015260840162000633565b6001600160a01b0383811660008181526001602090815260408083209487168084529482529182902085905590518481527f8c5be1e5ebec7d5bd14f71427d1e84f3dd0314c0f7b2291e5b200ac8c7c3b925910160405180910390a3505050565b620007178282620007b360201b620017dc1760201c565b6001600160e01b036200072b620008a28216565b1115620007945760405162461bcd60e51b815260206004820152603060248201527f4552433230566f7465733a20746f74616c20737570706c79207269736b73206f60448201526f766572666c6f77696e6720766f74657360801b606482015260840162000633565b620007ad6009620018c3620008a860201b1783620008bd565b50505050565b6001600160a01b0382166200080b5760405162461bcd60e51b815260206004820152601f60248201527f45524332303a206d696e7420746f20746865207a65726f206164647265737300604482015260640162000633565b80600260008282546200081f9190620010a9565b90915550506001600160a01b038216600090815260208190526040812080548392906200084e908490620010a9565b90915550506040518181526001600160a01b038316906000907fddf252ad1be2c89b69c2b068fc378daa952ba7f163c4a11628f55a4df523b3ef9060200160405180910390a3620005d06000838362000a74565b60025490565b6000620008b68284620010a9565b9392505050565b8254600090819080156200090f5785620008d960018362001109565b81548110620008ec57620008ec62001176565b60009182526020909120015464010000000090046001600160e01b031662000912565b60005b6001600160e01b031692506200092983858760201c565b91506000811180156200096d575043866200094660018462001109565b8154811062000959576200095962001176565b60009182526020909120015463ffffffff16145b15620009e157620009898262000b1660201b620018cf1760201c565b866200099760018462001109565b81548110620009aa57620009aa62001176565b9060005260206000200160000160046101000a8154816001600160e01b0302191690836001600160e01b0316021790555062000a66565b85604051806040016040528062000a034362000b8560201b620019521760201c565b63ffffffff16815260200162000a248562000b1660201b620018cf1760201c565b6001600160e01b0390811690915282546001810184556000938452602093849020835194909301519091166401000000000263ffffffff909316929092179101555b50935093915050565b505050565b6001600160a01b03821660009081526020818152604080832054600b90925290912054819062000aa5848362001109565b62000ab19190620010e7565b62000abd4285620010e7565b62000ac99190620010a9565b62000ad59190620010c4565b600b6000856001600160a01b03166001600160a01b0316815260200190815260200160002081905550620007ad84848462000bec60201b620019ce1760201c565b60006001600160e01b0382111562000b815760405162461bcd60e51b815260206004820152602760248201527f53616665436173743a2076616c756520646f65736e27742066697420696e20326044820152663234206269747360c81b606482015260840162000633565b5090565b600063ffffffff82111562000b815760405162461bcd60e51b815260206004820152602660248201527f53616665436173743a2076616c756520646f65736e27742066697420696e203360448201526532206269747360d01b606482015260840162000633565b62000c0483838362000a6f60201b62001a001760201c565b6001600160a01b0383811660009081526007602052604080822054858416835291205462000a6f9291821691168381831480159062000c435750600081115b1562000a6f576001600160a01b0383161562000cd0576001600160a01b03831660009081526008602090815260408220829162000c8d919062000d5b901b62001a051785620008bd565b91509150846001600160a01b031660008051602062004156833981519152838360405162000cc5929190918252602082015260400190565b60405180910390a250505b6001600160a01b0382161562000a6f576001600160a01b03821660009081526008602090815260408220829162000d149190620008a8901b620018c31785620008bd565b91509150836001600160a01b031660008051602062004156833981519152838360405162000d4c929190918252602082015260400190565b60405180910390a25050505050565b6000620008b6828462001109565b82805462000d779062001123565b90600052602060002090601f01602090048101928262000d9b576000855562000de6565b82601f1062000db657805160ff191683800117855562000de6565b8280016001018555821562000de6579182015b8281111562000de657825182559160200191906001019062000dc9565b5062000b819291505b8082111562000b81576000815560010162000def565b805162000e1281620011a2565b919050565b600082601f83011262000e2957600080fd5b81516001600160401b0381111562000e455762000e456200118c565b602062000e5b601f8301601f1916820162001076565b828152858284870101111562000e7057600080fd5b60005b8381101562000e9057858101830151828201840152820162000e73565b8381111562000ea25760008385840101525b5095945050505050565b600060a0828403121562000ebf57600080fd5b60405160a081016001600160401b038111828210171562000ee45762000ee46200118c565b806040525080915082518152602083015160208201526040830151604082015260608301516060820152608083015160808201525092915050565b60006020828403121562000f3257600080fd5b8151620008b681620011a2565b60006020828403121562000f5257600080fd5b81518015158114620008b657600080fd5b60008060008060008060008060008060006101e08c8e03121562000f8657600080fd5b8b516001600160401b0381111562000f9d57600080fd5b62000fab8e828f0162000e17565b60208e0151909c5090506001600160401b0381111562000fca57600080fd5b62000fd88e828f0162000e17565b9a505060408c0151985062000ff060608d0162000e05565b97506200100060808d0162000e05565b96506200101060a08d0162000e05565b95506200102060c08d0162000e05565b94506200103060e08d0162000e05565b9350620010416101008d0162000e05565b9250620010526101208d0162000e05565b9150620010648d6101408e0162000eac565b90509295989b509295989b9093969950565b604051601f8201601f191681016001600160401b0381118282101715620010a157620010a16200118c565b604052919050565b60008219821115620010bf57620010bf62001160565b500190565b600082620010e257634e487b7160e01b600052601260045260246000fd5b500490565b600081600019048311821515161562001104576200110462001160565b500290565b6000828210156200111e576200111e62001160565b500390565b600181811c908216806200113857607f821691505b602082108114156200115a57634e487b7160e01b600052602260045260246000fd5b50919050565b634e487b7160e01b600052601160045260246000fd5b634e487b7160e01b600052603260045260246000fd5b634e487b7160e01b600052604160045260246000fd5b6001600160a01b0381168114620011b857600080fd5b50565b60805160a05160c05160601c60e051610100516101205161014051612f3d62001219600039600061137e01526000611eba01526000611f0901526000611ee401526000611e3d01526000611e6701526000611e910152612f3d6000f3fe60806040526004361061030c5760003560e01c806370a082311161019a578063a9059cbb116100e1578063da6fa55c1161008a578063e5c392c311610064578063e5c392c3146108d9578063f1127ed8146108f9578063f2fde38b1461094357600080fd5b8063da6fa55c1461084d578063dbe66ca014610863578063dd62ed3e1461089357600080fd5b8063c816841b116100bb578063c816841b146107ed578063d158272d1461080d578063d505accf1461082d57600080fd5b8063a9059cbb1461078d578063bbeaa1f8146107ad578063c3cda520146107cd57600080fd5b80638e539e8c116101435780639ab24eb01161011d5780639ab24eb014610737578063a0c0b80b14610757578063a457c2d71461076d57600080fd5b80638e539e8c146106e25780638eb83f251461070257806395d89b411461072257600080fd5b80637c13efd4116101745780637c13efd41461068f5780637ecebe00146106a45780638da5cb5b146106c457600080fd5b806370a0823114610624578063715018a61461065a57806378c1d2451461066f57600080fd5b80633644e5151161025e5780635b3c1da1116102075780636c9230db116101e15780636c9230db146105c65780636e2b0e47146105d95780636fcfff45146105ef57600080fd5b80635b3c1da1146105665780635c19a95c1461058657806361eb048a146105a657600080fd5b80634fcd1285116102385780634fcd1285146104f7578063502f91ec1461050d578063587cde1e1461052d57600080fd5b80633644e515146104a257806339509351146104b75780633a46b1a8146104d757600080fd5b80631ba7f00f116102c05780632fb47be41161029a5780632fb47be41461045d578063313ce5671461047357806332a2c5d01461048f57600080fd5b80631ba7f00f146103e557806320ca3c7f1461041d57806323b872dd1461043d57600080fd5b8063095ea7b3116102f1578063095ea7b3146103655780631497b01b1461039557806318160ddd146103d057600080fd5b806306fdde03146103185780630952b28b1461034357600080fd5b3661031357005b600080fd5b34801561032457600080fd5b5061032d610963565b60405161033a9190612d09565b60405180910390f35b34801561034f57600080fd5b5061036361035e366004612cf0565b6109f5565b005b34801561037157600080fd5b50610385610380366004612c33565b610a59565b604051901515815260200161033a565b3480156103a157600080fd5b506103c26103b0366004612adf565b600b6020526000908152604090205481565b60405190815260200161033a565b3480156103dc57600080fd5b506002546103c2565b3480156103f157600080fd5b50600c54610405906001600160a01b031681565b6040516001600160a01b03909116815260200161033a565b34801561042957600080fd5b50601254610405906001600160a01b031681565b34801561044957600080fd5b50610385610458366004612b84565b610a73565b34801561046957600080fd5b506103c260135481565b34801561047f57600080fd5b506040516012815260200161033a565b34801561049b57600080fd5b5030610405565b3480156104ae57600080fd5b506103c2610a97565b3480156104c357600080fd5b506103856104d2366004612c33565b610aa6565b3480156104e357600080fd5b506103c26104f2366004612c33565b610ae5565b34801561050357600080fd5b506103c260155481565b34801561051957600080fd5b50600e54610405906001600160a01b031681565b34801561053957600080fd5b50610405610548366004612adf565b6001600160a01b039081166000908152600760205260409020541690565b34801561057257600080fd5b50600d54610405906001600160a01b031681565b34801561059257600080fd5b506103636105a1366004612adf565b610b5f565b3480156105b257600080fd5b50601154610405906001600160a01b031681565b3480156105d257600080fd5b50426103c2565b3480156105e557600080fd5b506103c260145481565b3480156105fb57600080fd5b5061060f61060a366004612adf565b610b6c565b60405163ffffffff909116815260200161033a565b34801561063057600080fd5b506103c261063f366004612adf565b6001600160a01b031660009081526020819052604090205490565b34801561066657600080fd5b50610363610b8e565b34801561067b57600080fd5b5061036361068a366004612adf565b610bf4565b34801561069b57600080fd5b50610363610c90565b3480156106b057600080fd5b506103c26106bf366004612adf565b610cf4565b3480156106d057600080fd5b506005546001600160a01b0316610405565b3480156106ee57600080fd5b506103c26106fd366004612cf0565b610d12565b34801561070e57600080fd5b50600f54610405906001600160a01b031681565b34801561072e57600080fd5b5061032d610d6e565b34801561074357600080fd5b506103c2610752366004612adf565b610d7d565b34801561076357600080fd5b506103c260195481565b34801561077957600080fd5b50610385610788366004612c33565b610e04565b34801561079957600080fd5b506103856107a8366004612c33565b610eae565b3480156107b957600080fd5b506103636107c8366004612adf565b61115b565b3480156107d957600080fd5b506103636107e8366004612c5f565b6111f4565b3480156107f957600080fd5b50601854610405906001600160a01b031681565b34801561081957600080fd5b50601054610405906001600160a01b031681565b34801561083957600080fd5b50610363610848366004612bc5565b61132a565b34801561085957600080fd5b506103c260165481565b34801561086f57600080fd5b5061038561087e366004612adf565b600a6020526000908152604090205460ff1681565b34801561089f57600080fd5b506103c26108ae366004612b56565b6001600160a01b03918216600090815260016020908152604080832093909416825291909152205490565b3480156108e557600080fd5b506103636108f4366004612b19565b61148e565b34801561090557600080fd5b50610919610914366004612cb9565b6115dc565b60408051825163ffffffff1681526020928301516001600160e01b0316928101929092520161033a565b34801561094f57600080fd5b5061036361095e366004612adf565b611660565b60606003805461097290612e7b565b80601f016020809104026020016040519081016040528092919081815260200182805461099e90612e7b565b80156109eb5780601f106109c0576101008083540402835291602001916109eb565b820191906000526020600020905b8154815290600101906020018083116109ce57829003601f168201915b5050505050905090565b6005546001600160a01b03163314610a545760405162461bcd60e51b815260206004820181905260248201527f4f776e61626c653a2063616c6c6572206973206e6f7420746865206f776e657260448201526064015b60405180910390fd5b601955565b600033610a67818585611a11565b60019150505b92915050565b600033610a81858285611b69565b610a8c858585611c13565b506001949350505050565b6000610aa1611e30565b905090565b3360008181526001602090815260408083206001600160a01b0387168452909152812054909190610a679082908690610ae0908790612ded565b611a11565b6000438210610b365760405162461bcd60e51b815260206004820152601f60248201527f4552433230566f7465733a20626c6f636b206e6f7420796574206d696e6564006044820152606401610a4b565b6001600160a01b0383166000908152600860205260409020610b589083611f57565b9392505050565b610b693382612014565b50565b6001600160a01b038116600090815260086020526040812054610a6d90611952565b6005546001600160a01b03163314610be85760405162461bcd60e51b815260206004820181905260248201527f4f776e61626c653a2063616c6c6572206973206e6f7420746865206f776e65726044820152606401610a4b565b610bf260006120a5565b565b6005546001600160a01b03163314610c4e5760405162461bcd60e51b815260206004820181905260248201527f4f776e61626c653a2063616c6c6572206973206e6f7420746865206f776e65726044820152606401610a4b565b6001600160a01b03166000908152600a6020526040902080547fffffffffffffffffffffffffffffffffffffffffffffffffffffffffffffff00166001179055565b6005546001600160a01b03163314610cea5760405162461bcd60e51b815260206004820181905260248201527f4f776e61626c653a2063616c6c6572206973206e6f7420746865206f776e65726044820152606401610a4b565b47610b698161210f565b6001600160a01b038116600090815260066020526040812054610a6d565b6000438210610d635760405162461bcd60e51b815260206004820152601f60248201527f4552433230566f7465733a20626c6f636b206e6f7420796574206d696e6564006044820152606401610a4b565b610a6d600983611f57565b60606004805461097290612e7b565b6001600160a01b0381166000908152600860205260408120548015610df1576001600160a01b0383166000908152600860205260409020610dbf600183612e64565b81548110610dcf57610dcf612edc565b60009182526020909120015464010000000090046001600160e01b0316610df4565b60005b6001600160e01b03169392505050565b3360008181526001602090815260408083206001600160a01b038716845290915281205490919083811015610ea15760405162461bcd60e51b815260206004820152602560248201527f45524332303a2064656372656173656420616c6c6f77616e63652062656c6f7760448201527f207a65726f0000000000000000000000000000000000000000000000000000006064820152608401610a4b565b610a8c8286868403611a11565b6018546000906001600160a01b0316336001600160a01b0316148015610ee45750336000908152600a602052604090205460ff16155b8015610f0957506001600160a01b0383166000908152600a602052604090205460ff16155b15610fe65760a6610f1960025490565b610f239190612e05565b82610f43856001600160a01b031660009081526020819052604090205490565b610f4d9190612ded565b10610fe65760405162461bcd60e51b815260206004820152604e60248201527f596f752063616e27742068617665206d6f7265207468616e203225206f66207460448201527f686520746f74616c204250445420737570706c7920616674657220612050616e60648201527f63616b655377617020737761702e000000000000000000000000000000000000608482015260a401610a4b565b336000908152600a602052604090205460ff168061101c57506001600160a01b0383166000908152600a602052604090205460ff165b156110355761102b8383610eae565b5060019050610a6d565b60006064601454846110479190612e27565b6110519190612e05565b905060006064601654856110659190612e27565b61106f9190612e05565b905060006064601554866110839190612e27565b61108d9190612e05565b905060008161109c8486612ded565b6110a69190612ded565b90506110b23082610eae565b50306000908152602081905260409020546018546001600160a01b031633148015906110de5750600081115b15611133578015611121576019546018546001600160a01b03166000908152602081905260409020546111119190612e05565b811115611121576111218161222d565b478015611131576111314761210f565b505b600061113f8389612e64565b905061114b8982610eae565b5060019998505050505050505050565b6005546001600160a01b031633146111b55760405162461bcd60e51b815260206004820181905260248201527f4f776e61626c653a2063616c6c6572206973206e6f7420746865206f776e65726044820152606401610a4b565b6001600160a01b03166000908152600a6020526040902080547fffffffffffffffffffffffffffffffffffffffffffffffffffffffffffffff00169055565b834211156112445760405162461bcd60e51b815260206004820152601d60248201527f4552433230566f7465733a207369676e617475726520657870697265640000006044820152606401610a4b565b604080517fe48329057bfd03d55e49b547132e39cffd9c1820ad7b9d4c5307691425d15adf60208201526001600160a01b0388169181019190915260608101869052608081018590526000906112be906112b69060a001604051602081830303815290604052805190602001206123c8565b858585612431565b90506112c981612459565b86146113175760405162461bcd60e51b815260206004820152601960248201527f4552433230566f7465733a20696e76616c6964206e6f6e6365000000000000006044820152606401610a4b565b6113218188612014565b50505050505050565b8342111561137a5760405162461bcd60e51b815260206004820152601d60248201527f45524332305065726d69743a206578706972656420646561646c696e650000006044820152606401610a4b565b60007f00000000000000000000000000000000000000000000000000000000000000008888886113a98c612459565b6040805160208101969096526001600160a01b0394851690860152929091166060840152608083015260a082015260c0810186905260e0016040516020818303038152906040528051906020012090506000611404826123c8565b9050600061141482878787612431565b9050896001600160a01b0316816001600160a01b0316146114775760405162461bcd60e51b815260206004820152601e60248201527f45524332305065726d69743a20696e76616c6964207369676e617475726500006044820152606401610a4b565b6114828a8a8a611a11565b50505050505050505050565b6005546001600160a01b031633146114e85760405162461bcd60e51b815260206004820181905260248201527f4f776e61626c653a2063616c6c6572206973206e6f7420746865206f776e65726044820152606401610a4b565b60008160028111156114fc576114fc612ec6565b141561153957601180547fffffffffffffffffffffffff0000000000000000000000000000000000000000166001600160a01b0384161790555050565b600281600281111561154d5761154d612ec6565b141561158a57601080547fffffffffffffffffffffffff0000000000000000000000000000000000000000166001600160a01b0384161790555050565b600181600281111561159e5761159e612ec6565b14156115d857600e80547fffffffffffffffffffffffff0000000000000000000000000000000000000000166001600160a01b0384161790555b5050565b60408051808201909152600080825260208201526001600160a01b0383166000908152600860205260409020805463ffffffff841690811061162057611620612edc565b60009182526020918290206040805180820190915291015463ffffffff8116825264010000000090046001600160e01b0316918101919091529392505050565b6005546001600160a01b031633146116ba5760405162461bcd60e51b815260206004820181905260248201527f4f776e61626c653a2063616c6c6572206973206e6f7420746865206f776e65726044820152606401610a4b565b6001600160a01b0381166117365760405162461bcd60e51b815260206004820152602660248201527f4f776e61626c653a206e6577206f776e657220697320746865207a65726f206160448201527f64647265737300000000000000000000000000000000000000000000000000006064820152608401610a4b565b610b69816120a5565b61174982826117dc565b6002546001600160e01b0310156117c85760405162461bcd60e51b815260206004820152603060248201527f4552433230566f7465733a20746f74616c20737570706c79207269736b73206f60448201527f766572666c6f77696e6720766f746573000000000000000000000000000000006064820152608401610a4b565b6117d660096118c383612481565b50505050565b6001600160a01b0382166118325760405162461bcd60e51b815260206004820152601f60248201527f45524332303a206d696e7420746f20746865207a65726f2061646472657373006044820152606401610a4b565b80600260008282546118449190612ded565b90915550506001600160a01b03821660009081526020819052604081208054839290611871908490612ded565b90915550506040518181526001600160a01b038316906000907fddf252ad1be2c89b69c2b068fc378daa952ba7f163c4a11628f55a4df523b3ef9060200160405180910390a36115d8600083836125fa565b6000610b588284612ded565b60006001600160e01b0382111561194e5760405162461bcd60e51b815260206004820152602760248201527f53616665436173743a2076616c756520646f65736e27742066697420696e203260448201527f32342062697473000000000000000000000000000000000000000000000000006064820152608401610a4b565b5090565b600063ffffffff82111561194e5760405162461bcd60e51b815260206004820152602660248201527f53616665436173743a2076616c756520646f65736e27742066697420696e203360448201527f32206269747300000000000000000000000000000000000000000000000000006064820152608401610a4b565b6001600160a01b03838116600090815260076020526040808220548584168352912054611a0092918216911683612675565b505050565b6000610b588284612e64565b6001600160a01b038316611a8c5760405162461bcd60e51b8152602060048201526024808201527f45524332303a20617070726f76652066726f6d20746865207a65726f2061646460448201527f72657373000000000000000000000000000000000000000000000000000000006064820152608401610a4b565b6001600160a01b038216611b085760405162461bcd60e51b815260206004820152602260248201527f45524332303a20617070726f766520746f20746865207a65726f20616464726560448201527f73730000000000000000000000000000000000000000000000000000000000006064820152608401610a4b565b6001600160a01b0383811660008181526001602090815260408083209487168084529482529182902085905590518481527f8c5be1e5ebec7d5bd14f71427d1e84f3dd0314c0f7b2291e5b200ac8c7c3b925910160405180910390a3505050565b6001600160a01b038381166000908152600160209081526040808320938616835292905220547fffffffffffffffffffffffffffffffffffffffffffffffffffffffffffffffff81146117d65781811015611c065760405162461bcd60e51b815260206004820152601d60248201527f45524332303a20696e73756666696369656e7420616c6c6f77616e63650000006044820152606401610a4b565b6117d68484848403611a11565b6001600160a01b038316611c8f5760405162461bcd60e51b815260206004820152602560248201527f45524332303a207472616e736665722066726f6d20746865207a65726f20616460448201527f64726573730000000000000000000000000000000000000000000000000000006064820152608401610a4b565b6001600160a01b038216611d0b5760405162461bcd60e51b815260206004820152602360248201527f45524332303a207472616e7366657220746f20746865207a65726f206164647260448201527f65737300000000000000000000000000000000000000000000000000000000006064820152608401610a4b565b6001600160a01b03831660009081526020819052604090205481811015611d9a5760405162461bcd60e51b815260206004820152602660248201527f45524332303a207472616e7366657220616d6f756e742065786365656473206260448201527f616c616e636500000000000000000000000000000000000000000000000000006064820152608401610a4b565b6001600160a01b03808516600090815260208190526040808220858503905591851681529081208054849290611dd1908490612ded565b92505081905550826001600160a01b0316846001600160a01b03167fddf252ad1be2c89b69c2b068fc378daa952ba7f163c4a11628f55a4df523b3ef84604051611e1d91815260200190565b60405180910390a36117d68484846125fa565b6000306001600160a01b037f000000000000000000000000000000000000000000000000000000000000000016148015611e8957507f000000000000000000000000000000000000000000000000000000000000000046145b15611eb357507f000000000000000000000000000000000000000000000000000000000000000090565b50604080517f00000000000000000000000000000000000000000000000000000000000000006020808301919091527f0000000000000000000000000000000000000000000000000000000000000000828401527f000000000000000000000000000000000000000000000000000000000000000060608301524660808301523060a0808401919091528351808403909101815260c0909201909252805191012090565b8154600090815b81811015611fbb576000611f7282846127b2565b905084868281548110611f8757611f87612edc565b60009182526020909120015463ffffffff161115611fa757809250611fb5565b611fb2816001612ded565b91505b50611f5e565b8115611fff5784611fcd600184612e64565b81548110611fdd57611fdd612edc565b60009182526020909120015464010000000090046001600160e01b0316612002565b60005b6001600160e01b031695945050505050565b6001600160a01b038281166000818152600760208181526040808420805485845282862054949093528787167fffffffffffffffffffffffff00000000000000000000000000000000000000008416811790915590519190951694919391928592917f3134e8a2e6d97e929a7e54011ea5485d7d196dd5f0ba4d4ef95803e8e3fc257f9190a46117d6828483612675565b600580546001600160a01b038381167fffffffffffffffffffffffff0000000000000000000000000000000000000000831681179093556040519116919082907f8be0079c531659141344cd1fd0a4f28419497f9722a3daafe3b4186f6b6457e090600090a35050565b60006015546016546014546121249190612ded565b61212e9190612ded565b600e546014549192506001600160a01b0316906108fc9083906121519086612e27565b61215b9190612e05565b6040518115909202916000818181858888f19350505050158015612183573d6000803e3d6000fd5b506010546016546001600160a01b03909116906108fc9083906121a69086612e27565b6121b09190612e05565b6040518115909202916000818181858888f193505050501580156121d8573d6000803e3d6000fd5b506011546015546001600160a01b03909116906108fc9083906121fb9086612e27565b6122059190612e05565b6040518115909202916000818181858888f19350505050158015611a00573d6000803e3d6000fd5b604080516002808252606082018352600092602083019080368337019050509050308160008151811061226257612262612edc565b6001600160a01b03928316602091820292909201810191909152601754604080517fad5c46480000000000000000000000000000000000000000000000000000000081529051919093169263ad5c4648926004808301939192829003018186803b1580156122cf57600080fd5b505afa1580156122e3573d6000803e3d6000fd5b505050506040513d601f19601f820116820180604052508101906123079190612afc565b8160018151811061231a5761231a612edc565b6001600160a01b0392831660209182029290920101526017546123409130911684611a11565b6017546040517f791ac9470000000000000000000000000000000000000000000000000000000081526001600160a01b039091169063791ac94790612392908590600090869030904290600401612d7c565b600060405180830381600087803b1580156123ac57600080fd5b505af11580156123c0573d6000803e3d6000fd5b505050505050565b6000610a6d6123d5611e30565b836040517f19010000000000000000000000000000000000000000000000000000000000006020820152602281018390526042810182905260009060620160405160208183030381529060405280519060200120905092915050565b6000806000612442878787876127cd565b9150915061244f816128d8565b5095945050505050565b6001600160a01b03811660009081526006602052604090208054600181018255905b50919050565b8254600090819080156124cc578561249a600183612e64565b815481106124aa576124aa612edc565b60009182526020909120015464010000000090046001600160e01b03166124cf565b60005b6001600160e01b031692506124e883858763ffffffff16565b915060008111801561252657504386612502600184612e64565b8154811061251257612512612edc565b60009182526020909120015463ffffffff16145b1561258657612534826118cf565b86612540600184612e64565b8154811061255057612550612edc565b9060005260206000200160000160046101000a8154816001600160e01b0302191690836001600160e01b031602179055506125f1565b85604051806040016040528061259b43611952565b63ffffffff1681526020016125af856118cf565b6001600160e01b0390811690915282546001810184556000938452602093849020835194909301519091166401000000000263ffffffff909316929092179101555b50935093915050565b6001600160a01b03821660009081526020818152604080832054600b9092529091205481906126298483612e64565b6126339190612e27565b61263d4285612e27565b6126479190612ded565b6126519190612e05565b6001600160a01b0384166000908152600b60205260409020556117d68484846119ce565b816001600160a01b0316836001600160a01b0316141580156126975750600081115b15611a00576001600160a01b03831615612725576001600160a01b038316600090815260086020526040812081906126d290611a0585612481565b91509150846001600160a01b03167fdec2bacdd2f05b59de34da9b523dff8be42e5e38e818c82fdb0bae774387a724838360405161271a929190918252602082015260400190565b60405180910390a250505b6001600160a01b03821615611a00576001600160a01b0382166000908152600860205260408120819061275b906118c385612481565b91509150836001600160a01b03167fdec2bacdd2f05b59de34da9b523dff8be42e5e38e818c82fdb0bae774387a72483836040516127a3929190918252602082015260400190565b60405180910390a25050505050565b60006127c16002848418612e05565b610b5890848416612ded565b6000807f7fffffffffffffffffffffffffffffff5d576e7357a4501ddfe92f46681b20a083111561280457506000905060036128cf565b8460ff16601b1415801561281c57508460ff16601c14155b1561282d57506000905060046128cf565b6040805160008082526020820180845289905260ff881692820192909252606081018690526080810185905260019060a0016020604051602081039080840390855afa158015612881573d6000803e3d6000fd5b50506040517fffffffffffffffffffffffffffffffffffffffffffffffffffffffffffffffe001519150506001600160a01b0381166128c8576000600192509250506128cf565b9150600090505b94509492505050565b60008160048111156128ec576128ec612ec6565b14156128f55750565b600181600481111561290957612909612ec6565b14156129575760405162461bcd60e51b815260206004820152601860248201527f45434453413a20696e76616c6964207369676e617475726500000000000000006044820152606401610a4b565b600281600481111561296b5761296b612ec6565b14156129b95760405162461bcd60e51b815260206004820152601f60248201527f45434453413a20696e76616c6964207369676e6174757265206c656e677468006044820152606401610a4b565b60038160048111156129cd576129cd612ec6565b1415612a415760405162461bcd60e51b815260206004820152602260248201527f45434453413a20696e76616c6964207369676e6174757265202773272076616c60448201527f75650000000000000000000000000000000000000000000000000000000000006064820152608401610a4b565b6004816004811115612a5557612a55612ec6565b1415610b695760405162461bcd60e51b815260206004820152602260248201527f45434453413a20696e76616c6964207369676e6174757265202776272076616c60448201527f75650000000000000000000000000000000000000000000000000000000000006064820152608401610a4b565b803560ff81168114612ada57600080fd5b919050565b600060208284031215612af157600080fd5b8135610b5881612ef2565b600060208284031215612b0e57600080fd5b8151610b5881612ef2565b60008060408385031215612b2c57600080fd5b8235612b3781612ef2565b9150602083013560038110612b4b57600080fd5b809150509250929050565b60008060408385031215612b6957600080fd5b8235612b7481612ef2565b91506020830135612b4b81612ef2565b600080600060608486031215612b9957600080fd5b8335612ba481612ef2565b92506020840135612bb481612ef2565b929592945050506040919091013590565b600080600080600080600060e0888a031215612be057600080fd5b8735612beb81612ef2565b96506020880135612bfb81612ef2565b95506040880135945060608801359350612c1760808901612ac9565b925060a0880135915060c0880135905092959891949750929550565b60008060408385031215612c4657600080fd5b8235612c5181612ef2565b946020939093013593505050565b60008060008060008060c08789031215612c7857600080fd5b8635612c8381612ef2565b95506020870135945060408701359350612c9f60608801612ac9565b92506080870135915060a087013590509295509295509295565b60008060408385031215612ccc57600080fd5b8235612cd781612ef2565b9150602083013563ffffffff81168114612b4b57600080fd5b600060208284031215612d0257600080fd5b5035919050565b600060208083528351808285015260005b81811015612d3657858101830151858201604001528201612d1a565b81811115612d48576000604083870101525b50601f017fffffffffffffffffffffffffffffffffffffffffffffffffffffffffffffffe016929092016040019392505050565b600060a082018783526020878185015260a0604085015281875180845260c086019150828901935060005b81811015612dcc5784516001600160a01b031683529383019391830191600101612da7565b50506001600160a01b03969096166060850152505050608001529392505050565b60008219821115612e0057612e00612eb0565b500190565b600082612e2257634e487b7160e01b600052601260045260246000fd5b500490565b6000817fffffffffffffffffffffffffffffffffffffffffffffffffffffffffffffffff0483118215151615612e5f57612e5f612eb0565b500290565b600082821015612e7657612e76612eb0565b500390565b600181811c90821680612e8f57607f821691505b6020821081141561247b57634e487b7160e01b600052602260045260246000fd5b634e487b7160e01b600052601160045260246000fd5b634e487b7160e01b600052602160045260246000fd5b634e487b7160e01b600052603260045260246000fd5b6001600160a01b0381168114610b6957600080fdfea2646970667358221220208533833817a31d6e15ecf4a4cf0eb98353c4dc92ae53bdd2e744716c27ca8364736f6c63430008070033dec2bacdd2f05b59de34da9b523dff8be42e5e38e818c82fdb0bae774387a724",
  "linkReferences": {},
  "deployedLinkReferences": {}
}