{
  "_format": "hh-sol-artifact-1",
  "contractName": "DAOFactory",
  "sourceName": "contracts/DAOFactory.sol",
  "abi": [
    {
      "inputs": [],
      "stateMutability": "nonpayable",
      "type": "constructor"
    },
    {
      "anonymous": false,
      "inputs": [
        {
          "indexed": false,
          "internalType": "address",
          "name": "daoAddress",
          "type": "address"
        },
        {
          "indexed": false,
          "internalType": "address",
          "name": "tokenAddress",
          "type": "address"
        },
        {
          "indexed": false,
          "internalType": "address",
          "name": "governorAddress",
          "type": "address"
        }
      ],
      "name": "NewDAO",
      "type": "event"
    },
    {
      "inputs": [
        {
          "internalType": "uint256",
          "name": "",
          "type": "uint256"
        }
      ],
      "name": "DAOs",
      "outputs": [
        {
          "internalType": "address",
          "name": "",
          "type": "address"
        }
      ],
      "stateMutability": "view",
      "type": "function"
    },
    {
      "inputs": [],
      "name": "daoCounter",
      "outputs": [
        {
          "internalType": "uint256",
          "name": "_value",
          "type": "uint256"
        }
      ],
      "stateMutability": "view",
      "type": "function"
    },
    {
      "inputs": [
        {
          "internalType": "string",
          "name": "_daoName",
          "type": "string"
        },
        {
          "internalType": "string",
          "name": "_tokenName",
          "type": "string"
        },
        {
          "internalType": "string",
          "name": "_tokenSymbol",
          "type": "string"
        },
        {
          "internalType": "uint256",
          "name": "_initialSupply",
          "type": "uint256"
        },
        {
          "components": [
            {
              "internalType": "address",
              "name": "_airDropContractAddress",
              "type": "address"
            },
            {
              "internalType": "address",
              "name": "_burnWalletAddress",
              "type": "address"
            },
            {
              "internalType": "address",
              "name": "_liquidityWalletAddress",
              "type": "address"
            },
            {
              "internalType": "address payable",
              "name": "_realEstateWalletAddress",
              "type": "address"
            },
            {
              "internalType": "address payable",
              "name": "_marketingWalletAddress",
              "type": "address"
            },
            {
              "internalType": "address payable",
              "name": "_developerWalletAddress",
              "type": "address"
            }
          ],
          "internalType": "struct SharedStructs.addresses",
          "name": "_addresses",
          "type": "tuple"
        },
        {
          "internalType": "address",
          "name": "_uniswapRouterAddress",
          "type": "address"
        },
        {
          "components": [
            {
              "internalType": "uint256",
              "name": "airdropPercent",
              "type": "uint256"
            },
            {
              "internalType": "uint256",
              "name": "liquidityPoolPercent",
              "type": "uint256"
            },
            {
              "internalType": "uint256",
              "name": "burnPercent",
              "type": "uint256"
            },
            {
              "internalType": "uint256",
              "name": "developerPercent",
              "type": "uint256"
            },
            {
              "internalType": "uint256",
              "name": "marketingPercent",
              "type": "uint256"
            }
          ],
          "internalType": "struct SharedStructs.percentages",
          "name": "_percentages",
          "type": "tuple"
        }
      ],
      "name": "launchDAO",
      "outputs": [
        {
          "internalType": "address",
          "name": "",
          "type": "address"
        },
        {
          "internalType": "address",
          "name": "",
          "type": "address"
        },
        {
          "internalType": "address",
          "name": "",
          "type": "address"
        }
      ],
      "stateMutability": "payable",
      "type": "function"
    }
  ],
  "bytecode": "0x608060405234801561001057600080fd5b5061a903806100206000396000f3fe608060405260043610620000385760003560e01c806319c6ca7e146200003d578063233c8f761462000083578063f80efd2814620000c1575b600080fd5b620000546200004e3660046200060b565b620000e9565b604080516001600160a01b03948516815292841660208401529216918101919091526060015b60405180910390f35b3480156200009057600080fd5b50620000a8620000a236600462000771565b62000474565b6040516001600160a01b0390911681526020016200007a565b348015620000ce57600080fd5b50600154620000da9081565b6040519081526020016200007a565b60008060008089898989600001518a602001518b604001518c606001518d608001518e60a001518e8e60405162000120906200049f565b620001369b9a999897969594939291906200083d565b604051809103906000f08015801562000153573d6000803e3d6000fd5b50905060008b826040516200016890620004ad565b6200017592919062000810565b604051809103906000f08015801562000192573d6000803e3d6000fd5b50905060008c8284604051620001a890620004bb565b620001b693929190620007db565b604051809103906000f080158015620001d3573d6000803e3d6000fd5b5090507fd8c9398bdca087c664bf785f29e26f224e8ac9f8331d9f005dcd26e3489e469881826001600160a01b031663b42165d06040518163ffffffff1660e01b815260040160206040518083038186803b1580156200023257600080fd5b505afa15801562000247573d6000803e3d6000fd5b505050506040513d601f19601f820116820180604052508101906200026d9190620005e4565b836001600160a01b031663276f1c416040518163ffffffff1660e01b815260040160206040518083038186803b158015620002a757600080fd5b505afa158015620002bc573d6000803e3d6000fd5b505050506040513d601f19601f82011682018060405250810190620002e29190620005e4565b604080516001600160a01b039485168152928416602084015292168183015290519081900360600190a160008054600180820183559180527f290decd9548b62a8d60345a988386fc84ba6bc95484008f6362f93160ef3e5630180547fffffffffffffffffffffffff0000000000000000000000000000000000000000166001600160a01b03841617905580548101905580816001600160a01b031663b42165d06040518163ffffffff1660e01b815260040160206040518083038186803b158015620003ae57600080fd5b505afa158015620003c3573d6000803e3d6000fd5b505050506040513d601f19601f82011682018060405250810190620003e99190620005e4565b826001600160a01b031663276f1c416040518163ffffffff1660e01b815260040160206040518083038186803b1580156200042357600080fd5b505afa15801562000438573d6000803e3d6000fd5b505050506040513d601f19601f820116820180604052508101906200045e9190620005e4565b9550955095505050509750975097945050505050565b600081815481106200048557600080fd5b6000918252602090912001546001600160a01b0316905081565b614014806200096e83390190565b612fd0806200498283390190565b612f7c806200795283390190565b8035620004d68162000954565b919050565b600082601f830112620004ed57600080fd5b813567ffffffffffffffff808211156200050b576200050b62000925565b604051601f8301601f19908116603f0116810190828211818310171562000536576200053662000925565b816040528381528660208588010111156200055057600080fd5b836020870160208301376000602085830101528094505050505092915050565b600060a082840312156200058357600080fd5b60405160a0810181811067ffffffffffffffff82111715620005a957620005a962000925565b806040525080915082358152602083013560208201526040830135604082015260608301356060820152608083013560808201525092915050565b600060208284031215620005f757600080fd5b8151620006048162000954565b9392505050565b60008060008060008060008789036102008112156200062957600080fd5b883567ffffffffffffffff808211156200064257600080fd5b620006508c838d01620004db565b995060208b01359150808211156200066757600080fd5b620006758c838d01620004db565b985060408b01359150808211156200068c57600080fd5b506200069b8b828c01620004db565b9650506060890135945060c0607f1982011215620006b857600080fd5b50620006c3620008f9565b6080890135620006d38162000954565b815260a0890135620006e58162000954565b602082015260c0890135620006fa8162000954565b604082015260e08901356200070f8162000954565b6060820152610100890135620007258162000954565b60808201526101208901356200073b8162000954565b60a08201529250620007516101408901620004c9565b915062000763896101608a0162000570565b905092959891949750929550565b6000602082840312156200078457600080fd5b5035919050565b6000815180845260005b81811015620007b35760208185018101518683018201520162000795565b81811115620007c6576000602083870101525b50601f01601f19169290920160200192915050565b606081526000620007f060608301866200078b565b6001600160a01b0394851660208401529290931660409091015292915050565b6040815260006200082560408301856200078b565b90506001600160a01b03831660208301529392505050565b60006101e0808352620008538184018f6200078b565b9050828103602084015262000869818e6200078b565b9150508a60408301526001600160a01b03808b166060840152808a16608084015280891660a084015280881660c084015280871660e08401528086166101008401528085166101208401525082516101408301526020830151610160830152604083015161018083015260608301516101a083015260808301516101c08301529c9b505050505050505050505050565b60405160c0810167ffffffffffffffff811182821017156200091f576200091f62000925565b60405290565b7f4e487b7100000000000000000000000000000000000000000000000000000000600052604160045260246000fd5b6001600160a01b03811681146200096a57600080fd5b5056fe6101606040527f6e71edae12b1b97f4d1f60370fef10105fa2faae0126114a169c64845d6126c9610140526003601455600160158190556016556103e86019553480156200004c57600080fd5b5060405162004014380380620040148339810160408190526200006f9162000f63565b8a80604051806040016040528060018152602001603160f81b8152508d8d8160039080519060200190620000a592919062000d69565b508051620000bb90600490602084019062000d69565b505050620000d8620000d26200056360201b60201c565b62000567565b815160208084019190912082518383012060e08290526101008190524660a0818152604080517f8b73c3c69bb8fe3d512ecc4cf759cc79239f7b179b0ffacaa9a75d522b39400f81880181905281830187905260608201869052608082019490945230818401528151808203909301835260c00190528051940193909320919290916080523060601b60c052610120525050426013555050600c80546001600160a01b03199081166001600160a01b038c8116919091178355600e805483168a8316908117909155600d805484168d8416179055600f805484168c84161781556010805485168b85161781556011805486168b8616178155601280549096168a8616179095556000928352600a6020526040808420805460ff1990811660019081179092559654861685528185208054881682179055915485168452808420805487168317905591548416835281832080548616821790558554841683529120805490931617909155905483516200026f93509116906064906200025d908d620010e7565b620002699190620010c4565b620005b9565b600f54602082015162000295916001600160a01b0316906064906200025d908d620010e7565b600d546040820151620002bb916001600160a01b0316906064906200025d908d620010e7565b6010546080820151620002e1916001600160a01b0316906064906200025d908d620010e7565b601154606082015162000307916001600160a01b0316906064906200025d908d620010e7565b601254601780546001600160a01b0319166001600160a01b0390921691821790556200033530828c620005d4565b806001600160a01b031663c45a01556040518163ffffffff1660e01b815260040160206040518083038186803b1580156200036f57600080fd5b505afa15801562000384573d6000803e3d6000fd5b505050506040513d601f19601f82011682018060405250810190620003aa919062000f1f565b6001600160a01b031663c9c6539630836001600160a01b031663ad5c46486040518163ffffffff1660e01b815260040160206040518083038186803b158015620003f357600080fd5b505afa15801562000408573d6000803e3d6000fd5b505050506040513d601f19601f820116820180604052508101906200042e919062000f1f565b6040516001600160e01b031960e085901b1681526001600160a01b03928316600482015291166024820152604401602060405180830381600087803b1580156200047757600080fd5b505af11580156200048c573d6000803e3d6000fd5b505050506040513d601f19601f82011682018060405250810190620004b2919062000f1f565b601880546001600160a01b0319166001600160a01b0392831690811790915560175460405163095ea7b360e01b81529216600483015260001960248301529063095ea7b390604401602060405180830381600087803b1580156200051557600080fd5b505af11580156200052a573d6000803e3d6000fd5b505050506040513d601f19601f8201168201806040525081019062000550919062000f3f565b50505050505050505050505050620011bb565b3390565b600580546001600160a01b038381166001600160a01b0319831681179093556040519116919082907f8be0079c531659141344cd1fd0a4f28419497f9722a3daafe3b4186f6b6457e090600090a35050565b620005d082826200070060201b620016bb1760201c565b5050565b6001600160a01b0383166200063c5760405162461bcd60e51b8152602060048201526024808201527f45524332303a20617070726f76652066726f6d20746865207a65726f206164646044820152637265737360e01b60648201526084015b60405180910390fd5b6001600160a01b0382166200069f5760405162461bcd60e51b815260206004820152602260248201527f45524332303a20617070726f766520746f20746865207a65726f206164647265604482015261737360f01b606482015260840162000633565b6001600160a01b0383811660008181526001602090815260408083209487168084529482529182902085905590518481527f8c5be1e5ebec7d5bd14f71427d1e84f3dd0314c0f7b2291e5b200ac8c7c3b925910160405180910390a3505050565b620007178282620007b360201b620017581760201c565b6001600160e01b036200072b620008a28216565b1115620007945760405162461bcd60e51b815260206004820152603060248201527f4552433230566f7465733a20746f74616c20737570706c79207269736b73206f60448201526f766572666c6f77696e6720766f74657360801b606482015260840162000633565b620007ad60096200183f620008a860201b1783620008bd565b50505050565b6001600160a01b0382166200080b5760405162461bcd60e51b815260206004820152601f60248201527f45524332303a206d696e7420746f20746865207a65726f206164647265737300604482015260640162000633565b80600260008282546200081f9190620010a9565b90915550506001600160a01b038216600090815260208190526040812080548392906200084e908490620010a9565b90915550506040518181526001600160a01b038316906000907fddf252ad1be2c89b69c2b068fc378daa952ba7f163c4a11628f55a4df523b3ef9060200160405180910390a3620005d06000838362000a74565b60025490565b6000620008b68284620010a9565b9392505050565b8254600090819080156200090f5785620008d960018362001109565b81548110620008ec57620008ec62001176565b60009182526020909120015464010000000090046001600160e01b031662000912565b60005b6001600160e01b031692506200092983858760201c565b91506000811180156200096d575043866200094660018462001109565b8154811062000959576200095962001176565b60009182526020909120015463ffffffff16145b15620009e157620009898262000b1660201b6200184b1760201c565b866200099760018462001109565b81548110620009aa57620009aa62001176565b9060005260206000200160000160046101000a8154816001600160e01b0302191690836001600160e01b0316021790555062000a66565b85604051806040016040528062000a034362000b8560201b620018ce1760201c565b63ffffffff16815260200162000a248562000b1660201b6200184b1760201c565b6001600160e01b0390811690915282546001810184556000938452602093849020835194909301519091166401000000000263ffffffff909316929092179101555b50935093915050565b505050565b6001600160a01b03821660009081526020818152604080832054600b90925290912054819062000aa5848362001109565b62000ab19190620010e7565b62000abd4285620010e7565b62000ac99190620010a9565b62000ad59190620010c4565b600b6000856001600160a01b03166001600160a01b0316815260200190815260200160002081905550620007ad84848462000bec60201b6200194a1760201c565b60006001600160e01b0382111562000b815760405162461bcd60e51b815260206004820152602760248201527f53616665436173743a2076616c756520646f65736e27742066697420696e20326044820152663234206269747360c81b606482015260840162000633565b5090565b600063ffffffff82111562000b815760405162461bcd60e51b815260206004820152602660248201527f53616665436173743a2076616c756520646f65736e27742066697420696e203360448201526532206269747360d01b606482015260840162000633565b62000c0483838362000a6f60201b6200197c1760201c565b6001600160a01b0383811660009081526007602052604080822054858416835291205462000a6f9291821691168381831480159062000c435750600081115b1562000a6f576001600160a01b0383161562000cd0576001600160a01b03831660009081526008602090815260408220829162000c8d919062000d5b901b620019811785620008bd565b91509150846001600160a01b031660008051602062003ff4833981519152838360405162000cc5929190918252602082015260400190565b60405180910390a250505b6001600160a01b0382161562000a6f576001600160a01b03821660009081526008602090815260408220829162000d149190620008a8901b6200183f1785620008bd565b91509150836001600160a01b031660008051602062003ff4833981519152838360405162000d4c929190918252602082015260400190565b60405180910390a25050505050565b6000620008b6828462001109565b82805462000d779062001123565b90600052602060002090601f01602090048101928262000d9b576000855562000de6565b82601f1062000db657805160ff191683800117855562000de6565b8280016001018555821562000de6579182015b8281111562000de657825182559160200191906001019062000dc9565b5062000b819291505b8082111562000b81576000815560010162000def565b805162000e1281620011a2565b919050565b600082601f83011262000e2957600080fd5b81516001600160401b0381111562000e455762000e456200118c565b602062000e5b601f8301601f1916820162001076565b828152858284870101111562000e7057600080fd5b60005b8381101562000e9057858101830151828201840152820162000e73565b8381111562000ea25760008385840101525b5095945050505050565b600060a0828403121562000ebf57600080fd5b60405160a081016001600160401b038111828210171562000ee45762000ee46200118c565b806040525080915082518152602083015160208201526040830151604082015260608301516060820152608083015160808201525092915050565b60006020828403121562000f3257600080fd5b8151620008b681620011a2565b60006020828403121562000f5257600080fd5b81518015158114620008b657600080fd5b60008060008060008060008060008060006101e08c8e03121562000f8657600080fd5b8b516001600160401b0381111562000f9d57600080fd5b62000fab8e828f0162000e17565b60208e0151909c5090506001600160401b0381111562000fca57600080fd5b62000fd88e828f0162000e17565b9a505060408c0151985062000ff060608d0162000e05565b97506200100060808d0162000e05565b96506200101060a08d0162000e05565b95506200102060c08d0162000e05565b94506200103060e08d0162000e05565b9350620010416101008d0162000e05565b9250620010526101208d0162000e05565b9150620010648d6101408e0162000eac565b90509295989b509295989b9093969950565b604051601f8201601f191681016001600160401b0381118282101715620010a157620010a16200118c565b604052919050565b60008219821115620010bf57620010bf62001160565b500190565b600082620010e257634e487b7160e01b600052601260045260246000fd5b500490565b600081600019048311821515161562001104576200110462001160565b500290565b6000828210156200111e576200111e62001160565b500390565b600181811c908216806200113857607f821691505b602082108114156200115a57634e487b7160e01b600052602260045260246000fd5b50919050565b634e487b7160e01b600052601160045260246000fd5b634e487b7160e01b600052603260045260246000fd5b634e487b7160e01b600052604160045260246000fd5b6001600160a01b0381168114620011b857600080fd5b50565b60805160a05160c05160601c60e051610100516101205161014051612ddb62001219600039600061134201526000611e1801526000611e6701526000611e4201526000611d9b01526000611dc501526000611def0152612ddb6000f3fe60806040526004361061030c5760003560e01c806370a082311161019a578063a9059cbb116100e1578063da6fa55c1161008a578063e5c392c311610064578063e5c392c3146108d9578063f1127ed8146108f9578063f2fde38b1461094357600080fd5b8063da6fa55c1461084d578063dbe66ca014610863578063dd62ed3e1461089357600080fd5b8063c816841b116100bb578063c816841b146107ed578063d158272d1461080d578063d505accf1461082d57600080fd5b8063a9059cbb1461078d578063bbeaa1f8146107ad578063c3cda520146107cd57600080fd5b80638e539e8c116101435780639ab24eb01161011d5780639ab24eb014610737578063a0c0b80b14610757578063a457c2d71461076d57600080fd5b80638e539e8c146106e25780638eb83f251461070257806395d89b411461072257600080fd5b80637c13efd4116101745780637c13efd41461068f5780637ecebe00146106a45780638da5cb5b146106c457600080fd5b806370a0823114610624578063715018a61461065a57806378c1d2451461066f57600080fd5b80633644e5151161025e5780635b3c1da1116102075780636c9230db116101e15780636c9230db146105c65780636e2b0e47146105d95780636fcfff45146105ef57600080fd5b80635b3c1da1146105665780635c19a95c1461058657806361eb048a146105a657600080fd5b80634fcd1285116102385780634fcd1285146104f7578063502f91ec1461050d578063587cde1e1461052d57600080fd5b80633644e515146104a257806339509351146104b75780633a46b1a8146104d757600080fd5b80631ba7f00f116102c05780632fb47be41161029a5780632fb47be41461045d578063313ce5671461047357806332a2c5d01461048f57600080fd5b80631ba7f00f146103e557806320ca3c7f1461041d57806323b872dd1461043d57600080fd5b8063095ea7b3116102f1578063095ea7b3146103655780631497b01b1461039557806318160ddd146103d057600080fd5b806306fdde03146103185780630952b28b1461034357600080fd5b3661031357005b600080fd5b34801561032457600080fd5b5061032d610963565b60405161033a9190612be3565b60405180910390f35b34801561034f57600080fd5b5061036361035e366004612bca565b6109f5565b005b34801561037157600080fd5b50610385610380366004612b0d565b610a59565b604051901515815260200161033a565b3480156103a157600080fd5b506103c26103b03660046129b9565b600b6020526000908152604090205481565b60405190815260200161033a565b3480156103dc57600080fd5b506002546103c2565b3480156103f157600080fd5b50600c54610405906001600160a01b031681565b6040516001600160a01b03909116815260200161033a565b34801561042957600080fd5b50601254610405906001600160a01b031681565b34801561044957600080fd5b50610385610458366004612a5e565b610a73565b34801561046957600080fd5b506103c260135481565b34801561047f57600080fd5b506040516012815260200161033a565b34801561049b57600080fd5b5030610405565b3480156104ae57600080fd5b506103c2610a97565b3480156104c357600080fd5b506103856104d2366004612b0d565b610aa6565b3480156104e357600080fd5b506103c26104f2366004612b0d565b610ae5565b34801561050357600080fd5b506103c260155481565b34801561051957600080fd5b50600e54610405906001600160a01b031681565b34801561053957600080fd5b506104056105483660046129b9565b6001600160a01b039081166000908152600760205260409020541690565b34801561057257600080fd5b50600d54610405906001600160a01b031681565b34801561059257600080fd5b506103636105a13660046129b9565b610b5f565b3480156105b257600080fd5b50601154610405906001600160a01b031681565b3480156105d257600080fd5b50426103c2565b3480156105e557600080fd5b506103c260145481565b3480156105fb57600080fd5b5061060f61060a3660046129b9565b610b6c565b60405163ffffffff909116815260200161033a565b34801561063057600080fd5b506103c261063f3660046129b9565b6001600160a01b031660009081526020819052604090205490565b34801561066657600080fd5b50610363610b8e565b34801561067b57600080fd5b5061036361068a3660046129b9565b610bf4565b34801561069b57600080fd5b50610363610c72565b3480156106b057600080fd5b506103c26106bf3660046129b9565b610cd6565b3480156106d057600080fd5b506005546001600160a01b0316610405565b3480156106ee57600080fd5b506103c26106fd366004612bca565b610cf4565b34801561070e57600080fd5b50600f54610405906001600160a01b031681565b34801561072e57600080fd5b5061032d610d50565b34801561074357600080fd5b506103c26107523660046129b9565b610d5f565b34801561076357600080fd5b506103c260195481565b34801561077957600080fd5b50610385610788366004612b0d565b610de6565b34801561079957600080fd5b506103856107a8366004612b0d565b610e90565b3480156107b957600080fd5b506103636107c83660046129b9565b61113d565b3480156107d957600080fd5b506103636107e8366004612b39565b6111b8565b3480156107f957600080fd5b50601854610405906001600160a01b031681565b34801561081957600080fd5b50601054610405906001600160a01b031681565b34801561083957600080fd5b50610363610848366004612a9f565b6112ee565b34801561085957600080fd5b506103c260165481565b34801561086f57600080fd5b5061038561087e3660046129b9565b600a6020526000908152604090205460ff1681565b34801561089f57600080fd5b506103c26108ae366004612a30565b6001600160a01b03918216600090815260016020908152604080832093909416825291909152205490565b3480156108e557600080fd5b506103636108f43660046129f3565b611452565b34801561090557600080fd5b50610919610914366004612b93565b611558565b60408051825163ffffffff1681526020928301516001600160e01b0316928101929092520161033a565b34801561094f57600080fd5b5061036361095e3660046129b9565b6115dc565b60606003805461097290612d19565b80601f016020809104026020016040519081016040528092919081815260200182805461099e90612d19565b80156109eb5780601f106109c0576101008083540402835291602001916109eb565b820191906000526020600020905b8154815290600101906020018083116109ce57829003601f168201915b5050505050905090565b6005546001600160a01b03163314610a545760405162461bcd60e51b815260206004820181905260248201527f4f776e61626c653a2063616c6c6572206973206e6f7420746865206f776e657260448201526064015b60405180910390fd5b601955565b600033610a6781858561198d565b60019150505b92915050565b600033610a81858285611ae5565b610a8c858585611b71565b506001949350505050565b6000610aa1611d8e565b905090565b3360008181526001602090815260408083206001600160a01b0387168452909152812054909190610a679082908690610ae0908790612ca9565b61198d565b6000438210610b365760405162461bcd60e51b815260206004820152601f60248201527f4552433230566f7465733a20626c6f636b206e6f7420796574206d696e6564006044820152606401610a4b565b6001600160a01b0383166000908152600860205260409020610b589083611eb5565b9392505050565b610b693382611f72565b50565b6001600160a01b038116600090815260086020526040812054610a6d906118ce565b6005546001600160a01b03163314610be85760405162461bcd60e51b815260206004820181905260248201527f4f776e61626c653a2063616c6c6572206973206e6f7420746865206f776e65726044820152606401610a4b565b610bf26000611feb565b565b6005546001600160a01b03163314610c4e5760405162461bcd60e51b815260206004820181905260248201527f4f776e61626c653a2063616c6c6572206973206e6f7420746865206f776e65726044820152606401610a4b565b6001600160a01b03166000908152600a60205260409020805460ff19166001179055565b6005546001600160a01b03163314610ccc5760405162461bcd60e51b815260206004820181905260248201527f4f776e61626c653a2063616c6c6572206973206e6f7420746865206f776e65726044820152606401610a4b565b47610b698161203d565b6001600160a01b038116600090815260066020526040812054610a6d565b6000438210610d455760405162461bcd60e51b815260206004820152601f60248201527f4552433230566f7465733a20626c6f636b206e6f7420796574206d696e6564006044820152606401610a4b565b610a6d600983611eb5565b60606004805461097290612d19565b6001600160a01b0381166000908152600860205260408120548015610dd3576001600160a01b0383166000908152600860205260409020610da1600183612d02565b81548110610db157610db1612d7a565b60009182526020909120015464010000000090046001600160e01b0316610dd6565b60005b6001600160e01b03169392505050565b3360008181526001602090815260408083206001600160a01b038716845290915281205490919083811015610e835760405162461bcd60e51b815260206004820152602560248201527f45524332303a2064656372656173656420616c6c6f77616e63652062656c6f7760448201527f207a65726f0000000000000000000000000000000000000000000000000000006064820152608401610a4b565b610a8c828686840361198d565b6018546000906001600160a01b0316336001600160a01b0316148015610ec65750336000908152600a602052604090205460ff16155b8015610eeb57506001600160a01b0383166000908152600a602052604090205460ff16155b15610fc85760a6610efb60025490565b610f059190612cc1565b82610f25856001600160a01b031660009081526020819052604090205490565b610f2f9190612ca9565b10610fc85760405162461bcd60e51b815260206004820152604e60248201527f596f752063616e27742068617665206d6f7265207468616e203225206f66207460448201527f686520746f74616c204250445420737570706c7920616674657220612050616e60648201527f63616b655377617020737761702e000000000000000000000000000000000000608482015260a401610a4b565b336000908152600a602052604090205460ff1680610ffe57506001600160a01b0383166000908152600a602052604090205460ff165b156110175761100d8383610e90565b5060019050610a6d565b60006064601454846110299190612ce3565b6110339190612cc1565b905060006064601654856110479190612ce3565b6110519190612cc1565b905060006064601554866110659190612ce3565b61106f9190612cc1565b905060008161107e8486612ca9565b6110889190612ca9565b90506110943082610e90565b50306000908152602081905260409020546018546001600160a01b031633148015906110c05750600081115b15611115578015611103576019546018546001600160a01b03166000908152602081905260409020546110f39190612cc1565b811115611103576111038161215b565b478015611113576111134761203d565b505b60006111218389612d02565b905061112d8982610e90565b5060019998505050505050505050565b6005546001600160a01b031633146111975760405162461bcd60e51b815260206004820181905260248201527f4f776e61626c653a2063616c6c6572206973206e6f7420746865206f776e65726044820152606401610a4b565b6001600160a01b03166000908152600a60205260409020805460ff19169055565b834211156112085760405162461bcd60e51b815260206004820152601d60248201527f4552433230566f7465733a207369676e617475726520657870697265640000006044820152606401610a4b565b604080517fe48329057bfd03d55e49b547132e39cffd9c1820ad7b9d4c5307691425d15adf60208201526001600160a01b0388169181019190915260608101869052608081018590526000906112829061127a9060a001604051602081830303815290604052805190602001206122f6565b85858561235f565b905061128d81612387565b86146112db5760405162461bcd60e51b815260206004820152601960248201527f4552433230566f7465733a20696e76616c6964206e6f6e6365000000000000006044820152606401610a4b565b6112e58188611f72565b50505050505050565b8342111561133e5760405162461bcd60e51b815260206004820152601d60248201527f45524332305065726d69743a206578706972656420646561646c696e650000006044820152606401610a4b565b60007f000000000000000000000000000000000000000000000000000000000000000088888861136d8c612387565b6040805160208101969096526001600160a01b0394851690860152929091166060840152608083015260a082015260c0810186905260e00160405160208183030381529060405280519060200120905060006113c8826122f6565b905060006113d88287878761235f565b9050896001600160a01b0316816001600160a01b03161461143b5760405162461bcd60e51b815260206004820152601e60248201527f45524332305065726d69743a20696e76616c6964207369676e617475726500006044820152606401610a4b565b6114468a8a8a61198d565b50505050505050505050565b6005546001600160a01b031633146114ac5760405162461bcd60e51b815260206004820181905260248201527f4f776e61626c653a2063616c6c6572206973206e6f7420746865206f776e65726044820152606401610a4b565b60008160028111156114c0576114c0612d64565b14156114e557601180546001600160a01b0319166001600160a01b0384161790555050565b60028160028111156114f9576114f9612d64565b141561151e57601080546001600160a01b0319166001600160a01b0384161790555050565b600181600281111561153257611532612d64565b141561155457600e80546001600160a01b0319166001600160a01b0384161790555b5050565b60408051808201909152600080825260208201526001600160a01b0383166000908152600860205260409020805463ffffffff841690811061159c5761159c612d7a565b60009182526020918290206040805180820190915291015463ffffffff8116825264010000000090046001600160e01b0316918101919091529392505050565b6005546001600160a01b031633146116365760405162461bcd60e51b815260206004820181905260248201527f4f776e61626c653a2063616c6c6572206973206e6f7420746865206f776e65726044820152606401610a4b565b6001600160a01b0381166116b25760405162461bcd60e51b815260206004820152602660248201527f4f776e61626c653a206e6577206f776e657220697320746865207a65726f206160448201527f64647265737300000000000000000000000000000000000000000000000000006064820152608401610a4b565b610b6981611feb565b6116c58282611758565b6002546001600160e01b0310156117445760405162461bcd60e51b815260206004820152603060248201527f4552433230566f7465733a20746f74616c20737570706c79207269736b73206f60448201527f766572666c6f77696e6720766f746573000000000000000000000000000000006064820152608401610a4b565b611752600961183f836123af565b50505050565b6001600160a01b0382166117ae5760405162461bcd60e51b815260206004820152601f60248201527f45524332303a206d696e7420746f20746865207a65726f2061646472657373006044820152606401610a4b565b80600260008282546117c09190612ca9565b90915550506001600160a01b038216600090815260208190526040812080548392906117ed908490612ca9565b90915550506040518181526001600160a01b038316906000907fddf252ad1be2c89b69c2b068fc378daa952ba7f163c4a11628f55a4df523b3ef9060200160405180910390a361155460008383612528565b6000610b588284612ca9565b60006001600160e01b038211156118ca5760405162461bcd60e51b815260206004820152602760248201527f53616665436173743a2076616c756520646f65736e27742066697420696e203260448201527f32342062697473000000000000000000000000000000000000000000000000006064820152608401610a4b565b5090565b600063ffffffff8211156118ca5760405162461bcd60e51b815260206004820152602660248201527f53616665436173743a2076616c756520646f65736e27742066697420696e203360448201527f32206269747300000000000000000000000000000000000000000000000000006064820152608401610a4b565b6001600160a01b0383811660009081526007602052604080822054858416835291205461197c929182169116836125a3565b505050565b6000610b588284612d02565b6001600160a01b038316611a085760405162461bcd60e51b8152602060048201526024808201527f45524332303a20617070726f76652066726f6d20746865207a65726f2061646460448201527f72657373000000000000000000000000000000000000000000000000000000006064820152608401610a4b565b6001600160a01b038216611a845760405162461bcd60e51b815260206004820152602260248201527f45524332303a20617070726f766520746f20746865207a65726f20616464726560448201527f73730000000000000000000000000000000000000000000000000000000000006064820152608401610a4b565b6001600160a01b0383811660008181526001602090815260408083209487168084529482529182902085905590518481527f8c5be1e5ebec7d5bd14f71427d1e84f3dd0314c0f7b2291e5b200ac8c7c3b925910160405180910390a3505050565b6001600160a01b0383811660009081526001602090815260408083209386168352929052205460001981146117525781811015611b645760405162461bcd60e51b815260206004820152601d60248201527f45524332303a20696e73756666696369656e7420616c6c6f77616e63650000006044820152606401610a4b565b611752848484840361198d565b6001600160a01b038316611bed5760405162461bcd60e51b815260206004820152602560248201527f45524332303a207472616e736665722066726f6d20746865207a65726f20616460448201527f64726573730000000000000000000000000000000000000000000000000000006064820152608401610a4b565b6001600160a01b038216611c695760405162461bcd60e51b815260206004820152602360248201527f45524332303a207472616e7366657220746f20746865207a65726f206164647260448201527f65737300000000000000000000000000000000000000000000000000000000006064820152608401610a4b565b6001600160a01b03831660009081526020819052604090205481811015611cf85760405162461bcd60e51b815260206004820152602660248201527f45524332303a207472616e7366657220616d6f756e742065786365656473206260448201527f616c616e636500000000000000000000000000000000000000000000000000006064820152608401610a4b565b6001600160a01b03808516600090815260208190526040808220858503905591851681529081208054849290611d2f908490612ca9565b92505081905550826001600160a01b0316846001600160a01b03167fddf252ad1be2c89b69c2b068fc378daa952ba7f163c4a11628f55a4df523b3ef84604051611d7b91815260200190565b60405180910390a3611752848484612528565b6000306001600160a01b037f000000000000000000000000000000000000000000000000000000000000000016148015611de757507f000000000000000000000000000000000000000000000000000000000000000046145b15611e1157507f000000000000000000000000000000000000000000000000000000000000000090565b50604080517f00000000000000000000000000000000000000000000000000000000000000006020808301919091527f0000000000000000000000000000000000000000000000000000000000000000828401527f000000000000000000000000000000000000000000000000000000000000000060608301524660808301523060a0808401919091528351808403909101815260c0909201909252805191012090565b8154600090815b81811015611f19576000611ed082846126e0565b905084868281548110611ee557611ee5612d7a565b60009182526020909120015463ffffffff161115611f0557809250611f13565b611f10816001612ca9565b91505b50611ebc565b8115611f5d5784611f2b600184612d02565b81548110611f3b57611f3b612d7a565b60009182526020909120015464010000000090046001600160e01b0316611f60565b60005b6001600160e01b031695945050505050565b6001600160a01b038281166000818152600760208181526040808420805485845282862054949093528787166001600160a01b03198416811790915590519190951694919391928592917f3134e8a2e6d97e929a7e54011ea5485d7d196dd5f0ba4d4ef95803e8e3fc257f9190a46117528284836125a3565b600580546001600160a01b038381166001600160a01b0319831681179093556040519116919082907f8be0079c531659141344cd1fd0a4f28419497f9722a3daafe3b4186f6b6457e090600090a35050565b60006015546016546014546120529190612ca9565b61205c9190612ca9565b600e546014549192506001600160a01b0316906108fc90839061207f9086612ce3565b6120899190612cc1565b6040518115909202916000818181858888f193505050501580156120b1573d6000803e3d6000fd5b506010546016546001600160a01b03909116906108fc9083906120d49086612ce3565b6120de9190612cc1565b6040518115909202916000818181858888f19350505050158015612106573d6000803e3d6000fd5b506011546015546001600160a01b03909116906108fc9083906121299086612ce3565b6121339190612cc1565b6040518115909202916000818181858888f1935050505015801561197c573d6000803e3d6000fd5b604080516002808252606082018352600092602083019080368337019050509050308160008151811061219057612190612d7a565b6001600160a01b03928316602091820292909201810191909152601754604080517fad5c46480000000000000000000000000000000000000000000000000000000081529051919093169263ad5c4648926004808301939192829003018186803b1580156121fd57600080fd5b505afa158015612211573d6000803e3d6000fd5b505050506040513d601f19601f8201168201806040525081019061223591906129d6565b8160018151811061224857612248612d7a565b6001600160a01b03928316602091820292909201015260175461226e913091168461198d565b6017546040517f791ac9470000000000000000000000000000000000000000000000000000000081526001600160a01b039091169063791ac947906122c0908590600090869030904290600401612c38565b600060405180830381600087803b1580156122da57600080fd5b505af11580156122ee573d6000803e3d6000fd5b505050505050565b6000610a6d612303611d8e565b836040517f19010000000000000000000000000000000000000000000000000000000000006020820152602281018390526042810182905260009060620160405160208183030381529060405280519060200120905092915050565b6000806000612370878787876126fb565b9150915061237d816127e8565b5095945050505050565b6001600160a01b03811660009081526006602052604090208054600181018255905b50919050565b8254600090819080156123fa57856123c8600183612d02565b815481106123d8576123d8612d7a565b60009182526020909120015464010000000090046001600160e01b03166123fd565b60005b6001600160e01b0316925061241683858763ffffffff16565b915060008111801561245457504386612430600184612d02565b8154811061244057612440612d7a565b60009182526020909120015463ffffffff16145b156124b4576124628261184b565b8661246e600184612d02565b8154811061247e5761247e612d7a565b9060005260206000200160000160046101000a8154816001600160e01b0302191690836001600160e01b0316021790555061251f565b8560405180604001604052806124c9436118ce565b63ffffffff1681526020016124dd8561184b565b6001600160e01b0390811690915282546001810184556000938452602093849020835194909301519091166401000000000263ffffffff909316929092179101555b50935093915050565b6001600160a01b03821660009081526020818152604080832054600b9092529091205481906125578483612d02565b6125619190612ce3565b61256b4285612ce3565b6125759190612ca9565b61257f9190612cc1565b6001600160a01b0384166000908152600b602052604090205561175284848461194a565b816001600160a01b0316836001600160a01b0316141580156125c55750600081115b1561197c576001600160a01b03831615612653576001600160a01b0383166000908152600860205260408120819061260090611981856123af565b91509150846001600160a01b03167fdec2bacdd2f05b59de34da9b523dff8be42e5e38e818c82fdb0bae774387a7248383604051612648929190918252602082015260400190565b60405180910390a250505b6001600160a01b0382161561197c576001600160a01b038216600090815260086020526040812081906126899061183f856123af565b91509150836001600160a01b03167fdec2bacdd2f05b59de34da9b523dff8be42e5e38e818c82fdb0bae774387a72483836040516126d1929190918252602082015260400190565b60405180910390a25050505050565b60006126ef6002848418612cc1565b610b5890848416612ca9565b6000807f7fffffffffffffffffffffffffffffff5d576e7357a4501ddfe92f46681b20a083111561273257506000905060036127df565b8460ff16601b1415801561274a57508460ff16601c14155b1561275b57506000905060046127df565b6040805160008082526020820180845289905260ff881692820192909252606081018690526080810185905260019060a0016020604051602081039080840390855afa1580156127af573d6000803e3d6000fd5b5050604051601f1901519150506001600160a01b0381166127d8576000600192509250506127df565b9150600090505b94509492505050565b60008160048111156127fc576127fc612d64565b14156128055750565b600181600481111561281957612819612d64565b14156128675760405162461bcd60e51b815260206004820152601860248201527f45434453413a20696e76616c6964207369676e617475726500000000000000006044820152606401610a4b565b600281600481111561287b5761287b612d64565b14156128c95760405162461bcd60e51b815260206004820152601f60248201527f45434453413a20696e76616c6964207369676e6174757265206c656e677468006044820152606401610a4b565b60038160048111156128dd576128dd612d64565b14156129365760405162461bcd60e51b815260206004820152602260248201527f45434453413a20696e76616c6964207369676e6174757265202773272076616c604482015261756560f01b6064820152608401610a4b565b600481600481111561294a5761294a612d64565b1415610b695760405162461bcd60e51b815260206004820152602260248201527f45434453413a20696e76616c6964207369676e6174757265202776272076616c604482015261756560f01b6064820152608401610a4b565b803560ff811681146129b457600080fd5b919050565b6000602082840312156129cb57600080fd5b8135610b5881612d90565b6000602082840312156129e857600080fd5b8151610b5881612d90565b60008060408385031215612a0657600080fd5b8235612a1181612d90565b9150602083013560038110612a2557600080fd5b809150509250929050565b60008060408385031215612a4357600080fd5b8235612a4e81612d90565b91506020830135612a2581612d90565b600080600060608486031215612a7357600080fd5b8335612a7e81612d90565b92506020840135612a8e81612d90565b929592945050506040919091013590565b600080600080600080600060e0888a031215612aba57600080fd5b8735612ac581612d90565b96506020880135612ad581612d90565b95506040880135945060608801359350612af1608089016129a3565b925060a0880135915060c0880135905092959891949750929550565b60008060408385031215612b2057600080fd5b8235612b2b81612d90565b946020939093013593505050565b60008060008060008060c08789031215612b5257600080fd5b8635612b5d81612d90565b95506020870135945060408701359350612b79606088016129a3565b92506080870135915060a087013590509295509295509295565b60008060408385031215612ba657600080fd5b8235612bb181612d90565b9150602083013563ffffffff81168114612a2557600080fd5b600060208284031215612bdc57600080fd5b5035919050565b600060208083528351808285015260005b81811015612c1057858101830151858201604001528201612bf4565b81811115612c22576000604083870101525b50601f01601f1916929092016040019392505050565b600060a082018783526020878185015260a0604085015281875180845260c086019150828901935060005b81811015612c885784516001600160a01b031683529383019391830191600101612c63565b50506001600160a01b03969096166060850152505050608001529392505050565b60008219821115612cbc57612cbc612d4e565b500190565b600082612cde57634e487b7160e01b600052601260045260246000fd5b500490565b6000816000190483118215151615612cfd57612cfd612d4e565b500290565b600082821015612d1457612d14612d4e565b500390565b600181811c90821680612d2d57607f821691505b602082108114156123a957634e487b7160e01b600052602260045260246000fd5b634e487b7160e01b600052601160045260246000fd5b634e487b7160e01b600052602160045260246000fd5b634e487b7160e01b600052603260045260246000fd5b6001600160a01b0381168114610b6957600080fdfea2646970667358221220a4984a12fc32f67a0f91009f8ba5fdb347e71aee01f8ce45e4346c886fb2b84c64736f6c63430008070033dec2bacdd2f05b59de34da9b523dff8be42e5e38e818c82fdb0bae774387a7246101606040523480156200001257600080fd5b5060405162002fd038038062002fd0833981016040819052620000359162000434565b600581600161b2fa60008660405160200162000052919062000501565b60408051808303601f19018152828201825260018352603160f81b602093840152805183820190812060e08190527fc89efdaa54c0f20c7adf612882df0950f5a951637e0307cdcb4c672f298b8bc66101008190524660a081815286517f8b73c3c69bb8fe3d512ecc4cf759cc79239f7b179b0ffacaa9a75d522b39400f818a0181905281890195909552606081810194909452608080820193909352308183018190528851808303909301835260c09182019098528151919098012090529390931b909352610120919091528051909162000132916000919062000371565b50620001409050836200017e565b6200014b82620001bf565b620001568162000266565b50505060601b6001600160601b031916610140526200017581620002a7565b505050620005b5565b60025460408051918252602082018390527fc565b045403dc03c2eea82b81a0465edad9e2e7fc4d97e11421c209da93d7a93910160405180910390a1600255565b60008111620002255760405162461bcd60e51b815260206004820152602760248201527f476f7665726e6f7253657474696e67733a20766f74696e6720706572696f6420604482015266746f6f206c6f7760c81b60648201526084015b60405180910390fd5b60035460408051918252602082018390527f7e3f7f0708a84de9203036abaa450dccc85ad5ff52f78c170f3edb55cf5e8828910160405180910390a1600355565b60045460408051918252602082018390527fccb45da8d5717e6c4544694297c4ba5cf151d455c9bb0ed4fc7a38411bc05461910160405180910390a1600455565b60648111156200032c5760405162461bcd60e51b815260206004820152604360248201527f476f7665726e6f72566f74657351756f72756d4672616374696f6e3a2071756f60448201527f72756d4e756d657261746f72206f7665722071756f72756d44656e6f6d696e616064820152623a37b960e91b608482015260a4016200021c565b600680549082905560408051828152602081018490527f0553476bf02ef2726e8ce5ced78d63e26e602e4a2257b1f559418e24b4633997910160405180910390a15050565b8280546200037f9062000562565b90600052602060002090601f016020900481019282620003a35760008555620003ee565b82601f10620003be57805160ff1916838001178555620003ee565b82800160010185558215620003ee579182015b82811115620003ee578251825591602001919060010190620003d1565b50620003fc92915062000400565b5090565b5b80821115620003fc576000815560010162000401565b80516001600160a01b03811681146200042f57600080fd5b919050565b600080604083850312156200044857600080fd5b82516001600160401b03808211156200046057600080fd5b818501915085601f8301126200047557600080fd5b8151818111156200048a576200048a6200059f565b604051601f8201601f19908116603f01168101908382118183101715620004b557620004b56200059f565b81604052828152886020848701011115620004cf57600080fd5b620004e28360208301602088016200052f565b8096505050505050620004f86020840162000417565b90509250929050565b60008251620005158184602087016200052f565b6723b7bb32b93737b960c11b920191825250600801919050565b60005b838110156200054c57818101518382015260200162000532565b838111156200055c576000848401525b50505050565b600181811c908216806200057757607f821691505b602082108114156200059957634e487b7160e01b600052602260045260246000fd5b50919050565b634e487b7160e01b600052604160045260246000fd5b60805160a05160c05160601c60e05161010051610120516101405160601c6129ac6200062460003960008181610612015281816116d401526117c7015260006119200152600061196f0152600061194a015260006118a3015260006118cd015260006118f701526129ac6000f3fe6080604052600436106101c65760003560e01c80637b3c71d3116100f7578063c59057e411610095578063eb9019d411610064578063eb9019d4146105a0578063ece40cc1146105c0578063f8ce560a146105e0578063fc0c546a1461060057600080fd5b8063c59057e4146104e6578063dd4e2ba514610506578063deaaa7cc1461054c578063ea0217cf1461058057600080fd5b8063a7713a70116100d1578063a7713a701461047c578063b58131b014610491578063c01f9e37146104a6578063c28bc2fa146104c657600080fd5b80637b3c71d3146104285780637d5e81e21461044857806397c3d3341461046857600080fd5b80633bccf4fd11610164578063544ffc9c1161013e578063544ffc9c1461034d57806354fd4d50146103a257806356781388146103e857806370b0f6601461040857600080fd5b80633bccf4fd146102b65780633e4f49e6146102d6578063438596321461030357600080fd5b806306fdde03116101a057806306fdde031461024c5780632656227d1461026e5780632d63f693146102815780633932abb1146102a157600080fd5b806301ffc9a7146101d457806302a251a31461020957806306f3f9e61461022c57600080fd5b366101cf57005b005b600080fd5b3480156101e057600080fd5b506101f46101ef366004612353565b61064c565b60405190151581526020015b60405180910390f35b34801561021557600080fd5b5061021e6106e5565b604051908152602001610200565b34801561023857600080fd5b506101cd610247366004612395565b6106f5565b34801561025857600080fd5b50610261610755565b604051610200919061262a565b61021e61027c366004612202565b6107e7565b34801561028d57600080fd5b5061021e61029c366004612395565b610910565b3480156102ad57600080fd5b5061021e610949565b3480156102c257600080fd5b5061021e6102d1366004612458565b610954565b3480156102e257600080fd5b506102f66102f1366004612395565b6109e8565b6040516102009190612602565b34801561030f57600080fd5b506101f461031e3660046123c7565b60008281526005602090815260408083206001600160a01b038516845260030190915290205460ff1692915050565b34801561035957600080fd5b50610387610368366004612395565b6000908152600560205260409020805460018201546002909201549092565b60408051938452602084019290925290820152606001610200565b3480156103ae57600080fd5b5060408051808201909152600181527f31000000000000000000000000000000000000000000000000000000000000006020820152610261565b3480156103f457600080fd5b5061021e6104033660046123f3565b610af4565b34801561041457600080fd5b506101cd610423366004612395565b610b1d565b34801561043457600080fd5b5061021e610443366004612416565b610b75565b34801561045457600080fd5b5061021e610463366004612292565b610bc7565b34801561047457600080fd5b50606461021e565b34801561048857600080fd5b5060065461021e565b34801561049d57600080fd5b5061021e610f50565b3480156104b257600080fd5b5061021e6104c1366004612395565b610f5b565b3480156104d257600080fd5b506101cd6104e13660046121a8565b610f8b565b3480156104f257600080fd5b5061021e610501366004612202565b611023565b34801561051257600080fd5b506040805180820190915260208082527f737570706f72743d627261766f2671756f72756d3d666f722c6162737461696e90820152610261565b34801561055857600080fd5b5061021e7f150214d74d59b7d1e90c73fc22ef3d991dd0a76b046543d4d80ab92d2a50328f81565b34801561058c57600080fd5b506101cd61059b366004612395565b61105d565b3480156105ac57600080fd5b5061021e6105bb36600461217e565b6110b5565b3480156105cc57600080fd5b506101cd6105db366004612395565b6110c8565b3480156105ec57600080fd5b5061021e6105fb366004612395565b611120565b34801561060c57600080fd5b506106347f000000000000000000000000000000000000000000000000000000000000000081565b6040516001600160a01b039091168152602001610200565b60007fffffffff0000000000000000000000000000000000000000000000000000000082167fbf26d8970000000000000000000000000000000000000000000000000000000014806106df57507f01ffc9a7000000000000000000000000000000000000000000000000000000007fffffffff000000000000000000000000000000000000000000000000000000008316145b92915050565b60006106f060035490565b905090565b3330146107495760405162461bcd60e51b815260206004820152601860248201527f476f7665726e6f723a206f6e6c79476f7665726e616e6365000000000000000060448201526064015b60405180910390fd5b6107528161112b565b50565b60606000805461076490612878565b80601f016020809104026020016040519081016040528092919081815260200182805461079090612878565b80156107dd5780601f106107b2576101008083540402835291602001916107dd565b820191906000526020600020905b8154815290600101906020018083116107c057829003601f168201915b5050505050905090565b6000806107f686868686611023565b90506000610803826109e8565b90506004816007811115610819576108196128e4565b148061083657506005816007811115610834576108346128e4565b145b6108a85760405162461bcd60e51b815260206004820152602160248201527f476f7665726e6f723a2070726f706f73616c206e6f742073756363657373667560448201527f6c000000000000000000000000000000000000000000000000000000000000006064820152608401610740565b600082815260016020818152604092839020600201805460ff191690921790915590518381527f712ae1383f79ac853f8d882153778e0260ef8f03b504e2866e0593e04d2b291f910160405180910390a1610906828888888861120d565b5095945050505050565b600081815260016020908152604080832081519283019091525467ffffffffffffffff16908190525b67ffffffffffffffff1692915050565b60006106f060025490565b604080517f150214d74d59b7d1e90c73fc22ef3d991dd0a76b046543d4d80ab92d2a50328f602082015290810186905260ff8516606082015260009081906109c0906109b8906080016040516020818303038152906040528051906020012061130c565b868686611375565b90506109dd87828860405180602001604052806000815250611393565b979650505050505050565b6000818152600160205260408120600281015460ff1615610a0c5750600792915050565b6002810154610100900460ff1615610a275750600292915050565b6000610a3284610910565b905080610a815760405162461bcd60e51b815260206004820152601d60248201527f476f7665726e6f723a20756e6b6e6f776e2070726f706f73616c2069640000006044820152606401610740565b438110610a92575060009392505050565b6000610a9d85610f5b565b9050438110610ab157506001949350505050565b610aba856114b9565b8015610ad9575060008581526005602052604090208054600190910154115b15610ae957506004949350505050565b506003949350505050565b600080339050610b1584828560405180602001604052806000815250611393565b949350505050565b333014610b6c5760405162461bcd60e51b815260206004820152601860248201527f476f7665726e6f723a206f6e6c79476f7665726e616e636500000000000000006044820152606401610740565b610752816114f0565b600080339050610bbd86828787878080601f01602080910402602001604051908101604052809392919081815260200183838082843760009201919091525061139392505050565b9695505050505050565b6000610bd1610f50565b610be0336105bb600143612831565b1015610c7a5760405162461bcd60e51b815260206004820152604360248201527f476f7665726e6f72436f6d7061746962696c697479427261766f3a2070726f7060448201527f6f73657220766f7465732062656c6f772070726f706f73616c2074687265736860648201527f6f6c640000000000000000000000000000000000000000000000000000000000608482015260a401610740565b6000610c8f8686868680519060200120611023565b90508451865114610cec5760405162461bcd60e51b815260206004820152602160248201527f476f7665726e6f723a20696e76616c69642070726f706f73616c206c656e67746044820152600d60fb1b6064820152608401610740565b8351865114610d475760405162461bcd60e51b815260206004820152602160248201527f476f7665726e6f723a20696e76616c69642070726f706f73616c206c656e67746044820152600d60fb1b6064820152608401610740565b6000865111610d985760405162461bcd60e51b815260206004820152601860248201527f476f7665726e6f723a20656d7074792070726f706f73616c00000000000000006044820152606401610740565b6000818152600160209081526040918290208251918201909252815467ffffffffffffffff169081905215610e355760405162461bcd60e51b815260206004820152602160248201527f476f7665726e6f723a2070726f706f73616c20616c726561647920657869737460448201527f73000000000000000000000000000000000000000000000000000000000000006064820152608401610740565b6000610e47610e42610949565b611531565b610e5043611531565b610e5a91906127c4565b90506000610e69610e426106e5565b610e7390836127c4565b835467ffffffffffffffff191667ffffffffffffffff8416178455905060018301805467ffffffffffffffff191667ffffffffffffffff83161790557f7d84a6263ae0d98d3329bd7b46bb4e8d6f98cd35a7adb45c274c8b7fd5ebd5e084338b8b8d5167ffffffffffffffff811115610eee57610eee612910565b604051908082528060200260200182016040528015610f2157816020015b6060815260200190600190039081610f0c5790505b508c88888e604051610f3b9998979695949392919061263d565b60405180910390a15091979650505050505050565b60006106f060045490565b600081815260016020818152604080842081519283019091529091015467ffffffffffffffff1690819052610939565b333014610fda5760405162461bcd60e51b815260206004820152601860248201527f476f7665726e6f723a206f6e6c79476f7665726e616e636500000000000000006044820152606401610740565b61101c8483838080601f0160208091040260200160405190810160405280939291908181526020018383808284376000920191909152508892506115b5915050565b5050505050565b60008484848460405160200161103c94939291906125b7565b60408051601f19818403018152919052805160209091012095945050505050565b3330146110ac5760405162461bcd60e51b815260206004820152601860248201527f476f7665726e6f723a206f6e6c79476f7665726e616e636500000000000000006044820152606401610740565b610752816115db565b60006110c18383611692565b9392505050565b3330146111175760405162461bcd60e51b815260206004820152601860248201527f476f7665726e6f723a206f6e6c79476f7665726e616e636500000000000000006044820152606401610740565b61075281611750565b60006106df82611791565b60648111156111c85760405162461bcd60e51b815260206004820152604360248201527f476f7665726e6f72566f74657351756f72756d4672616374696f6e3a2071756f60448201527f72756d4e756d657261746f72206f7665722071756f72756d44656e6f6d696e6160648201527f746f720000000000000000000000000000000000000000000000000000000000608482015260a401610740565b600680549082905560408051828152602081018490527f0553476bf02ef2726e8ce5ced78d63e26e602e4a2257b1f559418e24b4633997910160405180910390a15050565b600060405180606001604052806027815260200161292760279139905060005b85518110156113035760008087838151811061124b5761124b6128fa565b60200260200101516001600160a01b031687848151811061126e5761126e6128fa565b6020026020010151878581518110611288576112886128fa565b602002602001015160405161129d919061259b565b60006040518083038185875af1925050503d80600081146112da576040519150601f19603f3d011682016040523d82523d6000602084013e6112df565b606091505b50915091506112ef82828661185d565b505050806112fc906128b3565b905061122d565b50505050505050565b60006106df611319611896565b836040517f19010000000000000000000000000000000000000000000000000000000000006020820152602281018390526042810182905260009060620160405160208183030381529060405280519060200120905092915050565b6000806000611386878787876119bd565b9150915061090681611aaa565b60008481526001602081905260408220906113ad876109e8565b60078111156113be576113be6128e4565b146114315760405162461bcd60e51b815260206004820152602360248201527f476f7665726e6f723a20766f7465206e6f742063757272656e746c792061637460448201527f69766500000000000000000000000000000000000000000000000000000000006064820152608401610740565b6040805160208101909152815467ffffffffffffffff169081905260009061145a9087906110b5565b905061146887878784611c65565b856001600160a01b03167fb8e138887d0aa13bab447e82de9d5c1777041ecd21ca36ba824ff1e6c07ddda4888784886040516114a7949392919061272f565b60405180910390a29695505050505050565b6000818152600560205260408120600281015460018201546114db91906127ac565b6114e76105fb85610910565b11159392505050565b60025460408051918252602082018390527fc565b045403dc03c2eea82b81a0465edad9e2e7fc4d97e11421c209da93d7a93910160405180910390a1600255565b600067ffffffffffffffff8211156115b15760405162461bcd60e51b815260206004820152602660248201527f53616665436173743a2076616c756520646f65736e27742066697420696e203660448201527f34206269747300000000000000000000000000000000000000000000000000006064820152608401610740565b5090565b6060610b1584848460405180606001604052806029815260200161294e60299139611e02565b600081116116515760405162461bcd60e51b815260206004820152602760248201527f476f7665726e6f7253657474696e67733a20766f74696e6720706572696f642060448201527f746f6f206c6f77000000000000000000000000000000000000000000000000006064820152608401610740565b60035460408051918252602082018390527f7e3f7f0708a84de9203036abaa450dccc85ad5ff52f78c170f3edb55cf5e8828910160405180910390a1600355565b6040517f3a46b1a80000000000000000000000000000000000000000000000000000000081526001600160a01b038381166004830152602482018390526000917f000000000000000000000000000000000000000000000000000000000000000090911690633a46b1a89060440160206040518083038186803b15801561171857600080fd5b505afa15801561172c573d6000803e3d6000fd5b505050506040513d601f19601f820116820180604052508101906110c191906123ae565b60045460408051918252602082018390527fccb45da8d5717e6c4544694297c4ba5cf151d455c9bb0ed4fc7a38411bc05461910160405180910390a1600455565b600060646006546040517f8e539e8c000000000000000000000000000000000000000000000000000000008152600481018590527f00000000000000000000000000000000000000000000000000000000000000006001600160a01b031690638e539e8c9060240160206040518083038186803b15801561181157600080fd5b505afa158015611825573d6000803e3d6000fd5b505050506040513d601f19601f8201168201806040525081019061184991906123ae565b6118539190612812565b6106df91906127f0565b6060831561186c5750816110c1565b82511561187c5782518084602001fd5b8160405162461bcd60e51b8152600401610740919061262a565b6000306001600160a01b037f0000000000000000000000000000000000000000000000000000000000000000161480156118ef57507f000000000000000000000000000000000000000000000000000000000000000046145b1561191957507f000000000000000000000000000000000000000000000000000000000000000090565b50604080517f00000000000000000000000000000000000000000000000000000000000000006020808301919091527f0000000000000000000000000000000000000000000000000000000000000000828401527f000000000000000000000000000000000000000000000000000000000000000060608301524660808301523060a0808401919091528351808403909101815260c0909201909252805191012090565b6000807f7fffffffffffffffffffffffffffffff5d576e7357a4501ddfe92f46681b20a08311156119f45750600090506003611aa1565b8460ff16601b14158015611a0c57508460ff16601c14155b15611a1d5750600090506004611aa1565b6040805160008082526020820180845289905260ff881692820192909252606081018690526080810185905260019060a0016020604051602081039080840390855afa158015611a71573d6000803e3d6000fd5b5050604051601f1901519150506001600160a01b038116611a9a57600060019250925050611aa1565b9150600090505b94509492505050565b6000816004811115611abe57611abe6128e4565b1415611ac75750565b6001816004811115611adb57611adb6128e4565b1415611b295760405162461bcd60e51b815260206004820152601860248201527f45434453413a20696e76616c6964207369676e617475726500000000000000006044820152606401610740565b6002816004811115611b3d57611b3d6128e4565b1415611b8b5760405162461bcd60e51b815260206004820152601f60248201527f45434453413a20696e76616c6964207369676e6174757265206c656e677468006044820152606401610740565b6003816004811115611b9f57611b9f6128e4565b1415611bf85760405162461bcd60e51b815260206004820152602260248201527f45434453413a20696e76616c6964207369676e6174757265202773272076616c604482015261756560f01b6064820152608401610740565b6004816004811115611c0c57611c0c6128e4565b14156107525760405162461bcd60e51b815260206004820152602260248201527f45434453413a20696e76616c6964207369676e6174757265202776272076616c604482015261756560f01b6064820152608401610740565b60008481526005602090815260408083206001600160a01b0387168452600381019092529091205460ff1615611d035760405162461bcd60e51b815260206004820152602760248201527f476f7665726e6f72566f74696e6753696d706c653a20766f746520616c72656160448201527f64792063617374000000000000000000000000000000000000000000000000006064820152608401610740565b6001600160a01b03841660009081526003820160205260408120805460ff1916600117905560ff168360ff161415611d545781816000016000828254611d4991906127ac565b9091555061101c9050565b60ff831660011415611d745781816001016000828254611d4991906127ac565b60ff831660021415611d945781816002016000828254611d4991906127ac565b60405162461bcd60e51b815260206004820152603560248201527f476f7665726e6f72566f74696e6753696d706c653a20696e76616c696420766160448201527f6c756520666f7220656e756d20566f74655479706500000000000000000000006064820152608401610740565b606082471015611e7a5760405162461bcd60e51b815260206004820152602660248201527f416464726573733a20696e73756666696369656e742062616c616e636520666f60448201527f722063616c6c00000000000000000000000000000000000000000000000000006064820152608401610740565b6001600160a01b0385163b611ed15760405162461bcd60e51b815260206004820152601d60248201527f416464726573733a2063616c6c20746f206e6f6e2d636f6e74726163740000006044820152606401610740565b600080866001600160a01b03168587604051611eed919061259b565b60006040518083038185875af1925050503d8060008114611f2a576040519150601f19603f3d011682016040523d82523d6000602084013e611f2f565b606091505b50915091506109dd82828661185d565b600067ffffffffffffffff831115611f5957611f59612910565b611f6c601f8401601f1916602001612757565b9050828152838383011115611f8057600080fd5b828260208301376000602084830101529392505050565b80356001600160a01b0381168114611fae57600080fd5b919050565b600082601f830112611fc457600080fd5b81356020611fd9611fd483612788565b612757565b80838252828201915082860187848660051b8901011115611ff957600080fd5b60005b8581101561201f5761200d82611f97565b84529284019290840190600101611ffc565b5090979650505050505050565b600082601f83011261203d57600080fd5b8135602061204d611fd483612788565b80838252828201915082860187848660051b890101111561206d57600080fd5b60005b8581101561201f57813567ffffffffffffffff81111561208f57600080fd5b8801603f81018a136120a057600080fd5b6120b18a8783013560408401611f3f565b8552509284019290840190600101612070565b600082601f8301126120d557600080fd5b813560206120e5611fd483612788565b80838252828201915082860187848660051b890101111561210557600080fd5b60005b8581101561201f57813584529284019290840190600101612108565b60008083601f84011261213657600080fd5b50813567ffffffffffffffff81111561214e57600080fd5b60208301915083602082850101111561216657600080fd5b9250929050565b803560ff81168114611fae57600080fd5b6000806040838503121561219157600080fd5b61219a83611f97565b946020939093013593505050565b600080600080606085870312156121be57600080fd5b6121c785611f97565b935060208501359250604085013567ffffffffffffffff8111156121ea57600080fd5b6121f687828801612124565b95989497509550505050565b6000806000806080858703121561221857600080fd5b843567ffffffffffffffff8082111561223057600080fd5b61223c88838901611fb3565b9550602087013591508082111561225257600080fd5b61225e888389016120c4565b9450604087013591508082111561227457600080fd5b506122818782880161202c565b949793965093946060013593505050565b600080600080608085870312156122a857600080fd5b843567ffffffffffffffff808211156122c057600080fd5b6122cc88838901611fb3565b955060208701359150808211156122e257600080fd5b6122ee888389016120c4565b9450604087013591508082111561230457600080fd5b6123108883890161202c565b9350606087013591508082111561232657600080fd5b508501601f8101871361233857600080fd5b61234787823560208401611f3f565b91505092959194509250565b60006020828403121561236557600080fd5b81357fffffffff00000000000000000000000000000000000000000000000000000000811681146110c157600080fd5b6000602082840312156123a757600080fd5b5035919050565b6000602082840312156123c057600080fd5b5051919050565b600080604083850312156123da57600080fd5b823591506123ea60208401611f97565b90509250929050565b6000806040838503121561240657600080fd5b823591506123ea6020840161216d565b6000806000806060858703121561242c57600080fd5b8435935061243c6020860161216d565b9250604085013567ffffffffffffffff8111156121ea57600080fd5b600080600080600060a0868803121561247057600080fd5b853594506124806020870161216d565b935061248e6040870161216d565b94979396509394606081013594506080013592915050565b600081518084526020808501945080840160005b838110156124df5781516001600160a01b0316875295820195908201906001016124ba565b509495945050505050565b600081518084526020808501808196508360051b8101915082860160005b8581101561253257828403895261252084835161256f565b98850198935090840190600101612508565b5091979650505050505050565b600081518084526020808501945080840160005b838110156124df57815187529582019590820190600101612553565b60008151808452612587816020860160208601612848565b601f01601f19169290920160200192915050565b600082516125ad818460208701612848565b9190910192915050565b6080815260006125ca60808301876124a6565b82810360208401526125dc818761253f565b905082810360408401526125f081866124ea565b91505082606083015295945050505050565b602081016008831061262457634e487b7160e01b600052602160045260246000fd5b91905290565b6020815260006110c1602083018461256f565b60006101208b835260206001600160a01b038c16818501528160408501526126678285018c6124a6565b9150838203606085015261267b828b61253f565b915083820360808501528189518084528284019150828160051b850101838c0160005b838110156126cc57601f198784030185526126ba83835161256f565b9486019492509085019060010161269e565b505086810360a08801526126e0818c6124ea565b9450505050506126fc60c084018767ffffffffffffffff169052565b67ffffffffffffffff851660e084015282810361010084015261271f818561256f565b9c9b505050505050505050505050565b84815260ff84166020820152826040820152608060608201526000610bbd608083018461256f565b604051601f8201601f1916810167ffffffffffffffff8111828210171561278057612780612910565b604052919050565b600067ffffffffffffffff8211156127a2576127a2612910565b5060051b60200190565b600082198211156127bf576127bf6128ce565b500190565b600067ffffffffffffffff8083168185168083038211156127e7576127e76128ce565b01949350505050565b60008261280d57634e487b7160e01b600052601260045260246000fd5b500490565b600081600019048311821515161561282c5761282c6128ce565b500290565b600082821015612843576128436128ce565b500390565b60005b8381101561286357818101518382015260200161284b565b83811115612872576000848401525b50505050565b600181811c9082168061288c57607f821691505b602082108114156128ad57634e487b7160e01b600052602260045260246000fd5b50919050565b60006000198214156128c7576128c76128ce565b5060010190565b634e487b7160e01b600052601160045260246000fd5b634e487b7160e01b600052602160045260246000fd5b634e487b7160e01b600052603260045260246000fd5b634e487b7160e01b600052604160045260246000fdfe476f7665726e6f723a2063616c6c20726576657274656420776974686f7574206d657373616765416464726573733a206c6f772d6c6576656c2063616c6c20776974682076616c7565206661696c6564a2646970667358221220f9a338639505e5ba1e0e3f6a21c839785901249176b5d82cfba29606130a50c464736f6c63430008070033608060405234801561001057600080fd5b5060405162002f7c38038062002f7c8339810160408190526100319161012c565b8251610044906000906020860190610077565b50600180546001600160a01b039384166001600160a01b031991821617909155600280549290931691161790555061026f565b8280546100839061021e565b90600052602060002090601f0160209004810192826100a557600085556100eb565b82601f106100be57805160ff19168380011785556100eb565b828001600101855582156100eb579182015b828111156100eb5782518255916020019190600101906100d0565b506100f79291506100fb565b5090565b5b808211156100f757600081556001016100fc565b80516001600160a01b038116811461012757600080fd5b919050565b60008060006060848603121561014157600080fd5b83516001600160401b038082111561015857600080fd5b818601915086601f83011261016c57600080fd5b81518181111561017e5761017e610259565b604051601f8201601f19908116603f011681019083821181831017156101a6576101a6610259565b816040528281526020935089848487010111156101c257600080fd5b600091505b828210156101e457848201840151818301850152908301906101c7565b828211156101f55760008484830101525b9650610205915050868201610110565b9350505061021560408501610110565b90509250925092565b600181811c9082168061023257607f821691505b6020821081141561025357634e487b7160e01b600052602260045260246000fd5b50919050565b634e487b7160e01b600052604160045260246000fd5b612cfd806200027f6000396000f3fe608060405234801561001057600080fd5b50600436106100725760003560e01c8063b42165d011610050578063b42165d0146100de578063c4161f33146100f1578063d090e47e1461010657600080fd5b8063276f1c411461007757806348976936146100a75780639d116884146100bc575b600080fd5b60015461008a906001600160a01b031681565b6040516001600160a01b0390911681526020015b60405180910390f35b6100af61011e565b60405161009e9190610589565b6100cf6100ca366004610523565b6101ac565b60405161009e939291906105a3565b60025461008a906001600160a01b031681565b6101046100ff36600461045f565b610273565b005b6004546101109081565b60405190815260200161009e565b6000805461012b906105d5565b80601f0160208091040260200160405190810160405280929190818152602001828054610157906105d5565b80156101a45780601f10610179576101008083540402835291602001916101a4565b820191906000526020600020905b81548152906001019060200180831161018757829003601f168201915b505050505081565b600381815481106101bc57600080fd5b600091825260209091206003909102018054600182018054919350906101e1906105d5565b80601f016020809104026020016040519081016040528092919081815260200182805461020d906105d5565b801561025a5780601f1061022f5761010080835404028352916020019161025a565b820191906000526020600020905b81548152906001019060200180831161023d57829003601f168201915b505050600290930154919250506001600160a01b031683565b60008183604051610283906103b9565b606080825260009082015260208101929092526040820152608001604051809103906000f0801580156102ba573d6000803e3d6000fd5b509050600060405180606001604052806102d360045490565b815260208082018890526001600160a01b038516604090920191909152600380546001810182556000829052835191027fc2575a0e9e593c00f959f8c92f12db2869c3395a3b0502d05e2516446f71f85b810191825583830151805194955085949293610367937fc2575a0e9e593c00f959f8c92f12db2869c3395a3b0502d05e2516446f71f85c909301929101906103c6565b5060409190910151600290910180547fffffffffffffffffffffffff0000000000000000000000000000000000000000166001600160a01b039092169190911790556004805460010190555050505050565b6126a18061062783390190565b8280546103d2906105d5565b90600052602060002090601f0160209004810192826103f4576000855561043a565b82601f1061040d57805160ff191683800117855561043a565b8280016001018555821561043a579182015b8281111561043a57825182559160200191906001019061041f565b5061044692915061044a565b5090565b5b80821115610446576000815560010161044b565b60008060006060848603121561047457600080fd5b833567ffffffffffffffff8082111561048c57600080fd5b818601915086601f8301126104a057600080fd5b8135818111156104b2576104b2610610565b604051601f8201601f19908116603f011681019083821181831017156104da576104da610610565b816040528281528960208487010111156104f357600080fd5b82602086016020830137600060208483010152809750505050505060208401359150604084013590509250925092565b60006020828403121561053557600080fd5b5035919050565b6000815180845260005b8181101561056257602081850181015186830182015201610546565b81811115610574576000602083870101525b50601f01601f19169290920160200192915050565b60208152600061059c602083018461053c565b9392505050565b8381526060602082015260006105bc606083018561053c565b90506001600160a01b0383166040830152949350505050565b600181811c908216806105e957607f821691505b6020821081141561060a57634e487b7160e01b600052602260045260246000fd5b50919050565b634e487b7160e01b600052604160045260246000fdfe608060405260006004553480156200001657600080fd5b50604051620026a1380380620026a1833981016040819052620000399162000115565b82620000458162000056565b506008919091556009555062000258565b80516200006b9060029060208401906200006f565b5050565b8280546200007d9062000205565b90600052602060002090601f016020900481019282620000a15760008555620000ec565b82601f10620000bc57805160ff1916838001178555620000ec565b82800160010185558215620000ec579182015b82811115620000ec578251825591602001919060010190620000cf565b50620000fa929150620000fe565b5090565b5b80821115620000fa5760008155600101620000ff565b6000806000606084860312156200012b57600080fd5b83516001600160401b03808211156200014357600080fd5b818601915086601f8301126200015857600080fd5b8151818111156200016d576200016d62000242565b604051601f8201601f19908116603f0116810190838211818310171562000198576200019862000242565b81604052828152602093508984848701011115620001b557600080fd5b600091505b82821015620001d95784820184015181830185015290830190620001ba565b82821115620001eb5760008484830101525b928801516040909801519299979850919695505050505050565b600181811c908216806200021a57607f821691505b602082108114156200023c57634e487b7160e01b600052602260045260246000fd5b50919050565b634e487b7160e01b600052604160045260246000fd5b61243980620002686000396000f3fe60806040526004361061015d5760003560e01c80636c2c9c7d116100c0578063a238423611610074578063de74e57b11610059578063de74e57b146103a8578063e985e9c5146103ff578063f242432a1461044857600080fd5b8063a238423614610375578063d2bcdc601461039557600080fd5b806399530b06116100a557806399530b061461032c578063a0712d6814610342578063a22cb4651461035557600080fd5b80636c2c9c7d146102f5578063744bfe611461030c57600080fd5b806323b7c6461161011757806333caeb94116100fc57806333caeb941461025f5780633a98ef39146102b25780634e1273f4146102c857600080fd5b806323b7c646146102295780632eb2c2d61461023f57600080fd5b806301ffc9a71161014857806301ffc9a71461019f57806303fc8d2b146101cf5780630e89341c146101fc57600080fd5b80625c33e114610162578062fdd58e1461016c575b600080fd5b61016a610468565b005b34801561017857600080fd5b5061018c610187366004611ec0565b610598565b6040519081526020015b60405180910390f35b3480156101ab57600080fd5b506101bf6101ba366004611fbf565b610644565b6040519015158152602001610196565b3480156101db57600080fd5b5061018c6101ea366004611d20565b60066020526000908152604090205481565b34801561020857600080fd5b5061021c610217366004611ff9565b6106df565b60405161019691906121c3565b34801561023557600080fd5b5061018c600a5481565b34801561024b57600080fd5b5061016a61025a366004611d76565b610773565b34801561026b57600080fd5b5061027f61027a366004611ff9565b610815565b60408051951515865260208601949094529284019190915260608301526001600160a01b0316608082015260a001610196565b3480156102be57600080fd5b5061018c60095481565b3480156102d457600080fd5b506102e86102e3366004611eec565b610863565b6040516101969190612182565b34801561030157600080fd5b5060035461018c9081565b34801561031857600080fd5b5061016a610327366004612012565b6109a1565b34801561033857600080fd5b5061018c60085481565b61016a610350366004611ff9565b610a99565b34801561036157600080fd5b5061016a610370366004611e8d565b610bc9565b34801561038157600080fd5b5061016a610390366004612037565b610bd8565b61016a6103a3366004612037565b610e06565b3480156103b457600080fd5b5061027f6103c3366004611ff9565b6005602052600090815260409020805460018201546002830154600384015460049094015460ff9093169391929091906001600160a01b031685565b34801561040b57600080fd5b506101bf61041a366004611d3d565b6001600160a01b03918216600090815260016020908152604080832093909416825291909152205460ff1690565b34801561045457600080fd5b5061016a610463366004611e24565b611194565b60005b610475600b61122f565b81101561055d576000610489600b83611239565b9050600061049982600454610598565b905080156105485760006104c2346104bc600a548561124c90919063ffffffff16565b90611258565b6040519091506001600160a01b0384169082156108fc029083906000818181858888f193505050501580156104fb573d6000803e3d6000fd5b50604080516001600160a01b0385168152602081018490529081018290527f1bce738afce154c79bcc3113f446651c11d8d4d89a3957b0c843afff0ef93ea09060600160405180910390a1505b50508080610555906122d2565b91505061046b565b50604080513381523460208201527ff7116f8ce12018cbf35ab846afe2ed8ca23445fc5f7f22d402077a0a151a507e910160405180910390a1565b60006001600160a01b03831661061b5760405162461bcd60e51b815260206004820152602b60248201527f455243313135353a2062616c616e636520717565727920666f7220746865207a60448201527f65726f206164647265737300000000000000000000000000000000000000000060648201526084015b60405180910390fd5b506000818152602081815260408083206001600160a01b03861684529091529020545b92915050565b60006001600160e01b031982167fd9b67a260000000000000000000000000000000000000000000000000000000014806106a757506001600160e01b031982167f0e89341c00000000000000000000000000000000000000000000000000000000145b8061063e57507f01ffc9a7000000000000000000000000000000000000000000000000000000006001600160e01b031983161461063e565b6060600280546106ee9061226a565b80601f016020809104026020016040519081016040528092919081815260200182805461071a9061226a565b80156107675780601f1061073c57610100808354040283529160200191610767565b820191906000526020600020905b81548152906001019060200180831161074a57829003601f168201915b50505050509050919050565b6001600160a01b03851633148061078f575061078f853361041a565b6108015760405162461bcd60e51b815260206004820152603260248201527f455243313135353a207472616e736665722063616c6c6572206973206e6f742060448201527f6f776e6572206e6f7220617070726f76656400000000000000000000000000006064820152608401610612565b61080e8585858585611264565b5050505050565b6007818154811061082557600080fd5b60009182526020909120600590910201805460018201546002830154600384015460049094015460ff9093169450909290916001600160a01b031685565b606081518351146108dc5760405162461bcd60e51b815260206004820152602960248201527f455243313135353a206163636f756e747320616e6420696473206c656e67746860448201527f206d69736d6174636800000000000000000000000000000000000000000000006064820152608401610612565b6000835167ffffffffffffffff8111156108f8576108f8612319565b604051908082528060200260200182016040528015610921578160200160208202803683370190505b50905060005b84518110156109995761096c85828151811061094557610945612303565b602002602001015185838151811061095f5761095f612303565b6020026020010151610598565b82828151811061097e5761097e612303565b6020908102919091010152610992816122d2565b9050610927565b509392505050565b33600090815260066020526040902054821115610a005760405162461bcd60e51b815260206004820152601260248201527f696e73756666696369656e742066756e647300000000000000000000000000006044820152606401610612565b6040516001600160a01b0382169083156108fc029084906000818181858888f19350505050158015610a36573d6000803e3d6000fd5b503360009081526006602052604081208054849290610a56908490612253565b909155505060408051338152602081018490527f21901fa892c430ea8bd38b9390225ac8e67eac75ee10ffba16feefc539a288f991015b60405180910390a15050565b600854610aa7908290611258565b341015610af65760405162461bcd60e51b815260206004820152601660248201527f496e76616c6964207061796d656e7420616d6f756e74000000000000000000006044820152606401610612565b600954600a54610b0690836114d7565b1115610b545760405162461bcd60e51b815260206004820152601860248201527f496e76616c696420616d6f756e74206f6620737570706c7900000000000000006044820152606401610612565b610b713360045483604051806020016040528060008152506114e3565b600a54610b7e90826114d7565b600a55610b8c600b33611609565b5060408051338152602081018390527fe0db2c42b942601357f9499d6f0520c824b2ce7513135a456b661d1d3e45de5e910160405180910390a150565b610bd433838361161e565b5050565b80610be533600454610598565b1015610c335760405162461bcd60e51b815260206004820152601b60248201527f63616c6c6572206d757374206f776e20676976656e20746f6b656e00000000006044820152606401610612565b33600090815260016020908152604080832030845290915290205460ff16610c9d5760405162461bcd60e51b815260206004820152601960248201527f636f6e7472616374206d75737420626520617070726f766564000000000000006044820152606401610612565b60006040518060a00160405280600115158152602001610cbc60035490565b81526020808201869052604080830186905233606093840152600780546001808201835560009290925285517fa66cc928b5edb82af9bd49922954155ab7b0942694bea4ce44661d9a8736c6886005909202918201805460ff1916911515919091179055928501517fa66cc928b5edb82af9bd49922954155ab7b0942694bea4ce44661d9a8736c689840155908401517fa66cc928b5edb82af9bd49922954155ab7b0942694bea4ce44661d9a8736c68a830155918301517fa66cc928b5edb82af9bd49922954155ab7b0942694bea4ce44661d9a8736c68b82015560808301517fa66cc928b5edb82af9bd49922954155ab7b0942694bea4ce44661d9a8736c68c90910180547fffffffffffffffffffffffff0000000000000000000000000000000000000000166001600160a01b039092169190911790556003805490910190559050505050565b610e3d8160078481548110610e1d57610e1d612303565b90600052602060002090600502016002015461125890919063ffffffff16565b341015610e8c5760405162461bcd60e51b815260206004820152601760248201527f696e73756666696369656e742066756e64732073656e740000000000000000006044820152606401610612565b60078281548110610e9f57610e9f612303565b906000526020600020906005020160030154811115610f265760405162461bcd60e51b815260206004820152602260248201527f696e76616c696420616d6f756e74206f6620736861726573207265717565737460448201527f65640000000000000000000000000000000000000000000000000000000000006064820152608401610612565b80610f6a60078481548110610f3d57610f3d612303565b906000526020600020906005020160040160009054906101000a90046001600160a01b0316600454610598565b1015610fb85760405162461bcd60e51b815260206004820152601e60248201527f696e73756666696369656e7420616d6f756e742066726f6d206f776e657200006044820152606401610612565b60078281548110610fcb57610fcb612303565b600091825260209091206005909102015460ff1615156001146110305760405162461bcd60e51b815260206004820152601260248201527f6c697374696e67206e6f742061637469766500000000000000000000000000006044820152606401610612565b34600660006007858154811061104857611048612303565b60009182526020808320600460059093020191909101546001600160a01b03168352820192909252604001812080549091906110859084906121fa565b925050819055506110e1600783815481106110a2576110a2612303565b906000526020600020906005020160040160009054906101000a90046001600160a01b0316336004548460405180602001604052806000815250611194565b6000600783815481106110f6576110f6612303565b60009182526020909120600590910201805460ff1916911515919091179055611120600b33611609565b507f63d750b618ac6262a7e40139b41db26e8a37389241ff8feaba3154fbf3b53571336007848154811061115657611156612303565b600091825260209182902060059091020160040154604080516001600160a01b03948516815293909116918301919091528101839052606001610a8d565b6001600160a01b0385163314806111b057506111b0853361041a565b6112225760405162461bcd60e51b815260206004820152602960248201527f455243313135353a2063616c6c6572206973206e6f74206f776e6572206e6f7260448201527f20617070726f76656400000000000000000000000000000000000000000000006064820152608401610612565b61080e8585858585611713565b600061063e825490565b600061124583836118b1565b9392505050565b60006112458284612212565b60006112458284612234565b81518351146112db5760405162461bcd60e51b815260206004820152602860248201527f455243313135353a2069647320616e6420616d6f756e7473206c656e6774682060448201527f6d69736d617463680000000000000000000000000000000000000000000000006064820152608401610612565b6001600160a01b03841661133f5760405162461bcd60e51b815260206004820152602560248201527f455243313135353a207472616e7366657220746f20746865207a65726f206164604482015264647265737360d81b6064820152608401610612565b3360005b845181101561146957600085828151811061136057611360612303565b60200260200101519050600085838151811061137e5761137e612303565b602090810291909101810151600084815280835260408082206001600160a01b038e1683529093529190912054909150818110156114115760405162461bcd60e51b815260206004820152602a60248201527f455243313135353a20696e73756666696369656e742062616c616e636520666f60448201526939103a3930b739b332b960b11b6064820152608401610612565b6000838152602081815260408083206001600160a01b038e8116855292528083208585039055908b1682528120805484929061144e9084906121fa565b9250508190555050505080611462906122d2565b9050611343565b50846001600160a01b0316866001600160a01b0316826001600160a01b03167f4a39dc06d4c0dbc64b70af90fd698a233a518aa5d07e595d983b8c0526c8f7fb87876040516114b9929190612195565b60405180910390a46114cf8187878787876118db565b505050505050565b600061124582846121fa565b6001600160a01b03841661155f5760405162461bcd60e51b815260206004820152602160248201527f455243313135353a206d696e7420746f20746865207a65726f2061646472657360448201527f73000000000000000000000000000000000000000000000000000000000000006064820152608401610612565b336115798160008761157088611a90565b61080e88611a90565b6000848152602081815260408083206001600160a01b0389168452909152812080548592906115a99084906121fa565b909155505060408051858152602081018590526001600160a01b0380881692600092918516917fc3d58168c5ae7397731d063d5bbf3d657854427343f4c083240f7aacaa2d0f62910160405180910390a461080e81600087878787611adb565b6000611245836001600160a01b038416611be6565b816001600160a01b0316836001600160a01b031614156116a65760405162461bcd60e51b815260206004820152602960248201527f455243313135353a2073657474696e6720617070726f76616c2073746174757360448201527f20666f722073656c6600000000000000000000000000000000000000000000006064820152608401610612565b6001600160a01b03838116600081815260016020908152604080832094871680845294825291829020805460ff191686151590811790915591519182527f17307eab39ab6107e8899845ad3d59bd9653f200f220920489ca2b5937696c31910160405180910390a3505050565b6001600160a01b0384166117775760405162461bcd60e51b815260206004820152602560248201527f455243313135353a207472616e7366657220746f20746865207a65726f206164604482015264647265737360d81b6064820152608401610612565b3361178781878761157088611a90565b6000848152602081815260408083206001600160a01b038a1684529091529020548381101561180b5760405162461bcd60e51b815260206004820152602a60248201527f455243313135353a20696e73756666696369656e742062616c616e636520666f60448201526939103a3930b739b332b960b11b6064820152608401610612565b6000858152602081815260408083206001600160a01b038b81168552925280832087850390559088168252812080548692906118489084906121fa565b909155505060408051868152602081018690526001600160a01b03808916928a821692918616917fc3d58168c5ae7397731d063d5bbf3d657854427343f4c083240f7aacaa2d0f62910160405180910390a46118a8828888888888611adb565b50505050505050565b60008260000182815481106118c8576118c8612303565b9060005260206000200154905092915050565b6001600160a01b0384163b156114cf5760405163bc197c8160e01b81526001600160a01b0385169063bc197c819061191f90899089908890889088906004016120e1565b602060405180830381600087803b15801561193957600080fd5b505af1925050508015611969575060408051601f3d908101601f1916820190925261196691810190611fdc565b60015b611a1f5761197561232f565b806308c379a014156119af575061198a61234b565b8061199557506119b1565b8060405162461bcd60e51b815260040161061291906121c3565b505b60405162461bcd60e51b815260206004820152603460248201527f455243313135353a207472616e7366657220746f206e6f6e204552433131353560448201527f526563656976657220696d706c656d656e7465720000000000000000000000006064820152608401610612565b6001600160e01b0319811663bc197c8160e01b146118a85760405162461bcd60e51b815260206004820152602860248201527f455243313135353a204552433131353552656365697665722072656a656374656044820152676420746f6b656e7360c01b6064820152608401610612565b60408051600180825281830190925260609160009190602080830190803683370190505090508281600081518110611aca57611aca612303565b602090810291909101015292915050565b6001600160a01b0384163b156114cf5760405163f23a6e6160e01b81526001600160a01b0385169063f23a6e6190611b1f908990899088908890889060040161213f565b602060405180830381600087803b158015611b3957600080fd5b505af1925050508015611b69575060408051601f3d908101601f19168201909252611b6691810190611fdc565b60015b611b755761197561232f565b6001600160e01b0319811663f23a6e6160e01b146118a85760405162461bcd60e51b815260206004820152602860248201527f455243313135353a204552433131353552656365697665722072656a656374656044820152676420746f6b656e7360c01b6064820152608401610612565b6000818152600183016020526040812054611c2d5750815460018181018455600084815260208082209093018490558454848252828601909352604090209190915561063e565b50600061063e565b600082601f830112611c4657600080fd5b81356020611c53826121d6565b604051611c6082826122a5565b8381528281019150858301600585901b87018401881015611c8057600080fd5b60005b85811015611c9f57813584529284019290840190600101611c83565b5090979650505050505050565b600082601f830112611cbd57600080fd5b813567ffffffffffffffff811115611cd757611cd7612319565b604051611cee601f8301601f1916602001826122a5565b818152846020838601011115611d0357600080fd5b816020850160208301376000918101602001919091529392505050565b600060208284031215611d3257600080fd5b8135611245816123d5565b60008060408385031215611d5057600080fd5b8235611d5b816123d5565b91506020830135611d6b816123d5565b809150509250929050565b600080600080600060a08688031215611d8e57600080fd5b8535611d99816123d5565b94506020860135611da9816123d5565b9350604086013567ffffffffffffffff80821115611dc657600080fd5b611dd289838a01611c35565b94506060880135915080821115611de857600080fd5b611df489838a01611c35565b93506080880135915080821115611e0a57600080fd5b50611e1788828901611cac565b9150509295509295909350565b600080600080600060a08688031215611e3c57600080fd5b8535611e47816123d5565b94506020860135611e57816123d5565b93506040860135925060608601359150608086013567ffffffffffffffff811115611e8157600080fd5b611e1788828901611cac565b60008060408385031215611ea057600080fd5b8235611eab816123d5565b915060208301358015158114611d6b57600080fd5b60008060408385031215611ed357600080fd5b8235611ede816123d5565b946020939093013593505050565b60008060408385031215611eff57600080fd5b823567ffffffffffffffff80821115611f1757600080fd5b818501915085601f830112611f2b57600080fd5b81356020611f38826121d6565b604051611f4582826122a5565b8381528281019150858301600585901b870184018b1015611f6557600080fd5b600096505b84871015611f91578035611f7d816123d5565b835260019690960195918301918301611f6a565b5096505086013592505080821115611fa857600080fd5b50611fb585828601611c35565b9150509250929050565b600060208284031215611fd157600080fd5b8135611245816123ed565b600060208284031215611fee57600080fd5b8151611245816123ed565b60006020828403121561200b57600080fd5b5035919050565b6000806040838503121561202557600080fd5b823591506020830135611d6b816123d5565b6000806040838503121561204a57600080fd5b50508035926020909101359150565b600081518084526020808501945080840160005b838110156120895781518752958201959082019060010161206d565b509495945050505050565b6000815180845260005b818110156120ba5760208185018101518683018201520161209e565b818111156120cc576000602083870101525b50601f01601f19169290920160200192915050565b60006001600160a01b03808816835280871660208401525060a0604083015261210d60a0830186612059565b828103606084015261211f8186612059565b905082810360808401526121338185612094565b98975050505050505050565b60006001600160a01b03808816835280871660208401525084604083015283606083015260a0608083015261217760a0830184612094565b979650505050505050565b6020815260006112456020830184612059565b6040815260006121a86040830185612059565b82810360208401526121ba8185612059565b95945050505050565b6020815260006112456020830184612094565b600067ffffffffffffffff8211156121f0576121f0612319565b5060051b60200190565b6000821982111561220d5761220d6122ed565b500190565b60008261222f57634e487b7160e01b600052601260045260246000fd5b500490565b600081600019048311821515161561224e5761224e6122ed565b500290565b600082821015612265576122656122ed565b500390565b600181811c9082168061227e57607f821691505b6020821081141561229f57634e487b7160e01b600052602260045260246000fd5b50919050565b601f8201601f1916810167ffffffffffffffff811182821017156122cb576122cb612319565b6040525050565b60006000198214156122e6576122e66122ed565b5060010190565b634e487b7160e01b600052601160045260246000fd5b634e487b7160e01b600052603260045260246000fd5b634e487b7160e01b600052604160045260246000fd5b600060033d11156123485760046000803e5060005160e01c5b90565b600060443d10156123595790565b6040516003193d81016004833e81513d67ffffffffffffffff816024840111818411171561238957505050505090565b82850191508151818111156123a15750505050505090565b843d87010160208285010111156123bb5750505050505090565b6123ca602082860101876122a5565b509095945050505050565b6001600160a01b03811681146123ea57600080fd5b50565b6001600160e01b0319811681146123ea57600080fdfea264697066735822122046a305b2838f3d7b034c61d6d9278ef49730ae3b0ba974405128e634951fce5064736f6c63430008070033a264697066735822122023184b0de78d0937a1e90fcb3f673b12a507b18eebdc328383e27c43bd1f963464736f6c63430008070033a2646970667358221220927211fa86b9d8c2047278d9411d73bbf589335e715d55bdefbc4cc59b0a678364736f6c63430008070033",
  "linkReferences": {},
  "deployedLinkReferences": {}
}